:100000000C942A000C9447000C9447000C94470071
:100010000C9447000C9447000C9447000C94470044
:100020000C9447000C9447000C941E0B0C94470052
:100030000C9447000C9427070C9447000C9447003D
:100040000C9447000C9447000C9447000C94470014
:100050000C94470011241FBECFE5D8E0DEBFCDBF12
:1000600012E0A0E6B0E0E0E5F4E502C005900D92F4
:10007000A23BB107D9F713E0A2EBB2E001C01D9299
:10008000A137B107E1F70E948F260C94262A0C9421
:100090000000EF92FF920F931F937B018C0120E0F1
:1000A00030E040E05FE40E94F50388238CF0C80153
:1000B000B70120E030E040E05FE40E94C1010E940F
:1000C00055049B01AC01205030404040504806C0D0
:1000D000C801B7010E9455049B01AC01B901CA01D6
:1000E0001F910F91FF90EF900895A0E0B0E0EBE733
:1000F000F0E00C94E526DC012B01FA019C91923092
:1001000008F439C1EB018881823008F433C194309E
:1001100069F4843009F02FC111969C91119789815F
:10012000981709F428C1A9E9B2E025C1843009F47F
:1001300021C18230A9F4923009F01DC19A01AD01AC
:1001400088E0EA010990AE01E90109929E0181501F
:10015000C1F7E201898111969C918923818308C1AD
:10016000923009F407C112962D903C901397EB0141
:100170008A819B811496AD90BD90CD90DC901797AD
:10018000EC80FD800E811F819101281B390BB90184
:1001900037FF04C066277727621B730B6032710537
:1001A0000CF061C0121613066CF537014801062EDB
:1001B00004C096948794779467940A94D2F721E0C8
:1001C00030E040E050E004C0220F331F441F551FB1
:1001D0006A95D2F721503040404050402E213F21B7
:1001E00040235123211531054105510521F021E01E
:1001F00030E040E050E079018A01E628F72808293C
:1002000019293CC0232BD1F1260E371E350146019A
:10021000062E04C096948794779467940A94D2F734
:1002200021E030E040E050E004C0220F331F441FC3
:10023000551F6A95D2F721503040404050402A2146
:100240003B214C215D21211531054105510521F04E
:1002500021E030E040E050E059016A01A628B728CB
:10026000C828D9280BC0821593052CF01C01AA249C
:10027000BB24650103C0EE24FF24870111969C91E5
:10028000D20111968C91981709F445C0992339F041
:10029000A80197012A193B094C095D0906C0A6016E
:1002A00095012E193F09400B510B57FD08C01182D3
:1002B0003382228224833583468357831DC081E0A5
:1002C00081833382228288279927DC01821B930B4A
:1002D000A40BB50B84839583A683B7830DC0220F2F
:1002E000331F441F551F24833583468357838281E0
:1002F000938101979383828324813581468157813D
:10030000DA01C9010197A109B1098F5F9F4FAF4F72
:10031000BF4328F30BC0918333822282EA0CFB1C7B
:100320000C1D1D1DE482F5820683178383E0808304
:10033000248135814681578157FF1AC0C901AA27F8
:1003400097FDA095BA2F81709070A070B0705695EF
:10035000479537952795822B932BA42BB52B848318
:100360009583A683B7838281938101969383828349
:10037000DF0101C0D201CD01CDB7DEB7E2E10C94BF
:100380000127A0E2B0E0E7ECF1E00C94F1266983EC
:100390007A838B839C832D833E834F835887E9E048
:1003A000EE2EF12CEC0EFD1ECE010196B7010E943F
:1003B0007E058E010F5E1F4FCE010596B8010E948B
:1003C0007E058A8991E089278A8BC701B801AE0131
:1003D000475E5F4F0E9475000E94A904A096E6E068
:1003E0000C940D27A0E2B0E0E8EFF1E00C94F126C8
:1003F00069837A838B839C832D833E834F835887C5
:10040000F9E0EF2EF12CEC0EFD1ECE010196B701A6
:100410000E947E058E010F5E1F4FCE010596B8012A
:100420000E947E05C701B801AE01475E5F4F0E9482
:1004300075000E94A904A096E6E00C940D27A0E2A6
:10044000B0E0E5E2F2E00C94E52669837A838B83E1
:100450009C832D833E834F835887CE010196BE0136
:10046000675F7F4F0E947E05CE010596BE016F5EDD
:100470007F4F0E947E059985923088F0898982306D
:10048000C8F0943019F4823051F404C0843029F457
:10049000923081F489E992E0C6C0923049F420E0BC
:1004A0009A858A89981321E02A87CE010996BBC0D4
:1004B000823049F420E09A858A89981321E02A8BBA
:1004C000CE014196B0C02D843E844F8458886D88FB
:1004D0007E888F88988CEE24FF248701AA24BB2471
:1004E000650140E050E060E070E0E0E0F0E0C10174
:1004F00081709070892BE9F0E60CF71C081D191D1E
:100500009A01AB012A0D3B1D4C1D5D1D80E090E062
:10051000A0E0B0E0E614F7040805190520F481E036
:1005200090E0A0E0B0E0BA01A901480F591F6A1F8E
:100530007B1FAA0CBB1CCC1CDD1C97FE08C081E0F5
:1005400090E0A0E0B0E0A82AB92ACA2ADB2A3196B6
:10055000E032F10549F0660C771C881C991C569412
:10056000479437942794C3CFFA85EA892B893C892D
:100570008B859C85280F391F2E5F3F4F17C0CA01FE
:1005800081709070892B61F016950795F794E79428
:1005900080E090E0A0E0B0E8E82AF92A0A2B1B2BC3
:1005A00076956795579547952F5F3F4F77FDE7CF36
:1005B0000CC0440F551F661F771F17FD4160EE0CDE
:1005C000FF1C001F111F21503040403090E05907A0
:1005D00090E0690790E4790760F32B8F3C8FDB0193
:1005E000CA018F779070A070B07080349105A1051A
:1005F000B10561F447FD0AC0E114F10401051105DC
:1006000029F0405C5F4F6F4F7F4F40781A8EFE1786
:1006100011F081E08A8F4D8F5E8F6F8F78A383E01A
:10062000898FCE0149960E94A904A096E2E10C941C
:100630000127A8E1B0E0EFE1F3E00C94ED26698337
:100640007A838B839C832D833E834F835887B9E0C5
:10065000EB2EF12CEC0EFD1ECE010196B7010E948F
:100660007E058E010F5E1F4FCE010596B8010E94D8
:100670007E052985223008F47EC03989323010F495
:10068000B8017CC08A859A8989278A87243011F02D
:10069000223031F4231709F06EC069E972E06EC0B0
:1006A000343039F41D861E861F86188A1C861B86E8
:1006B00004C0323021F484E08987B7015FC02B8504
:1006C0003C858B899C89281B390B3C872B87ED84C3
:1006D000FE840F851889AD88BE88CF88D88CEA142F
:1006E000FB040C051D0540F4EE0CFF1C001F111F40
:1006F000215030403C872B8720E030E040E050E044
:1007000080E090E0A0E0B0E460E070E0EA14FB0478
:100710000C051D0540F0282B392B4A2B5B2BEA18C2
:10072000FB080C091D09B695A79597958795EE0CC2
:10073000FF1C001F111F6F5F7F4F6F31710531F775
:10074000DA01C9018F779070A070B0708034910584
:10075000A105B10561F427FD0AC0E114F10401050A
:10076000110529F0205C3F4F4F4F5F4F20782D87B8
:100770003E874F87588BBE01675F7F4FCB010E943A
:10078000A9046896EAE00C940927A8E1B0E0EBEC34
:10079000F3E00C94F12669837A838B839C832D8309
:1007A0003E834F83588789E0E82EF12CEC0EFD1E26
:1007B000CE010196B7010E947E058E010F5E1F4F8C
:1007C000CE010596B8010E947E058985823040F0F1
:1007D0008989823028F0C701B8010E94F60501C05E
:1007E0008FEF6896E6E00C940D27A8E1B0E0EBEF00
:1007F000F3E00C94F12669837A838B839C832D83A9
:100800003E834F83588789E0E82EF12CEC0EFD1EC5
:10081000CE010196B7010E947E058E010F5E1F4F2B
:10082000CE010596B8010E947E058985823040F090
:100830008989823028F0C701B8010E94F60501C0FD
:100840008FEF6896E6E00C940D27A8E1B0E0EBE2AC
:10085000F4E00C94F12669837A838B839C832D8347
:100860003E834F83588789E0E82EF12CEC0EFD1E65
:10087000CE010196B7010E947E058E010F5E1F4FCB
:10088000CE010596B8010E947E058985823040F030
:100890008989823028F0C701B8010E94F60501C09D
:1008A00081E06896E6E00C940D27ACE0B0E0EBE563
:1008B000F4E00C94F52669837A838B839C83CE01C4
:1008C0000196BE016B5F7F4F0E947E058D81823055
:1008D00061F1823050F1843021F48E81882351F10E
:1008E0002EC02F81388537FD20C06E812F31310514
:1008F0001CF06623F9F023C08EE190E0821B930B7D
:1009000029853A854B855C8504C056954795379572
:1009100027958A95D2F76623B1F05095409530958A
:1009200021953F4F4F4F5F4F0EC020E030E040E039
:1009300050E009C02FEF3FEF4FEF5FE704C020E02A
:1009400030E040E050E8B901CA012C96E2E00C9496
:100950001127DF92EF92FF920F931F93FC01E48027
:10096000F58006811781D1808081823048F480E053
:1009700090E0A0E1B0E0E82AF92A0A2B1B2BA5C0E1
:10098000843009F49FC0823021F4EE24FF248701D3
:1009900005C0E114F1040105110519F4E0E0F0E0EF
:1009A00096C0628173819FEF623879070CF05BC05B
:1009B00022E83FEF261B370B2A3131052CF020E0CF
:1009C00030E040E050E02AC0B801A701022E04C088
:1009D00076956795579547950A94D2F781E090E010
:1009E000A0E0B0E004C0880F991FAA1FBB1F2A9582
:1009F000D2F70197A109B1098E219F21A023B1232C
:100A00000097A105B10521F081E090E0A0E0B0E001
:100A10009A01AB01282B392B4A2B5B2BDA01C90138
:100A20008F779070A070B07080349105A105B105EA
:100A300039F427FF09C0205C3F4F4F4F5F4F04C080
:100A4000215C3F4F4F4F5F4FE0E0F0E02030A0E0EF
:100A50003A07A0E04A07A0E45A0710F0E1E0F0E00E
:100A600079018A0127C06038710564F5FB01E158FE
:100A7000FF4FD801C7018F779070A070B07080349D
:100A80009105A105B10539F4E7FE0DC080E490E0C1
:100A9000A0E0B0E004C08FE390E0A0E0B0E0E80E9A
:100AA000F91E0A1F1B1F17FF05C016950795F7941F
:100AB000E794319687E016950795F794E7948A9521
:100AC000D1F705C0EE24FF248701EFEFF0E06E2F91
:100AD000679566276795902F9F77D794DD24D794E5
:100AE0008E2F8695492F462B582F5D29B701CA01B5
:100AF0001F910F91FF90EF90DF900895FC01DB01B3
:100B0000408151812281622F6F7770E0221F22275E
:100B1000221F9381892F880F822B282F30E0991F65
:100B20009927991F11969C93119721153105A9F5C5
:100B3000411551056105710511F482E037C082E865
:100B40009FEF13969C938E9312979A01AB0167E0E7
:100B5000220F331F441F551F6A95D1F783E08C93F2
:100B60000DC0220F331F441F551F12968D919C916B
:100B70001397019713969C938E931297203080E0E1
:100B8000380780E0480780E4580758F314962D93FF
:100B90003D934D935C93179708952F3F310579F45A
:100BA000411551056105710519F484E08C93089590
:100BB00064FF03C081E08C9312C01C9210C02F57B9
:100BC000304013963C932E93129783E08C9387E0EA
:100BD000440F551F661F771F8A95D1F770641496CE
:100BE0004D935D936D937C93179708951F93DC014C
:100BF000FB019C91923008F447C08081823008F458
:100C000043C0943051F411961C91843099F5818140
:100C1000682F70E0611B71093FC0843021F0923071
:100C200031F48230B9F18181882389F12DC0119688
:100C30001C9111978230F1F081811817D9F4129626
:100C40002D913C911397828193818217930794F0A1
:100C500028173907BCF014968D919D910D90BC9189
:100C6000A02D2481358146815781281739074A07ED
:100C70005B0718F4112341F00AC082179307A407F9
:100C8000B50740F4112319F061E070E005C06FEF83
:100C90007FEF02C060E070E0CB011F910895DF9309
:100CA000CF93CDB7DEB7E7E2F0E080EC8083E6E2F9
:100CB000F0E087E88083CF91DF910895DF93CF93B1
:100CC0000F92CDB7DEB78983A7E2B0E0E7E2F0E0AC
:100CD0008081982F987F8981892B8C93A6E2B0E040
:100CE000E6E2F0E0808180648C93E6E2F0E08081CF
:100CF000882F90E0807190700097B9F3E4E2F0E003
:100D0000808191810F90CF91DF910895DF93CF93F0
:100D100000D0CDB7DEB71A821982EAE2F0E088E9A6
:100D20008083E0E4F0E086E88083E9E2F0E083E3BA
:100D30008083E0E4F0E010820F900F90CF91DF917C
:100D40000895DF93CF930F92CDB7DEB78983EBE29F
:100D5000F0E08081882F90E0807290700097B9F366
:100D6000ECE2F0E0898180830F90CF91DF910895CC
:100D7000DF93CF93CDB7DEB7EBE2F0E0808188233D
:100D8000DCF7ECE2F0E08081CF91DF910895DF9312
:100D9000CF9300D000D0CDB7DEB79C838B831A826F
:100DA00019820FC029813A818B819C81FC01E20F5D
:100DB000F31F80810E94A10689819A8101969A83FE
:100DC000898329813A818B819C81FC01E20FF31F89
:100DD0008081882339F70F900F900F900F90CF915B
:100DE000DF910895DF93CF93CDB7DEB766970FB647
:100DF000F894DEBF0FBECDBF9E8B8D8B8D899E89F3
:100E00009E012F5F3F4FB9014AE050E00E945427F6
:100E1000CE0101960E94C70666960FB6F894DEBF13
:100E20000FBECDBFCF91DF910895DF93CF9300D058
:100E3000CDB7DEB79A83898389819A819093B60270
:100E40008093B5020F900F90CF91DF9108951F927C
:100E50000F920FB60F9211242F933F934F935F93EE
:100E60006F937F938F939F93AF93BF93EF93FF9372
:100E7000DF93CF93CDB7DEB7E091B502F091B60224
:100E80000995CF91DF91FF91EF91BF91AF919F9124
:100E90008F917F916F915F914F913F912F910F9023
:100EA0000FBE0F901F901895DF93CF93CDB7DEB78D
:100EB000E1E2F0E01082E0E2F0E087E48083E6E542
:100EC000F0E084E08083CF91DF910895DF93CF93AA
:100ED000CDB7DEB7E6E5F0E084EA8083E6E5F0E052
:100EE00080818823DCF7CF91DF910895DF93CF9342
:100EF0000F92CDB7DEB78983E3E2F0E0898180838A
:100F0000E6E5F0E084E88083E6E5F0E08081882390
:100F1000DCF70F90CF91DF910895DF93CF930F927D
:100F2000CDB7DEB78983E3E2F0E089818083E6E52F
:100F3000F0E084E88083E6E5F0E080818823DCF758
:100F40000F90CF91DF910895DF93CF9300D0CDB76D
:100F5000DEB79A838983E981FA811082E6E5F0E0C1
:100F600084EC8083E6E5F0E080818823DCF7E3E22F
:100F7000F0E08081E981FA8180830F900F90CF911A
:100F8000DF910895DF93CF9300D0CDB7DEB79A837A
:100F90008983E6E5F0E084E88083E6E5F0E080819F
:100FA0008823DCF7E3E2F0E08081E981FA81808345
:100FB0000F900F90CF91DF910895DF93CF93CDB72E
:100FC000DEB7E6E5F0E084E98083CF91DF91089514
:100FD000DF93CF9300D00F92CDB7DEB78A836B83B8
:100FE00019820E9466078A810E948D078B810E9468
:100FF0008D070E9466078A8181600E948D07CE015D
:1010000001960E94C2070E94DD0789810F900F9010
:101010000F90CF91DF910895DF93CF9300D000D050
:101020000F92CDB7DEB78C836D831A8219821B8233
:101030000E9466078C810E948D078D810E948D071A
:101040000E9466078C8181600E948D07CE01039605
:101050000E94A4078B81882F90E0982F88279A837D
:101060008983CE0103960E94C2070E94DD078B810F
:10107000282F30E089819A81822B932B9A83898350
:1010800089810F900F900F900F900F90CF91DF916B
:101090000895DF93CF9300D00F92CDB7DEB7898349
:1010A0006A834B830E94660789810E948D078A812B
:1010B0000E948D078B810E948D070E94DD070F9093
:1010C0000F900F90CF91DF910895DF93CF9300D0D1
:1010D000CDB7DEB70E94EB0A84ED98E00E940C0BBE
:1010E0001A82198209C089819A810E9486088981A1
:1010F0009A8101969A83898389819A818A309105A0
:1011000090F30F900F90CF91DF910895DF93CF93DD
:1011100000D0CDB7DEB79A83898389819A81880F01
:10112000991F9C01220F331F220F331F820F931F21
:10113000FC01E754FD4F10821182128213828981D3
:101140009A81880F991F9C01220F331F220F331F92
:10115000820F931FFC01E354FD4F10821182128213
:10116000138289819A81880F991F9C01220F331F56
:10117000220F331F820F931FFC01EF53FD4F10828C
:1011800089819A81880F991F9C01220F331F220F9A
:10119000331F820F931FFC01EE53FD4F10820F90FF
:1011A0000F90CF91DF9108950F931F93DF93CF930B
:1011B00000D0CDB7DEB71A8219828CC089819A819E
:1011C000880F991F9C01220F331F220F331F820F9C
:1011D000931FFC01EE53FD4F8081813009F075C0F3
:1011E00009811A81C801880F991F9C01220F331FA2
:1011F000220F331F820F931FFC01E354FD4F8081A8
:101200009181A281B381AC01BD014F5F5F4F6F4FF0
:101210007F4FC801880F991F9C01220F331F220F97
:10122000331F820F931FFC01E354FD4F4083518312
:101230006283738389819A81880F991F9C01220F91
:10124000331F220F331F820F931FFC01E354FD4F06
:10125000408151816281738189819A81880F991FB0
:101260009C01220F331F220F331F820F931FFC019B
:10127000E754FD4F80819181A281B38148175907BE
:101280006A077B0711F589819A81880F991F9C0154
:10129000220F331F220F331F820F931FFC01EF53C6
:1012A000FD4F81E0808389819A81880F991F9C017D
:1012B000220F331F220F331F820F931FFC01E354B1
:1012C000FD4F108211821282138289819A810196C8
:1012D0009A83898389819A818A30910508F46ECF37
:1012E0000F900F90CF91DF911F910F910895DF9391
:1012F000CF9300D000D00F92CDB7DEB789834A8359
:101300005B836C837D838981882F90E0880F991F90
:101310009C01220F331F220F331F820F931FFC01EA
:10132000E754FD4F80819181A281B3810097A1058F
:10133000B10509F04AC08981882F90E0880F991F74
:101340009C01220F331F220F331F820F931FFC01BA
:10135000E754FD4F8A819B81AC81BD81808391835D
:10136000A283B3838981882F90E0880F991F9C0105
:10137000220F331F220F331F820F931FFC01E354F0
:10138000FD4F10821182128213828981882F90E092
:10139000880F991F9C01220F331F220F331F820FCA
:1013A000931FFC01EF53FD4F10828981882F90E03D
:1013B000880F991F9C01220F331F220F331F820FAA
:1013C000931FFC01EE53FD4F10820F900F900F9072
:1013D0000F900F90CF91DF910895DF93CF930F92ED
:1013E000CDB7DEB789838981882F90E0880F991F58
:1013F0009C01220F331F220F331F820F931FFC010A
:10140000E754FD4F80819181A281B3810097A105AE
:10141000B10589F08981882F90E0880F991F9C0180
:10142000220F331F220F331F820F931FFC01EE5335
:10143000FD4F81E080830F90CF91DF910895DF937E
:10144000CF930F92CDB7DEB789838981882F90E043
:10145000880F991F9C01220F331F220F331F820F09
:10146000931FFC01EE53FD4F10820F90CF91DF913F
:101470000895DF93CF930F92CDB7DEB7898389812B
:10148000882F90E0880F991F9C01220F331F220F95
:10149000331F820F931FFC01E354FD4F1082118212
:1014A000128213820F90CF91DF910895DF93CF9333
:1014B00000D000D00F92CDB7DEB789834A835B831B
:1014C0006C837D838981882F90E0880F991F9C0110
:1014D000220F331F220F331F820F931FFC01E7548B
:1014E000FD4F8A819B81AC81BD8180839183A283E2
:1014F000B3830F900F900F900F900F90CF91DF91CB
:101500000895DF93CF930F92CDB7DEB7898389819A
:10151000882F90E0880F991F9C01220F331F220F04
:10152000331F820F931FFC01EF53FD4F80810F90FB
:10153000CF91DF910895DF93CF9300D0CDB7DEB781
:101540008A8319828A81882F90E0880F991F9C01D5
:10155000220F331F220F331F820F931FFC01EF5303
:10156000FD4F8081882391F08A81882F90E0880F39
:10157000991F9C01220F331F220F331F820F931FCD
:10158000FC01EF53FD4F108281E0898389810F9028
:101590000F90CF91DF910895DF93CF930F92CDB746
:1015A000DEB789838981882F90E0880F991F9C017D
:1015B000220F331F220F331F820F931FFC01E354AE
:1015C000FD4F80819181A281B381BC01CD010F903B
:1015D000CF91DF910895DF93CF93CDB7DEB7E3E5E9
:1015E000F0E08BE08083E2E5F0E01082ECE5F0E0F3
:1015F0008DE78083A9E5B0E0E9E5F0E080818260D5
:101600008C93A8E5B0E0E8E5F0E0808182608C93FF
:101610007894CF91DF910895DF93CF9300D0CDB729
:10162000DEB79A83898389819A819093B8028093E7
:10163000B7020F900F90CF91DF9108951F920F92F4
:101640000FB60F9211242F933F934F935F936F9395
:101650007F938F939F93AF93BF93EF93FF93DF930A
:10166000CF93CDB7DEB7E091B702F091B8020995FC
:10167000CF91DF91FF91EF91BF91AF919F918F91AA
:101680007F916F915F914F913F912F910F900FBE7E
:101690000F901F901895DF93CF93CDB7DEB76D975E
:1016A0000FB6F894DEBF0FBECDBF1D8E0E9454074B
:1016B0000E94FF0C882309F404C10E941F0E8D8F25
:1016C0000E94E61980E690E00E9499198D8D882F7E
:1016D00090E00E94301D80E090E0A8ECB3E4898F98
:1016E0009A8FAB8FBC8F698D7A8D8B8D9C8D20E00E
:1016F00030E04AEF54E40E941F02DC01CB018D8BE5
:101700009E8BAF8BB88F6D897E898F89988D20E0F5
:1017100030E040E85FE30E94250488232CF481E058
:1017200090E09C8B8B8B3FC06D897E898F89988DD3
:1017300020E03FEF4FE757E40E94C50318164CF531
:10174000698D7A8D8B8D9C8D20E030E040E251E4F4
:101750000E941F02DC01CB01BC01CD010E944900A7
:10176000DC01CB019C8B8B8B0FC088EC90E09A8BBB
:10177000898B89899A890197F1F79A8B898B8B8953
:101780009C8901979C8B8B8B8B899C89009769F72F
:1017900014C06D897E898F89988D0E944900DC0173
:1017A000CB019C8B8B8B8B899C89988B8F878F85AA
:1017B00098890197F1F7988B8F870E946A0C0E9495
:1017C0001F0E8D8F0E94E61980E690E00E94991905
:1017D0008D8D882F90E00E94301D80E090E0A8EC75
:1017E000B3E48B879C87AD87BE876B857C858D85B1
:1017F0009E8520E030E04AEF54E40E941F02DC01A5
:10180000CB018F839887A987BA876F81788589856F
:101810009A8520E030E040E85FE30E9425048823B9
:101820002CF481E090E09E838D833FC06F817885AA
:1018300089859A8520E03FEF4FE757E40E94C50372
:1018400018164CF56B857C858D859E8520E030E0F3
:1018500040E251E40E941F02DC01CB01BC01CD013A
:101860000E944900DC01CB019E838D830FC088EC70
:1018700090E09C838B838B819C810197F1F79C8303
:101880008B838D819E8101979E838D838D819E8127
:10189000009769F714C06F81788589859A850E94C1
:1018A0004900DC01CB019E838D838D819E819A83CB
:1018B000898389819A810197F1F79A8389830E94AC
:1018C0003F0E6D960FB6F894DEBF0FBECDBFCF9121
:1018D000DF910895DF93CF93CDB7DEB72E970FB684
:1018E000F894DEBF0FBECDBF0E94660786EB0E9454
:1018F0008D0784EF0E948D070E94DD070E94E61984
:1019000087E690E00E94991980E090E0AAE7B4E4AD
:101910008B879C87AD87BE876B857C858D859E85F3
:1019200020E030E04AEF54E40E941F02DC01CB01CA
:101930008F839887A987BA876F81788589859A85EB
:1019400020E030E040E85FE30E94250488232CF487
:1019500081E090E09E838D833FC06F81788589858B
:101960009A8520E03FEF4FE757E40E94C503181621
:101970004CF56B857C858D859E8520E030E040E2CE
:1019800051E40E941F02DC01CB01BC01CD010E9489
:101990004900DC01CB019E838D830FC088EC90E071
:1019A0009C838B838B819C810197F1F79C838B8334
:1019B0008D819E8101979E838D838D819E8100976D
:1019C00069F714C06F81788589859A850E944900DE
:1019D000DC01CB019E838D838D819E819A838983D7
:1019E00089819A810197F1F79A8389832E960FB6A0
:1019F000F894DEBF0FBECDBFCF91DF910895DF9386
:101A0000CF93CDB7DEB76E970FB6F894DEBF0FBE9B
:101A1000CDBF1D8E0E94660786EB0E948D0780E277
:101A20000E948D070E94DD070E94660787EB0E94D7
:101A30008D07CE014D960E94C2070E94DD0780E00F
:101A400090E0A8ECB2E4898F9A8FAB8FBC8F698D40
:101A50007A8D8B8D9C8D20E030E04AEF54E40E941B
:101A60001F02DC01CB018D8B9E8BAF8BB88F6D89F4
:101A70007E898F89988D20E030E040E85FE30E9406
:101A8000250488232CF481E090E09C8B8B8B3FC055
:101A90006D897E898F89988D20E03FEF4FE757E46D
:101AA0000E94C50318164CF5698D7A8D8B8D9C8D1F
:101AB00020E030E040E251E40E941F02DC01CB0153
:101AC000BC01CD010E944900DC01CB019C8B8B8BBA
:101AD0000FC088EC90E09A8B898B89899A8901974D
:101AE000F1F79A8B898B8B899C8901979C8B8B8BC7
:101AF0008B899C89009769F714C06D897E898F89CD
:101B0000988D0E944900DC01CB019C8B8B8B8B89CB
:101B10009C89988B8F878F8598890197F1F7988B8F
:101B20008F870E94E61982E790E00E9499198D8DB7
:101B3000882F90E00E94301D80E090E0AAE7B4E496
:101B40008B879C87AD87BE876B857C858D859E85C1
:101B500020E030E04AEF54E40E941F02DC01CB0198
:101B60008F839887A987BA876F81788589859A85B9
:101B700020E030E040E85FE30E94250488232CF455
:101B800081E090E09E838D833FC06F817885898559
:101B90009A8520E03FEF4FE757E40E94C5031816EF
:101BA0004CF56B857C858D859E8520E030E040E29C
:101BB00051E40E941F02DC01CB01BC01CD010E9457
:101BC0004900DC01CB019E838D830FC088EC90E03F
:101BD0009C838B838B819C810197F1F79C838B8302
:101BE0008D819E8101979E838D838D819E8100973B
:101BF00069F714C06F81788589859A850E944900AC
:101C0000DC01CB019E838D838D819E819A838983A4
:101C100089819A810197F1F79A8389838D8D813823
:101C200019F481E08E8F01C01E8E8E8D6E960FB6D8
:101C3000F894DEBF0FBECDBFCF91DF910895DF9343
:101C4000CF930F92CDB7DEB719820E94660786EB5D
:101C50000E948D0780E00E948D070E94DD070E9490
:101C6000660787EB0E948D07CE0101960E94C2078E
:101C70000E94DD0789810F90CF91DF910895DF9356
:101C8000CF93CDB7DEB70E94660786EB0E948D0723
:101C900081E00E948D0780E20E948D070E94DD078F
:101CA000CF91DF910895DF93CF93CDB7DEB72A9719
:101CB0000FB6F894DEBF0FBECDBF9A8789871C820E
:101CC0001E821D8218861F820E94660786EB0E9474
:101CD0008D0782E00E948D070E94DD070E94660743
:101CE00087EB0E948D07CE0105960E94A4078D8187
:101CF0009E81982F88279E838D83CE0105960E9412
:101D0000A407CE0107960E94A4078F819885982F7B
:101D1000882798878F83CE0107960E94A407CE015B
:101D200004960E94A407CE0101960E94A407CE014A
:101D300002960E94A407CE0103960E94C2070E9449
:101D4000DD078D819E81E985FA85918380838F816E
:101D50009885E985FA85938382832A960FB6F8944D
:101D6000DEBF0FBECDBFCF91DF9108950F931F93BC
:101D7000DF93CF93CDB7DEB7C455D0400FB6F894FC
:101D8000DEBF0FBECDBFA4E3B0E0E4E3F0E08081AE
:101D900080688C93A4E3B0E0E4E3F0E080818064A9
:101DA0008C93A7E3B0E0E7E3F0E08081806F8C9351
:101DB000A8E3B0E0E8E3F0E080818C9380E30E9448
:101DC000971BFE01EF5AFF4F80E090E0A0E2B1E4E4
:101DD00080839183A283B3838E01035B1F4FFE0137
:101DE000EF5AFF4F608171818281938120E030E062
:101DF0004AEF54E40E941F02DC01CB01F80180830A
:101E00009183A283B383FE01E35BFF4F6081718105
:101E10008281938120E030E040E85FE30E94250466
:101E2000882344F4FE01E55BFF4F81E090E091835D
:101E3000808364C0FE01E35BFF4F6081718182811A
:101E4000938120E03FEF4FE757E40E94C503181647
:101E50000CF043C0FE01EF5AFF4F60817181828117
:101E6000938120E030E040E251E40E941F02DC0157
:101E7000CB018E01055B1F4FBC01CD010E944900C3
:101E8000DC01CB01F801918380831FC0FE01E75B79
:101E9000FF4F88EC90E091838083FE01E75BFF4F6A
:101EA000808191810197F1F7FE01E75BFF4F9183FC
:101EB0008083DE01A55BBF4FFE01E55BFF4F8081A4
:101EC0009181019711969C938E93FE01E55BFF4FE4
:101ED000808191810097D1F627C08E01055B1F4F4D
:101EE000FE01E35BFF4F60817181828193810E94DB
:101EF0004900DC01CB01F80191838083DE01A95BFD
:101F0000BF4FFE01E55BFF4F808191818D939C93D4
:101F1000FE01E95BFF4F808191810197F1F7FE019E
:101F2000E95BFF4F9183808380E30E94971BFE0152
:101F3000ED5BFF4F80E090E0A0E2B1E4808391830D
:101F4000A283B3838E01015C1F4FFE01ED5BFF4F47
:101F5000608171818281938120E030E04AEF54E416
:101F60000E941F02DC01CB01F80180839183A283D0
:101F7000B383FE01FF96608171818281938120E0AD
:101F800030E040E85FE30E94250488232CF481E0E0
:101F900090E09EAF8DAF46C0FE01FF9660817181DB
:101FA0008281938120E03FEF4FE757E40E94C50311
:101FB000181664F5FE01ED5BFF4F6081718182812F
:101FC000938120E030E040E251E40E941F02DC01F6
:101FD000CB01BC01CD010E944900DC01CB019EAFC9
:101FE0008DAF0FC088EC90E09CAF8BAF8BAD9CADFC
:101FF0000197F1F79CAF8BAF8DAD9EAD01979EAF72
:102000008DAF8DAD9EAD009769F716C0FE01FF96AE
:1020100060817181828193810E944900DC01CB0142
:102020009EAF8DAF8DAD9EAD9AAF89AF89AD9AADA4
:102030000197F1F79AAF89AF80E30E94971B80E088
:1020400090E0A0E2B1E48DAB9EABAFABB8AF6DA9B1
:102050007EA98FA998AD20E030E04AEF54E40E94B9
:102060001F02DC01CB0189AB9AABABABBCAB69A95E
:102070007AA98BA99CA920E030E040E85FE30E94A8
:10208000250488232CF481E090E098AB8FA73FC013
:1020900069A97AA98BA99CA920E03FEF4FE757E4F3
:1020A0000E94C50318164CF56DA97EA98FA998AD9D
:1020B00020E030E040E251E40E941F02DC01CB014D
:1020C000BC01CD010E944900DC01CB0198AB8FA778
:1020D0000FC088EC90E09EA78DA78DA59EA50197C7
:1020E000F1F79EA78DA78FA598A9019798AB8FA709
:1020F0008FA598A9009769F714C069A97AA98BA937
:102100009CA90E944900DC01CB0198AB8FA78FA549
:1021100098A99CA78BA78BA59CA50197F1F79CA7D5
:102120008BA780E20E94971B80E090E0A0E2B1E4E0
:102130008FA398A7A9A7BAA76FA178A589A59AA5E3
:1021400020E030E04AEF54E40E941F02DC01CB01A2
:102150008BA39CA3ADA3BEA36BA17CA18DA19EA1CB
:1021600020E030E040E85FE30E94250488232CF45F
:1021700081E090E09AA389A33FC06BA17CA18DA1CF
:102180009EA120E03FEF4FE757E40E94C5031816D9
:102190004CF56FA178A589A59AA520E030E040E232
:1021A00051E40E941F02DC01CB01BC01CD010E9461
:1021B0004900DC01CB019AA389A30FC088EC90E011
:1021C00098A38F8F8F8D98A10197F1F798A38F8F88
:1021D00089A19AA101979AA389A389A19AA100979D
:1021E00069F714C06BA17CA18DA19EA10E9449003A
:1021F000DC01CB019AA389A389A19AA19E8F8D8F1F
:102200008D8D9E8D0197F1F79E8F8D8F80E090E0F0
:10221000A0E2B1E4898F9A8FAB8FBC8F698D7A8DE4
:102220008B8D9C8D20E030E04AEF54E40E941F0229
:10223000DC01CB018D8B9E8BAF8BB88F6D897E8936
:102240008F89988D20E030E040E85FE30E9425040C
:1022500088232CF481E090E09C8B8B8B3FC06D89B0
:102260007E898F89988D20E03FEF4FE757E40E94E9
:10227000C50318164CF5698D7A8D8B8D9C8D20E0E9
:1022800030E040E251E40E941F02DC01CB01BC01BE
:10229000CD010E944900DC01CB019C8B8B8B0FC0D0
:1022A00088EC90E09A8B898B89899A890197F1F75C
:1022B0009A8B898B8B899C8901979C8B8B8B8B89C3
:1022C0009C89009769F714C06D897E898F89988DE4
:1022D0000E944900DC01CB019C8B8B8B8B899C89F4
:1022E000988B8F878F8598890197F1F7988B8F87C7
:1022F00088E20E9404128CE00E94041286E00E9490
:10230000041280E80E94041280E090E0A0EAB1E4A8
:102310008B879C87AD87BE876B857C858D859E85E9
:1023200020E030E04AEF54E40E941F02DC01CB01C0
:102330008F839887A987BA876F81788589859A85E1
:1023400020E030E040E85FE30E94250488232CF47D
:1023500081E090E09E838D833FC06F817885898581
:102360009A8520E03FEF4FE757E40E94C503181617
:102370004CF56B857C858D859E8520E030E040E2C4
:1023800051E40E941F02DC01CB01BC01CD010E947F
:102390004900DC01CB019E838D830FC088EC90E067
:1023A0009C838B838B819C810197F1F79C838B832A
:1023B0008D819E8101979E838D838D819E81009763
:1023C00069F714C06F81788589859A850E944900D4
:1023D000DC01CB019E838D838D819E819A838983CD
:1023E00089819A810197F1F79A8389830E94E6197E
:1023F000CC5ADF4F0FB6F894DEBF0FBECDBFCF91E2
:10240000DF911F910F9108950F931F93DF93CF9347
:10241000CDB7DEB7C954D0400FB6F894DEBF0FBEBB
:10242000CDBFFE01E75BFF4F8083A5E3B0E0E5E3AE
:10243000F0E080818F7B8C93A8E3B0E0E8E3F0E0EC
:1024400080818F778C93A8E3B0E0E8E3F0E08081AF
:102450008F7B8C93A8E3B0E0E8E3F0E080818F7D90
:102460008C93A8E3B0E0E8E3F0E080818F7E8C936A
:10247000FE01E75BFF4F808188233CF4A8E3B0E0D6
:10248000E8E3F0E0808180688C93FE01E75BFF4F1A
:102490008081882F90E080749070009739F0A8E3D5
:1024A000B0E0E8E3F0E0808180648C93FE01E75BBC
:1024B000FF4F8081882F90E080729070009739F0F4
:1024C000A8E3B0E0E8E3F0E0808180628C93FE0155
:1024D000E75BFF4F8081882F90E0807190700097BC
:1024E00039F0A8E3B0E0E8E3F0E0808180618C930C
:1024F000A5E3B0E0E5E3F0E0808180688C93FE0125
:10250000EB5BFF4F80E090E0A0E0B0E4808391833C
:10251000A283B3838E010F5B1F4FFE01EB5BFF4F66
:1025200060817181828193812BEA3AEA4AE250E428
:102530000E941F02DC01CB01F80180839183A283FA
:10254000B383FE01EF5BFF4F6081718182819381D4
:1025500020E030E040E85FE30E942504882334F463
:1025600081E0FE01E05CFF4F80839DC0FE01EF5BD8
:10257000FF4F608171818281938120E030E04FE7DD
:1025800053E40E94C50318160CF07EC0FE01EB5BFD
:10259000FF4F608171818281938120E030E04AE7C2
:1025A00054E40E941903DC01CB018CAF9DAFAEAFA8
:1025B000BFAF6CAD7DAD8EAD9FAD20E030E04AEF9A
:1025C00054E40E941F02DC01CB0188AF99AFAAAF8F
:1025D000BBAF68AD79AD8AAD9BAD20E030E040E89F
:1025E0005FE30E94250488232CF481E090E09FABF8
:1025F0008EAB3FC068AD79AD8AAD9BAD20E03FEFBB
:102600004FE757E40E94C50318164CF56CAD7DAD3D
:102610008EAD9FAD20E030E040E251E40E941F0209
:10262000DC01CB01BC01CD010E944900DC01CB01E2
:102630009FAB8EAB0FC088EC90E09DAB8CAB8CA9B0
:102640009DA90197F1F79DAB8CAB8EA99FA901972E
:102650009FAB8EAB8EA99FA9009769F72DC068AD7F
:1026600079AD8AAD9BAD0E944900DC01CB019FABE7
:102670008EAB8EA99FA99BAB8AAB8AA99BA9019718
:10268000F1F79BAB8AAB18C0FE01EF5BFF4F608197
:102690007181828193810E944900DC01CB01FE019E
:1026A000E05CFF4F8083FE01E05CFF4F808189ABDF
:1026B00089A98A95F1F789ABA5E3B0E0E5E3F0E0FD
:1026C00080818F778C93A8E3B0E0E8E3F0E080812D
:1026D0008F778C93A8E3B0E0E8E3F0E080818F7B14
:1026E0008C93A8E3B0E0E8E3F0E080818F7D8C93E9
:1026F000A8E3B0E0E8E3F0E080818F7E8C93FE01F8
:10270000E75BFF4F8081882F90E088709070009782
:1027100039F0A8E3B0E0E8E3F0E0808180688C93D2
:10272000FE01E75BFF4F8081882F90E084709070FE
:10273000009739F0A8E3B0E0E8E3F0E0808180643E
:102740008C93FE01E75BFF4F8081882F90E08270C1
:102750009070009739F0A8E3B0E0E8E3F0E0808102
:1027600080628C93FE01E75BFF4F8081882F90E0B1
:1027700081709070882339F0A8E3B0E0E8E3F0E0DE
:10278000808180618C93A5E3B0E0E5E3F0E0808197
:1027900080688C9380E090E0A0E0B0E48DA79EA7D5
:1027A000AFA7B8AB6DA57EA58FA598A92BEA3AEA8D
:1027B0004AE250E40E941F02DC01CB0189A79AA7DC
:1027C000ABA7BCA769A57AA58BA59CA520E030E0A6
:1027D00040E85FE30E94250488231CF481E088A779
:1027E00091C069A57AA58BA59CA520E030E04FE7B4
:1027F00053E40E94C50318160CF07BC06DA57EA59E
:102800008FA598A920E030E04AE754E40E9419031C
:10281000DC01CB018CA39DA3AEA3BFA36CA17DA1C2
:102820008EA19FA120E030E04AEF54E40E941F02F5
:10283000DC01CB0188A399A3AAA3BBA368A179A1BA
:102840008AA19BA120E030E040E85FE30E942504DC
:1028500088232CF481E090E09F8F8E8F3FC068A189
:1028600079A18AA19BA120E03FEF4FE757E40E94A6
:10287000C50318164CF56CA17DA18EA19FA120E087
:1028800030E040E251E40E941F02DC01CB01BC01B8
:10289000CD010E944900DC01CB019F8F8E8F0FC0BC
:1028A00088EC90E09D8F8C8F8C8D9D8D0197F1F73A
:1028B0009D8F8C8F8E8D9F8D01979F8F8E8F8E8D8C
:1028C0009F8D009769F724C068A179A18AA19BA177
:1028D0000E944900DC01CB019F8F8E8F8E8D9F8DD2
:1028E0009B8F8A8F8A8D9B8D0197F1F79B8F8A8FA3
:1028F0000FC069A57AA58BA59CA50E944900DC01A3
:10290000CB0188A788A5898F898D8A95F1F7898F52
:10291000A5E3B0E0E5E3F0E080818F778C9380E081
:1029200090E0A6E9B3E48D8B9E8BAF8BB88F6D8959
:102930007E898F89988D2BEA3AEA4AE250E40E9418
:102940001F02DC01CB01898B9A8BAB8BBC8B698915
:102950007A898B899C8920E030E040E85FE30E941F
:10296000250488231CF481E0888B91C069897A89C9
:102970008B899C8920E030E04FE753E40E94C50337
:1029800018160CF07BC06D897E898F89988D20E0A8
:1029900030E04AE754E40E941903DC01CB018C8744
:1029A0009D87AE87BF876C857D858E859F8520E05E
:1029B00030E04AEF54E40E941F02DC01CB0188871B
:1029C0009987AA87BB87688579858A859B8520E05A
:1029D00030E040E85FE30E94250488232CF481E086
:1029E00090E09F838E833FC0688579858A859B852B
:1029F00020E03FEF4FE757E40E94C50318164CF55F
:102A00006C857D858E859F8520E030E040E251E435
:102A10000E941F02DC01CB01BC01CD010E944900D4
:102A2000DC01CB019F838E830FC088EC90E09D83F7
:102A30008C838C819D810197F1F79D838C838E819E
:102A40009F8101979F838E838E819F81009769F775
:102A500024C0688579858A859B850E944900DC01B0
:102A6000CB019F838E838E819F819B838A838A8102
:102A70009B810197F1F79B838A830FC069897A89CB
:102A80008B899C890E944900DC01CB01888B888955
:102A9000898389818A95F1F78983C75BDF4F0FB6F8
:102AA000F894DEBF0FBECDBFCF91DF911F910F9184
:102AB00008950F931F93DF93CF93CDB7DEB7C9541B
:102AC000D0400FB6F894DEBF0FBECDBFFE01E75B6E
:102AD000FF4F8083A5E3B0E0E5E3F0E08081806410
:102AE0008C93A8E3B0E0E8E3F0E080818F778C93EB
:102AF000A8E3B0E0E8E3F0E080818F7B8C93A8E36B
:102B0000B0E0E8E3F0E080818F7D8C93A8E3B0E053
:102B1000E8E3F0E080818F7E8C93FE01E75BFF4F5E
:102B2000808188233CF4A8E3B0E0E8E3F0E0808112
:102B300080688C93FE01E75BFF4F8081882F90E0D7
:102B400080749070009739F0A8E3B0E0E8E3F0E01B
:102B5000808180648C93FE01E75BFF4F8081882F2A
:102B600090E080729070009739F0A8E3B0E0E8E35D
:102B7000F0E0808180628C93FE01E75BFF4F8081F3
:102B8000882F90E080719070009739F0A8E3B0E052
:102B9000E8E3F0E0808180618C93A5E3B0E0E5E3B9
:102BA000F0E0808180688C93FE01EB5BFF4F80E05A
:102BB00090E0A0E0B0E480839183A283B3838E0190
:102BC0000F5B1F4FFE01EB5BFF4F608171818281C4
:102BD00093812BEA3AEA4AE250E40E941F02DC01A8
:102BE000CB01F80180839183A283B383FE01EF5B65
:102BF000FF4F608171818281938120E030E040E865
:102C00005FE30E942504882334F481E0FE01E05C48
:102C1000FF4F80839DC0FE01EF5BFF4F608171819C
:102C20008281938120E030E04FE753E40E94C503A6
:102C300018160CF07EC0FE01EB5BFF4F60817181C6
:102C40008281938120E030E04AE754E40E94190336
:102C5000DC01CB018CAF9DAFAEAFBFAF6CAD7DAD36
:102C60008EAD9FAD20E030E04AEF54E40E941F0299
:102C7000DC01CB0188AF99AFAAAFBBAF68AD79AD2E
:102C80008AAD9BAD20E030E040E85FE30E94250480
:102C900088232CF481E090E09FAB8EAB3FC068AD01
:102CA00079AD8AAD9BAD20E03FEF4FE757E40E943E
:102CB000C50318164CF56CAD7DAD8EAD9FAD20E013
:102CC00030E040E251E40E941F02DC01CB01BC0174
:102CD000CD010E944900DC01CB019FAB8EAB0FC040
:102CE00088EC90E09DAB8CAB8CA99DA90197F1F786
:102CF0009DAB8CAB8EA99FA901979FAB8EAB8EA984
:102D00009FA9009769F72DC068AD79AD8AAD9BADDD
:102D10000E944900DC01CB019FAB8EAB8EA99FA91D
:102D20009BAB8AAB8AA99BA90197F1F79BAB8AABB6
:102D300018C0FE01EF5BFF4F60817181828193813A
:102D40000E944900DC01CB01FE01E05CFF4F808363
:102D5000FE01E05CFF4F808189AB89A98A95F1F77C
:102D600089ABA5E3B0E0E5E3F0E080818F778C9359
:102D7000A8E3B0E0E8E3F0E080818F778C93A8E3EC
:102D8000B0E0E8E3F0E080818F7B8C93A8E3B0E0D3
:102D9000E8E3F0E080818F7D8C93A8E3B0E0E8E386
:102DA000F0E080818F7E8C93FE01E75BFF4F808196
:102DB000882F90E088709070009739F0A8E3B0E019
:102DC000E8E3F0E0808180688C93FE01E75BFF4FD1
:102DD0008081882F90E084709070009739F0A8E38C
:102DE000B0E0E8E3F0E0808180648C93FE01E75B73
:102DF000FF4F8081882F90E082709070009739F0AB
:102E0000A8E3B0E0E8E3F0E0808180628C93FE010B
:102E1000E75BFF4F8081882F90E08170907088235E
:102E200039F0A8E3B0E0E8E3F0E0808180618C93C2
:102E3000A5E3B0E0E5E3F0E0808180688C9380E07A
:102E400090E0A0E0B0E48DA79EA7AFA7B8AB6DA5BA
:102E50007EA58FA598A92BEA3AEA4AE250E40E949F
:102E60001F02DC01CB0189A79AA7ABA7BCA769A564
:102E70007AA58BA59CA520E030E040E85FE30E94A6
:102E8000250488231CF481E088A791C069A57AA550
:102E90008BA59CA520E030E04FE753E40E94C503DA
:102EA00018160CF07BC06DA57EA58FA598A920E013
:102EB00030E04AE754E40E941903DC01CB018CA303
:102EC0009DA3AEA3BFA36CA17DA18EA19FA120E075
:102ED00030E04AEF54E40E941F02DC01CB0188A3DA
:102EE00099A3AAA3BBA368A179A18AA19BA120E071
:102EF00030E040E85FE30E94250488232CF481E061
:102F000090E09F8F8E8F3FC068A179A18AA19BA17D
:102F100020E03FEF4FE757E40E94C50318164CF539
:102F20006CA17DA18EA19FA120E030E040E251E4A0
:102F30000E941F02DC01CB01BC01CD010E944900AF
:102F4000DC01CB019F8F8E8F0FC088EC90E09D8FAE
:102F50008C8F8C8D9D8D0197F1F79D8F8C8F8E8D31
:102F60009F8D01979F8F8E8F8E8D9F8D009769F714
:102F700024C068A179A18AA19BA10E944900DC011B
:102F8000CB019F8F8E8F8E8D9F8D9B8F8A8F8A8D89
:102F90009B8D0197F1F79B8F8A8F0FC069A57AA54A
:102FA0008BA59CA50E944900DC01CB0188A788A5C0
:102FB000898F898D8A95F1F7898FA5E3B0E0E5E3E4
:102FC000F0E080818F778C9380E090E0A6E9B3E415
:102FD0008D8B9E8BAF8BB88F6D897E898F89988DF5
:102FE0002BEA3AEA4AE250E40E941F02DC01CB01DC
:102FF000898B9A8BAB8BBC8B69897A898B899C89ED
:1030000020E030E040E85FE30E94250488231CF4C0
:1030100081E0888B91C069897A898B899C8920E0BD
:1030200030E04FE753E40E94C50318160CF07BC054
:103030006D897E898F89988D20E030E04AE754E4DD
:103040000E941903DC01CB018C879D87AE87BF8767
:103050006C857D858E859F8520E030E04AEF54E4C5
:103060000E941F02DC01CB0188879987AA87BB8752
:10307000688579858A859B8520E030E040E85FE3BC
:103080000E94250488232CF481E090E09F838E83A6
:103090003FC0688579858A859B8520E03FEF4FE7B3
:1030A00057E40E94C50318164CF56C857D858E8506
:1030B0009F8520E030E040E251E40E941F02DC01E5
:1030C000CB01BC01CD010E944900DC01CB019F83F3
:1030D0008E830FC088EC90E09D838C838C819D81D2
:1030E0000197F1F79D838C838E819F8101979F8348
:1030F0008E838E819F81009769F724C068857985CA
:103100008A859B850E944900DC01CB019F838E83C9
:103110008E819F819B838A838A819B810197F1F7AE
:103120009B838A830FC069897A898B899C890E94D5
:103130004900DC01CB01888B8889898389818A9544
:10314000F1F78983C75BDF4F0FB6F894DEBF0FBE80
:10315000CDBFCF91DF911F910F910895DF93CF9352
:10316000CDB7DEB764970FB6F894DEBF0FBECDBF04
:103170008B8B6C8B80E88F8780EC888B84E9898BC4
:1031800084ED8A8B8B89882F90E09C012150304000
:10319000CE010F96FC01E20FF31F90818C89890FFD
:1031A00081500E94041280E090E0A0EAB1E48B8795
:1031B0009C87AD87BE876B857C858D859E8520E04D
:1031C00030E04AEF54E40E941F02DC01CB018F8300
:1031D0009887A987BA876F81788589859A8520E045
:1031E00030E040E85FE30E94250488232CF481E06E
:1031F00090E09E838D833FC06F81788589859A8515
:1032000020E03FEF4FE757E40E94C50318164CF546
:103210006B857C858D859E8520E030E040E251E421
:103220000E941F02DC01CB01BC01CD010E944900BC
:10323000DC01CB019E838D830FC088EC90E09C83E2
:103240008B838B819C810197F1F79C838B838D818C
:103250009E8101979E838D838D819E81009769F762
:1032600014C06F81788589859A850E944900DC01A8
:10327000CB019E838D838D819E819A8389838981F1
:103280009A810197F1F79A83898364960FB6F8942F
:10329000DEBF0FBECDBFCF91DF910895DF93CF93F7
:1032A000CDB7DEB72A970FB6F894DEBF0FBECDBFFD
:1032B000998788876A87198286E0FE013296DF0146
:1032C000982F1D929A95E9F7888599859E012E5F22
:1032D0003F4FB9014AE050E00E945427198215C0BF
:1032E0008981982F9F5F8A85692F0E94AE188981F6
:1032F000282F30E0CE010296FC01E20FF31F8081FF
:103300000E94591589818F5F89838981282F30E038
:10331000CE010296FC01E20FF31F8081882301F7A2
:103320002A960FB6F894DEBF0FBECDBFCF91DF91C6
:103330000895DF93CF9300D00F92CDB7DEB79B8374
:103340008A8319820EC08981282F30E08A819B816F
:10335000FC01E20FF31F80810E94591589818F5F64
:1033600089838981282F30E08A819B81FC01E20FCB
:10337000F31F8081882339F70F900F900F90CF9122
:10338000DF910895DF93CF9300D000D0CDB7DEB7A3
:103390009B838A836C8319820EC08981282F30E039
:1033A0008A819B81FC01E20FF31F80810E945915E5
:1033B00089818F5F898399818C81981770F30F9031
:1033C0000F900F900F90CF91DF910895DF93CF93DF
:1033D000CDB7DEB7A6970FB6F894DEBF0FBECDBF50
:1033E00081E00E94041280E090E0A0E0B0E48BA3B2
:1033F0009CA3ADA3BEA36BA17CA18DA19EA12BEA32
:103400003AEA4AE250E40E941F02DC01CB018F8FAE
:1034100098A3A9A3BAA36F8D78A189A19AA120E04E
:1034200030E040E85FE30E94250488231CF481E03B
:103430008E8F91C06F8D78A189A19AA120E030E094
:103440004FE753E40E94C50318160CF07BC06BA134
:103450007CA18DA19EA120E030E04AE754E40E94C7
:103460001903DC01CB018A8F9B8FAC8FBD8F6A8DD6
:103470007B8D8C8D9D8D20E030E04AEF54E40E94DE
:103480001F02DC01CB018E8B9F8BA88FB98F6E89B9
:103490007F89888D998D20E030E040E85FE30E94CD
:1034A000250488232CF481E090E09D8B8C8B3FC019
:1034B0006E897F89888D998D20E03FEF4FE757E433
:1034C0000E94C50318164CF56A8D7B8D8C8D9D8DE1
:1034D00020E030E040E251E40E941F02DC01CB0119
:1034E000BC01CD010E944900DC01CB019D8B8C8B7E
:1034F0000FC088EC90E09B8B8A8B8A899B8901970F
:10350000F1F79B8B8A8B8C899D8901979D8B8C8B86
:103510008C899D89009769F724C06E897F89888D81
:10352000998D0E944900DC01CB019D8B8C8B8C898D
:103530009D89998B888B888999890197F1F7998B57
:10354000888B0FC06F8D78A189A19AA10E94490034
:10355000DC01CB018E8F8E8D8F878F858A95F1F759
:103560008F8780E090E0A0E2B1E48B879C87AD87F5
:10357000BE876B857C858D859E8520E030E04AEF97
:1035800054E40E941F02DC01CB018F839887A98736
:10359000BA876F81788589859A8520E030E040E898
:1035A0005FE30E94250488232CF481E090E09E8351
:1035B0008D833FC06F81788589859A8520E03FEFB4
:1035C0004FE757E40E94C50318164CF56B857C85C0
:1035D0008D859E8520E030E040E251E40E941F028C
:1035E000DC01CB01BC01CD010E944900DC01CB0113
:1035F0009E838D830FC088EC90E09C838B838B81AE
:103600009C810197F1F79C838B838D819E8101972B
:103610009E838D838D819E81009769F714C06F8191
:10362000788589859A850E944900DC01CB019E83BB
:103630008D838D819E819A83898389819A81019767
:10364000F1F79A838983A6960FB6F894DEBF0FBE72
:10365000CDBFCF91DF910895DF93CF9300D000D0FD
:10366000CDB7DEB78A837C836B838A818830F8F498
:103670008A81882F90E00896880F991F880F991FDC
:10368000880F991F0E94041219820EC08981282F69
:1036900030E08B819C81FC01E20FF31F80810E944E
:1036A000591589818F5F89838981883078F30F90DC
:1036B0000F900F900F90CF91DF910895DF93CF93EC
:1036C00000D000D0CDB7DEB79C838B831A821982DD
:1036D000EB81FC818081807F8983898182958F70D5
:1036E000898389818A3020F08981895C898303C03C
:1036F0008981805D898389810E945915EB81FC81D4
:1037000080818F708A838A818A3020F08A81895CE7
:103710008A8303C08A81805D8A838A810E945915C9
:103720000F900F900F900F90CF91DF910895DF933E
:10373000CF93CDB7DEB76D970FB6F894DEBF0FBE4F
:10374000CDBF8D8FE8E3F0E08D8D8083A5E3B0E001
:10375000E5E3F0E080818F7B8C93A5E3B0E0E5E3C7
:10376000F0E0808180688C9380E090E0A0E8BFE387
:10377000898F9A8FAB8FBC8F698D7A8D8B8D9C8D45
:1037800020E030E04AEF54E40E941F02DC01CB014C
:103790008D8B9E8BAF8BB88F6D897E898F89988D2D
:1037A00020E030E040E85FE30E94250488232CF409
:1037B00081E090E09C8B8B8B3FC06D897E898F89E7
:1037C000988D20E03FEF4FE757E40E94C50318169D
:1037D0004CF5698D7A8D8B8D9C8D20E030E040E238
:1037E00051E40E941F02DC01CB01BC01CD010E940B
:1037F0004900DC01CB019C8B8B8B0FC088EC90E0E7
:103800009A8B898B89899A890197F1F79A8B898B91
:103810008B899C8901979C8B8B8B8B899C890097CA
:1038200069F714C06D897E898F89988D0E9449003F
:10383000DC01CB019C8B8B8B8B899C89988B8F8730
:103840008F8598890197F1F7988B8F87A5E3B0E072
:10385000E5E3F0E080818F778C9380E090E0A0E852
:10386000BFE38B879C87AD87BE876B857C858D8505
:103870009E8520E030E04AEF54E40E941F02DC0104
:10388000CB018F839887A987BA876F8178858985CF
:103890009A8520E030E040E85FE30E942504882319
:1038A0002CF481E090E09E838D833FC06F8178850A
:1038B00089859A8520E03FEF4FE757E40E94C503D2
:1038C00018164CF56B857C858D859E8520E030E053
:1038D00040E251E40E941F02DC01CB01BC01CD019A
:1038E0000E944900DC01CB019E838D830FC088ECD0
:1038F00090E09C838B838B819C810197F1F79C8363
:103900008B838D819E8101979E838D838D819E8186
:10391000009769F714C06F81788589859A850E9420
:103920004900DC01CB019E838D838D819E819A832A
:10393000898389819A810197F1F79A8389836D96AA
:103940000FB6F894DEBF0FBECDBFCF91DF910895C3
:10395000DF93CF93CDB7DEB72E970FB6F894DEBFC7
:103960000FBECDBF80EC0E94041280E090E0A0EA80
:10397000B1E48B879C87AD87BE876B857C858D8501
:103980009E8520E030E04AEF54E40E941F02DC01F3
:10399000CB018F839887A987BA876F8178858985BE
:1039A0009A8520E030E040E85FE30E942504882308
:1039B0002CF481E090E09E838D833FC06F817885F9
:1039C00089859A8520E03FEF4FE757E40E94C503C1
:1039D00018164CF56B857C858D859E8520E030E042
:1039E00040E251E40E941F02DC01CB01BC01CD0189
:1039F0000E944900DC01CB019E838D830FC088ECBF
:103A000090E09C838B838B819C810197F1F79C8351
:103A10008B838D819E8101979E838D838D819E8175
:103A2000009769F714C06F81788589859A850E940F
:103A30004900DC01CB019E838D838D819E819A8319
:103A4000898389819A810197F1F79A8389832E96D8
:103A50000FB6F894DEBF0FBECDBFCF91DF910895B2
:103A6000DF93CF93CDB7DEB729970FB6F894DEBFBB
:103A70000FBECDBF99878887198286E0FE013296F6
:103A8000DF01982F1D929A95E9F7888599859E0107
:103A90002E5F3F4FB9014AE050E00E94542719823F
:103AA0000EC08981282F30E0CE010296FC01E20F82
:103AB000F31F80810E94591589818F5F89838981D5
:103AC000282F30E0CE010296FC01E20FF31F808127
:103AD000882339F729960FB6F894DEBF0FBECDBF05
:103AE000CF91DF910895DF93CF93CDB7DEB70E94DA
:103AF00086068EE891E20E9415070E947D2183E0F0
:103B000040E157E260E070E00E94770980E00E94A7
:103B1000A01D83E00E94D51D80E00E940C1E80E065
:103B20000E943B1E0E946A1E882339F482E890E0BE
:103B30002CE830E0B9010E94141FCF91DF91089565
:103B4000DF93CF930F92CDB7DEB789830E947D219B
:103B50008981813029F485E990E00E94C70607C079
:103B60008981882321F48CE990E00E94C70683E0D4
:103B70000E94390A83E00E94ED0983E00E949B0ABB
:103B8000882361F483EA90E00E943721882331F48E
:103B90008AEA90E00E943721882379F383E00E942B
:103BA0001F0A0F90CF91DF910895DF93CF930F926B
:103BB000CDB7DEB789830E947D218981813029F4C8
:103BC00088EB90E00E94C7060FC08981823029F4FB
:103BD00086EC90E00E94C70607C08981833021F4FB
:103BE00084ED90E00E94C70683E00E94390A83E0DA
:103BF0000E94ED0983E00E949B0A882331F483EA46
:103C000090E00E9437218823A9F383E00E941F0AD5
:103C10000F90CF91DF910895DF93CF930F92CDB79F
:103C2000DEB789830E947D218981813029F482EE6B
:103C300090E00E94C70607C08981882321F480EFA5
:103C400090E00E94C70683E00E94390A83E00E9448
:103C5000ED0983E00E949B0A882331F483EA90E017
:103C60000E9437218823A9F383E00E941F0A0F9046
:103C7000CF91DF910895DF93CF930F92CDB7DEB749
:103C800089830E947D218981882329F48EEF90E029
:103C90000E94C70607C08981813021F48DE091E040
:103CA0000E94C70683E00E94390A83E00E94ED0962
:103CB00083E00E949B0A882331F483EA90E00E940B
:103CC00037218823A9F383E00E941F0A0F90CF9128
:103CD000DF910895DF93CF93CDB7DEB72F970FB65F
:103CE000F894DEBF0FBECDBF0E947D218CE191E034
:103CF0000E94C70683E00E94390A83E00E94ED0912
:103D000083E00E949B0A882331F48BE291E00E94B9
:103D10005F218823A9F383E00E941F0A80E090E0DE
:103D2000A8E4B2E48B879C87AD87BE876B857C85D2
:103D30008D859E8520E030E04AEF54E40E941F020A
:103D4000DC01CB018F839887A987BA876F8178853B
:103D500089859A8520E030E040E85FE30E942504F1
:103D600088232CF481E090E09E838D833FC06F8197
:103D7000788589859A8520E03FEF4FE757E40E94D8
:103D8000C50318164CF56B857C858D859E8520E0D6
:103D900030E040E251E40E941F02DC01CB01BC0193
:103DA000CD010E944900DC01CB019E838D830FC0B1
:103DB00088EC90E09C838B838B819C810197F1F749
:103DC0009C838B838D819E8101979E838D838D81C2
:103DD0009E81009769F714C06F81788589859A85DF
:103DE0000E944900DC01CB019E838D838D819E81E1
:103DF0009A83898389819A810197F1F79A838983CC
:103E000082E391E00E943721882319F081E08F87B7
:103E100001C01F868F852F960FB6F894DEBF0FBEA8
:103E2000CDBFCF91DF910895DF93CF9300D000D025
:103E3000CDB7DEB79A8389837C836B830E947D2113
:103E400087E391E00E94C70689819A810E94C70694
:103E500082E491E00E94C7068B819C810E94C70684
:103E600086E491E00E94C70683E00E94390A83E05D
:103E70000E94ED0983E00E949B0A882391F48AE462
:103E800091E00E943721882361F48FE791E00E943E
:103E90003721882331F483EA90E00E943721882378
:103EA00049F383E00E941F0A0F900F900F900F902C
:103EB000CF91DF910895DF93CF9300D000D0CDB79D
:103EC000DEB79A8389837C836B830E947D2183EA9A
:103ED00091E00E94C70689819A810E94C70687EBFC
:103EE00091E00E94C7068B819C810E94C7068AEBE5
:103EF00091E00E94C70683E00E94390A83E00E9495
:103F0000ED0983E00E949B0A882331F48DEB91E058
:103F10000E9437218823A9F383E00E941F0A0F9093
:103F20000F900F900F90CF91DF910895DF93CF9373
:103F3000CDB7DEB7C855D0400FB6F894DEBF0FBE80
:103F4000CDBFFE01EB5AFF4F91838083FE01E95AFA
:103F5000FF4F7183608382E3FE013F96DF01982F5C
:103F60001D929A95E9F784E1FE01EF5BFF4FDF01B7
:103F7000982F1D929A95E9F70E946A1E882339F4BA
:103F800082E890E02CE830E0B9010E94141F8DEC2B
:103F900091E020EE31E0B9010E945B1FADB7BEB7E2
:103FA00018970FB6F894BEBF0FBEADBFADB7BEB782
:103FB0001196CE010F9611969C938E9383EE91E00D
:103FC00013969C938E931297FE01EB5AFF4F8081BC
:103FD000918115969C938E931497FE01E95AFF4F99
:103FE0008081918117969C938E9316970E947527D6
:103FF0008DB79EB708960FB6F8949EBF0FBE8DBFC3
:10400000CE018F5B9F4F60E070E044E150E00E9482
:104010001C27CE010F960E9423279C0100D000D0C0
:1040200000D0EDB7FEB73196CE018F5B9F4F9183E5
:10403000808385E192E093838283358324830E9489
:104040007527ADB7BEB716960FB6F894BEBF0FBEB4
:10405000ADBF0E947D21CE018F5B9F4F0E94C7069E
:1040600083E00E94390A83E00E94ED0983E00E9408
:104070009B0A882331F485E292E00E94372188234D
:10408000A9F383E00E941F0ACE010F9660E070E062
:1040900042E350E00E941C278DB79EB708970FB6E9
:1040A000F8949EBF0FBE8DBFADB7BEB71196CE01BF
:1040B0000F9611969C938E9383EE91E013969C93AA
:1040C0008E931297FE01EB5AFF4F808191811596D6
:1040D0009C938E931497FE01E95AFF4F8081918142
:1040E00017969C938E9316970E947527ADB7BEB70F
:1040F00018960FB6F894BEBF0FBEADBF0E947D21CB
:10410000CE010F960E94C70683E00E94390A83E021
:104110000E94ED0983E00E949B0A882331F48EE21D
:1041200092E00E945F218823A9F383E00E941F0A86
:1041300080E090E0AAEFB3E48B879C87AD87BE87D1
:104140006B857C858D859E8520E030E04AEF54E4C8
:104150000E941F02DC01CB018F839887A987BA8751
:104160006F81788589859A8520E030E040E85FE3BB
:104170000E94250488232CF481E090E09E838D83A7
:104180003FC06F81788589859A8520E03FEF4FE7B2
:1041900057E40E94C50318164CF56B857C858D8508
:1041A0009E8520E030E040E251E40E941F02DC01E5
:1041B000CB01BC01CD010E944900DC01CB019E83F3
:1041C0008D830FC088EC90E09C838B838B819C81D6
:1041D0000197F1F79C838B838D819E8101979E834C
:1041E0008D838D819E81009769F714C06F817885DA
:1041F00089859A850E944900DC01CB019E838D83CD
:104200008D819E819A83898389819A810197F1F7B3
:104210009A8389830E947D21C85ADF4F0FB6F89494
:10422000DEBF0FBECDBFCF91DF910895DF93CF9357
:10423000CDB7DEB70E947D2183E392E00E94C706DE
:1042400083E00E94390A83E00E94ED0983E00E9426
:104250009B0A882331F483EA90E00E943721882367
:10426000A9F383E00E941F0ACF91DF910895DF93A5
:10427000CF9300D000D0CDB7DEB79B838A8319825D
:104280008A819B810E94232789838981482F50E05E
:104290008DE193E02A813B81B9010E942C27009790
:1042A00029F40E947D2181E08C8301C01C828C81D5
:1042B0000F900F900F900F90CF91DF910895DF93A3
:1042C000CF9300D00F92CDB7DEB79A8389838DE16B
:1042D00093E029813A81B9010E943A27009729F099
:1042E0000E947D2181E08B8301C01B828B810F9016
:1042F0000F900F90CF91DF910895DF93CF93CDB7BB
:10430000DEB71092B2028DE193E060E070E04CE322
:1043100050E00E941C27CF91DF910895DF93CF9347
:104320000F92CDB7DEB7EFE5F0E080818983F89496
:104330008091B202882F90E0ECE2F0E02081FC0155
:10434000E35EFC4F20838091B2028F5F8093B202C4
:104350008091B2028C3311F41092B202EFE5F0E0DA
:10436000898180830F90CF91DF910895DF93CF9360
:10437000CDB7DEB70E944F06CF91DF910895DF934E
:10438000CF9300D000D000D0CDB7DEB78E831D8292
:104390001C821B821A8219828E810E945E069C8377
:1043A0008B838B819C81880F991F880F991F9A831B
:1043B000898389819A812AE030E0B9010E94AF2681
:1043C000CB018D838D8126960FB6F894DEBF0FBE8C
:1043D000CDBFCF91DF910895DF93CF93CDB7DEB7F7
:1043E000E8970FB6F894DEBF0FBECDBF7894A1E377
:1043F000B0E0E1E3F0E0808180628C93A2E3B0E082
:10440000E2E3F0E080818F7D8C930E94B60E0E94E3
:10441000B6210E94E61983E492E00E94991980E097
:1044200090E0A8ECB3E48DAB9EABAFABB8AF6DA999
:104430007EA98FA998AD20E030E04AEF54E40E94B5
:104440001F02DC01CB0189AB9AABABABBCAB69A95A
:104450007AA98BA99CA920E030E040E85FE30E94A4
:10446000250488232CF481E090E098AB8FA73FC00F
:1044700069A97AA98BA99CA920E03FEF4FE757E4EF
:104480000E94C50318164CF56DA97EA98FA998AD99
:1044900020E030E040E251E40E941F02DC01CB0149
:1044A000BC01CD010E944900DC01CB0198AB8FA774
:1044B0000FC088EC90E09EA78DA78DA59EA50197C3
:1044C000F1F79EA78DA78FA598A9019798AB8FA705
:1044D0008FA598A9009769F714C069A97AA98BA933
:1044E0009CA90E944900DC01CB0198AB8FA78FA546
:1044F00098A99CA78BA78BA59CA50197F1F79CA7D2
:104500008BA70E944B0B0E94E61981E592E00E9466
:10451000991980E090E0A8ECB3E48FA398A7A9A72D
:10452000BAA76FA178A589A59AA520E030E04AEF47
:1045300054E40E941F02DC01CB018BA39CA3ADA31A
:10454000BEA36BA17CA18DA19EA120E030E040E83C
:104550005FE30E94250488232CF481E090E09AA375
:1045600089A33FC06BA17CA18DA19EA120E03FEF5C
:104570004FE757E40E94C50318164CF56FA178A5C4
:1045800089A59AA520E030E040E251E40E941F0294
:10459000DC01CB01BC01CD010E944900DC01CB0153
:1045A0009AA389A30FC088EC90E098A38F8F8F8D7A
:1045B00098A10197F1F798A38F8F89A19AA10197EC
:1045C0009AA389A389A19AA1009769F714C06BA146
:1045D0007CA18DA19EA10E944900DC01CB019AA380
:1045E00089A389A19AA19E8F8D8F8D8D9E8D019714
:1045F000F1F79E8F8D8F0E94650881E040EE53E9B0
:1046000064E070E00E94770981E00E94ED0982E099
:1046100040E157E260E070E00E94770982E00E948A
:10462000ED090E94731D0E94E61981E692E00E9446
:10463000991980E090E0A8ECB3E4898F9A8FAB8F52
:10464000BC8F698D7A8D8B8D9C8D20E030E04AEF98
:1046500054E40E941F02DC01CB018D8B9E8BAF8B3B
:10466000B88F6D897E898F89988D20E030E040E891
:104670005FE30E94250488232CF481E090E09C8B6A
:104680008B8B3FC06D897E898F89988D20E03FEFAD
:104690004FE757E40E94C50318164CF5698D7A8DD3
:1046A0008B8D9C8D20E030E040E251E40E941F029F
:1046B000DC01CB01BC01CD010E944900DC01CB0132
:1046C0009C8B8B8B0FC088EC90E09A8B898B8989AF
:1046D0009A890197F1F79A8B898B8B899C8901972D
:1046E0009C8B8B8B8B899C89009769F714C06D8993
:1046F0007E898F89988D0E944900DC01CB019C8BBB
:104700008B8B8B899C89988B8F878F859889019754
:10471000F1F7988B8F870E94E6198FE692E00E944E
:10472000991980E090E0AAEFB4E48B879C87AD876D
:10473000BE876B857C858D859E8520E030E04AEFC5
:1047400054E40E941F02DC01CB018F839887A98764
:10475000BA876F81788589859A8520E030E040E8C6
:104760005FE30E94250488232CF481E090E09E837F
:104770008D833FC06F81788589859A8520E03FEFE2
:104780004FE757E40E94C50318164CF56B857C85EE
:104790008D859E8520E030E040E251E40E941F02BA
:1047A000DC01CB01BC01CD010E944900DC01CB0141
:1047B0009E838D830FC088EC90E09C838B838B81DC
:1047C0009C810197F1F79C838B838D819E8101975A
:1047D0009E838D838D819E81009769F714C06F81C0
:1047E000788589859A850E944900DC01CB019E83EA
:1047F0008D838D819E819A83898389819A81019796
:10480000F1F79A83898381E0E8960FB6F894DEBFCA
:104810000FBECDBFCF91DF910895DF93CF93CDB77A
:10482000DEB72E970FB6F894DEBF0FBECDBF0E9445
:104830001F0E8093B3028091B302883909F06CC0D7
:1048400088E693E00E94530E80916803909169037B
:10485000009771F180916803909169039C0140E099
:1048600050E080915F0390916003A0916103B0914B
:104870006203820F931FA41FB51F80935F03909361
:104880006003A0936103B0936203809164039091ED
:104890006503A0916603B09167030196A11DB11D48
:1048A0008093640390936503A0936603B0936703BA
:1048B00080916A0390916B03009771F180916A0374
:1048C00090916B039C0140E050E080915B039091DC
:1048D0005C03A0915D03B0915E03820F931FA41F40
:1048E000B51F80935B0390935C03A0935D03B0932B
:1048F0005E0380916C0390916D03A0916E03B09163
:104900006F030196A11DB11D80936C0390936D03FD
:10491000A0936E03B0936F0382E00E949B0A8823EA
:10492000D1F181E00E94BF21809363030E94E619C8
:1049300089E792E00E94991981E067E00E94AE1831
:104940008DE792E00E94991981E06DE00E94AE1817
:1049500082E892E00E9499190E94A81C8091680345
:10496000909169030E94301D82E067E00E94AE18BA
:1049700080916A0390916B030E94301D82E06DE08C
:104980000E94AE1880916303882F90E00E94301D32
:1049900082E00E94390A81E00E949B0A882309F480
:1049A00008C1A2E3B0E0E2E3F0E0808180628C9392
:1049B00080E090E0AAEFB3E48B879C87AD87BE8749
:1049C0006B857C858D859E8520E030E04AEF54E440
:1049D0000E941F02DC01CB018F839887A987BA87C9
:1049E0006F81788589859A8520E030E040E85FE333
:1049F0000E94250488232CF481E090E09E838D831F
:104A00003FC06F81788589859A8520E03FEF4FE729
:104A100057E40E94C50318164CF56B857C858D857F
:104A20009E8520E030E040E251E40E941F02DC015C
:104A3000CB01BC01CD010E944900DC01CB019E836A
:104A40008D830FC088EC90E09C838B838B819C814D
:104A50000197F1F79C838B838D819E8101979E83C3
:104A60008D838D819E81009769F714C06F81788551
:104A700089859A850E944900DC01CB019E838D8344
:104A80008D819E819A83898389819A810197F1F72B
:104A90009A838983A2E3B0E0E2E3F0E080818F7D36
:104AA0008C9380915F0390916003A0916103B0911A
:104AB0006203209164033091650340916603509135
:104AC0006703BC01CD010E94C326DA01C90190939E
:104AD00069038093680380915B0390915C03A091CC
:104AE0005D03B0915E0320916C0330916D034091A2
:104AF0006E0350916F03BC01CD010E94C326DA0101
:104B0000C90190936B0380936A031092640310921F
:104B10006503109266031092670310925F03109270
:104B20006003109261031092620310926C03109262
:104B30006D0310926E0310926F0310925B0310923C
:104B40005C0310925D0310925E038091B40288238F
:104B500069F480916303282F30E081E090E0B9018F
:104B60000E94961F81E08093B40220C08091B4021D
:104B7000813069F4209168033091690382E090E00C
:104B8000B9010E94961F82E08093B4020FC0809109
:104B9000B402823059F420916A0330916B0383E0B0
:104BA00090E0B9010E94961F1092B40281E00E9429
:104BB000390A81E02E960FB6F894DEBF0FBECDBF46
:104BC000CF91DF910895DF93CF9300D00F92CDB7AF
:104BD000DEB78A836B8319828A81282F30E08B812C
:104BE000482F50E0C901880F991F820F931F840F2F
:104BF000951FFC01EE55FD4F8081898389810F90BF
:104C00000F900F90CF91DF910895DF93CF93CDB7A1
:104C1000DEB72E970FB6F894DEBF0FBECDBF87E884
:104C200092E00E94C70680E090E0AAEFB4E48B8790
:104C30009C87AD87BE876B857C858D859E8520E0B2
:104C400030E04AEF54E40E941F02DC01CB018F8365
:104C50009887A987BA876F81788589859A8520E0AA
:104C600030E040E85FE30E94250488232CF481E0D3
:104C700090E09E838D833FC06F81788589859A857A
:104C800020E03FEF4FE757E40E94C50318164CF5AC
:104C90006B857C858D859E8520E030E040E251E487
:104CA0000E941F02DC01CB01BC01CD010E94490022
:104CB000DC01CB019E838D830FC088EC90E09C8348
:104CC0008B838B819C810197F1F79C838B838D81F2
:104CD0009E8101979E838D838D819E81009769F7C8
:104CE00014C06F81788589859A850E944900DC010E
:104CF000CB019E838D838D819E819A838983898157
:104D00009A810197F1F79A83898381E02E960FB6F5
:104D1000F894DEBF0FBECDBFCF91DF910895DF9332
:104D2000CF9300D00F92CDB7DEB71B828B81882F37
:104D300090E0880F991FFC01E555FD4F808191811E
:104D40009A838983E981FA81099580937003909110
:104D500070038B81692F0E94E3258B83E7CFAA1B09
:104D6000BB1B51E107C0AA1FBB1FA617B70710F056
:104D7000A61BB70B881F991F5A95A9F78095909588
:104D8000BC01CD010895A1E21A2EAA1BBB1BFD0197
:104D90000DC0AA1FBB1FEE1FFF1FA217B307E4071A
:104DA000F50720F0A21BB30BE40BF50B661F771F72
:104DB000881F991F1A9469F7609570958095909552
:104DC0009B01AC01BD01CF0108952F923F924F92FC
:104DD0005F926F927F928F929F92AF92BF92CF928B
:104DE000DF92EF92FF920F931F93CF93DF93CDB794
:104DF000DEB7CA1BDB0B0FB6F894DEBF0FBECDBF0C
:104E000009942A88398848885F846E847D848C84DC
:104E10009B84AA84B984C884DF80EE80FD800C81E5
:104E20001B81AA81B981CE0FD11D0FB6F894DEBFC8
:104E30000FBECDBFED010895DC0101C06D9341505F
:104E40005040E0F70895FC0101900020E9F78095BB
:104E500090958E0F9F1F0895FB01DC01415050403B
:104E600030F08D910190801919F40020B9F7881B5A
:104E7000990B0895FB0151915523A9F0BF01DC0165
:104E80004D9145174111E1F759F4CD0101900020F2
:104E900049F04D9140154111C9F3FB014111EFCF8C
:104EA00081E090E001970895FB019F01E894423072
:104EB000C4F04532B4F44A3029F497FB1EF49095BF
:104EC00081959F4F642F77270E94AF26805D8A339C
:104ED0000CF0895D8193CB010097A1F716F45DE298
:104EE00051931082C9010C948C29AEE0B0E0EBE73D
:104EF000F7E20C94F3260D891E8986E08C831A83D1
:104F000009838FEF9FE79E838D839E01275E3F4F2E
:104F1000CE0101966F89788DA9010E9499272F8172
:104F20003885020F131FF80110822E96E4E00C94CE
:104F30000F27ABE0B0E0EFE9F7E20C94E5263C0187
:104F40002B015A01FC0117821682838181FD03C067
:104F50006FEF7FEFC6C19AE0892E1E010894211CD5
:104F6000311CF3012381F20123FD859123FF8191FF
:104F70002F01882309F4B2C1853239F423FD8591CC
:104F800023FF81912F01853229F490E0B3010E9423
:104F90009C29E7CF982FFF24EE249924FFE1FF15E9
:104FA000D0F09B3269F09C3228F4903259F0933261
:104FB00091F40EC09D3249F0903369F441E024C071
:104FC00052E0F52A84E0F82A28C098E0F92A25C0A2
:104FD000E0E1FE2A22C0F7FC29C0892F80538A30E5
:104FE00070F4F6FE05C0989C902C1124980E15C004
:104FF000E89CE02C1124E80EF0E2FF2A0EC09E325D
:1050000029F4F6FC6BC140E4F42A07C09C3619F47D
:1050100050E8F52A02C0983649F4F20123FD959133
:1050200023FF91912F01992309F0B8CF892F85543F
:10503000833018F08052833038F444E050E0A40EFE
:10504000B51E5FE359830FC0933631F0933779F083
:10505000933509F056C020C0F5018081898342E074
:1050600050E0A40EB51E610101E010E012C0F50190
:10507000C080D180F6FC03C06FEF7FEF02C0692DC6
:1050800070E042E050E0A40EB51EC6010E948129E6
:105090008C015FE7F52214C0F501C080D180F6FCD9
:1050A00003C06FEF7FEF02C0692D70E042E050E077
:1050B000A40EB51EC6010E9476298C0150E8F52A7F
:1050C000F3FE07C01AC080E290E0B3010E949C2961
:1050D000EA948E2D90E008171907A8F30EC0F60188
:1050E000F7FC8591F7FE81916F0190E0B3010E947A
:1050F0009C29E110EA94015010400115110579F73F
:10510000EAC0943611F0993669F5F7FE08C0F5014A
:10511000208131814281538184E090E00AC0F50111
:10512000808191819C01442737FD4095542F82E076
:1051300090E0A80EB91E9FE6F92257FF09C05095CE
:105140004095309521953F4F4F4F5F4FE0E8FE2A45
:10515000CA01B901A1012AE030E00E94C829D82E75
:10516000D21840C0953729F41F2D1F7E2AE030E069
:105170001DC01F2D197F9F3661F0903720F49835A0
:1051800009F0ACC00FC0903739F0983709F0A6C0CD
:1051900004C028E030E00AC0106114FD146020E172
:1051A00030E004C014FD166020E132E017FF08C0B3
:1051B000F501608171818281938144E050E008C0F3
:1051C000F50180819181BC0180E090E042E050E0F7
:1051D000A40EB51EA1010E94C829D82ED2188FE7AF
:1051E000F82EF122F6FE0BC05EEFF522D91438F44A
:1051F000F4FE07C0F2FC05C08FEEF82202C01D2DA0
:1052000001C0192DF4FE0DC0FE01ED0DF11D8081D0
:10521000803319F499EEF92208C01F5FF2FE05C031
:1052200003C08F2D867809F01F5F0F2DF3FC14C08B
:10523000F0FE0FC01E1510F09D2C0BC09D2C9E0C77
:10524000911A1E2D06C080E290E0B3010E949C29B5
:105250001F5F1E15C0F304C01E1510F4E11A01C033
:10526000EE2404FF0FC080E390E0B3010E949C296C
:1052700002FF1DC001FD03C088E790E00EC088E575
:1052800090E00BC0802F867891F001FF02C08BE286
:1052900001C080E2F7FC8DE290E0B3010E949C29FE
:1052A00006C080E390E0B3010E949C299A94D9142F
:1052B000C0F3DA94F101ED0DF11D808190E0B301AE
:1052C0000E949C29DD20A9F706C080E290E0B3018E
:1052D0000E949C29EA94EE20C1F743CEF301668137
:1052E0007781CB012B96E2E10C940127FC0105901C
:1052F000615070400110D8F7809590958E0F9F1FD8
:105300000895FC016150704001900110D8F780951C
:1053100090958E0F9F1F0895DC01FC01672F7191FE
:105320007723E1F7329704C07C916D93708362918B
:10533000AE17BF07C8F308950F931F93CF93DF9362
:105340008C01EB018B8181FF1BC082FF0DC02E8180
:105350003F818C819D812817390764F4E881F981A8
:105360000193F983E88306C0E885F985802F0995C4
:10537000892B31F48E819F8101969F838E8302C099
:105380000FEF1FEFC801DF91CF911F910F9108958B
:10539000FA01AA27283051F1203181F1E8946F9366
:1053A0006E7F6E5F7F4F8F4F9F4FAF4FB1E03ED00C
:1053B000B4E03CD0670F781F891F9A1FA11D680FAA
:1053C000791F8A1F911DA11D6A0F711D811D911DDD
:1053D000A11D20D009F468943F912AE0269F112452
:1053E0003019305D3193DEF6CF010895462F4770B6
:1053F000405D4193B3E00FD0C9F7F6CF462F4F7011
:10540000405D4A3318F0495D31FD4052419302D06E
:10541000A9F7EACFB4E0A695979587957795679514
:10542000BA95C9F700976105710508959B01AC0114
:105430000A2E06945795479537952795BA95C9F73B
:10544000620F731F841F951FA01D0895F894FFCF4E
:105450005374617475730061707020737461727439
:105460002000482E572049442052656164696E67C8
:1054700020004236384C2D373345450037424633FD
:105480003236304500415445310D0A004154453013
:105490000D0A000D0A4F4B0D0A00415445300D0D09
:1054A0000A0D0A4F4B0D0A0041542B43574D4F44F0
:1054B000453D310D0A0041542B43574D4F44453D66
:1054C000320D0A0041542B43574D4F44453D330D97
:1054D0000A0041542B4349504D55583D310D0A00A7
:1054E00041542B4349504D55583D300D0A0041540D
:1054F0002B4349504D4F44453D300D0A0041542B3C
:105500004349504D4F44453D310D0A0041542B4312
:1055100049505354415455530D0A00535441545566
:1055200053003A320D0A0041542B43574A41503D33
:105530002200222C2200220D0A005749464920440D
:105540004953434F4E4E4543540D0A57494649204F
:10555000434F4E4E45435445440D0A574946492052
:10556000474F542049500D0A0D0A4F4B0D0A005762
:1055700049464920434F4E4E45435445440D0A5732
:1055800049464920474F542049500D0A0D0A4F4BB8
:105590000D0A0041542B43495053544152543D226B
:1055A000544350222C2200222C000D0A00434F4E5F
:1055B0004E4543540D0A0D0A4F4B0D0A00617069A8
:1055C0002E7468696E67737065616B2E636F6D0012
:1055D000383000474554202F7570646174653F6111
:1055E00070695F6B65793D5344354F424434394EA1
:1055F0003548344F385259266669656C6425643DD8
:1056000025640D0A0041542B43495053454E443DF7
:1056100025640D0A000D0A4F4B0D0A3E20002B4950
:1056200050440041542B434950434C4F53453D3067
:105630000D0A00646F6E6520696E6974204C4344E6
:1056400000646F6E6520696E697420435338313190
:1056500000646F6E6520696E69742045535000497F
:105660006E697420446F6E6500434F320054564F8C
:10567000430054656D70005465726D696E617465A8
:105680002073746174650D0A0000000000000000C2
:105690000001000102000102000102EC210D2405BD
:0256A0002600E2
:00000001FF
