:100000000C942A000C9447000C9447000C94470071
:100010000C9447000C9447000C9447000C94470044
:100020000C9447000C9447000C9447000C94470034
:100030000C9447000C94F0060C9447000C94470075
:100040000C9447000C9447000C9447000C94470014
:100050000C94470011241FBECFE5D8E0DEBFCDBF12
:1000600012E0A0E6B0E0E6ECF4E502C005900D92E7
:10007000A23BB107D9F712E0A2EBB2E001C01D929A
:10008000A23FB107E1F70E94CA260C94612A0C94A2
:100090000000EF92FF920F931F937B018C0120E0F1
:1000A00030E040E05FE40E94F50388238CF0C80153
:1000B000B70120E030E040E05FE40E94C1010E940F
:1000C00055049B01AC01205030404040504806C0D0
:1000D000C801B7010E9455049B01AC01B901CA01D6
:1000E0001F910F91FF90EF900895A0E0B0E0EBE733
:1000F000F0E00C940C27DC012B01FA019C9192306A
:1001000008F439C1EB018881823008F433C194309E
:1001100069F4843009F02FC111969C91119789815F
:10012000981709F428C1ABE9B2E025C1843009F47D
:1001300021C18230A9F4923009F01DC19A01AD01AC
:1001400088E0EA010990AE01E90109929E0181501F
:10015000C1F7E201898111969C918923818308C1AD
:10016000923009F407C112962D903C901397EB0141
:100170008A819B811496AD90BD90CD90DC901797AD
:10018000EC80FD800E811F819101281B390BB90184
:1001900037FF04C066277727621B730B6032710537
:1001A0000CF061C0121613066CF537014801062EDB
:1001B00004C096948794779467940A94D2F721E0C8
:1001C00030E040E050E004C0220F331F441F551FB1
:1001D0006A95D2F721503040404050402E213F21B7
:1001E00040235123211531054105510521F021E01E
:1001F00030E040E050E079018A01E628F72808293C
:1002000019293CC0232BD1F1260E371E350146019A
:10021000062E04C096948794779467940A94D2F734
:1002200021E030E040E050E004C0220F331F441FC3
:10023000551F6A95D2F721503040404050402A2146
:100240003B214C215D21211531054105510521F04E
:1002500021E030E040E050E059016A01A628B728CB
:10026000C828D9280BC0821593052CF01C01AA249C
:10027000BB24650103C0EE24FF24870111969C91E5
:10028000D20111968C91981709F445C0992339F041
:10029000A80197012A193B094C095D0906C0A6016E
:1002A00095012E193F09400B510B57FD08C01182D3
:1002B0003382228224833583468357831DC081E0A5
:1002C00081833382228288279927DC01821B930B4A
:1002D000A40BB50B84839583A683B7830DC0220F2F
:1002E000331F441F551F24833583468357838281E0
:1002F000938101979383828324813581468157813D
:10030000DA01C9010197A109B1098F5F9F4FAF4F72
:10031000BF4328F30BC0918333822282EA0CFB1C7B
:100320000C1D1D1DE482F5820683178383E0808304
:10033000248135814681578157FF1AC0C901AA27F8
:1003400097FDA095BA2F81709070A070B0705695EF
:10035000479537952795822B932BA42BB52B848318
:100360009583A683B7838281938101969383828349
:10037000DF0101C0D201CD01CDB7DEB7E2E10C94BF
:100380002827A0E2B0E0E7ECF1E00C94182769839D
:100390007A838B839C832D833E834F835887E9E048
:1003A000EE2EF12CEC0EFD1ECE010196B7010E943F
:1003B0007E058E010F5E1F4FCE010596B8010E948B
:1003C0007E058A8991E089278A8BC701B801AE0131
:1003D000475E5F4F0E9475000E94A904A096E6E068
:1003E0000C943427A0E2B0E0E8EFF1E00C94182779
:1003F00069837A838B839C832D833E834F835887C5
:10040000F9E0EF2EF12CEC0EFD1ECE010196B701A6
:100410000E947E058E010F5E1F4FCE010596B8012A
:100420000E947E05C701B801AE01475E5F4F0E9482
:1004300075000E94A904A096E6E00C943427A0E27F
:10044000B0E0E5E2F2E00C940C2769837A838B83B9
:100450009C832D833E834F835887CE010196BE0136
:10046000675F7F4F0E947E05CE010596BE016F5EDD
:100470007F4F0E947E059985923088F0898982306D
:10048000C8F0943019F4823051F404C0843029F457
:10049000923081F48BE992E0C6C0923049F420E0BA
:1004A0009A858A89981321E02A87CE010996BBC0D4
:1004B000823049F420E09A858A89981321E02A8BBA
:1004C000CE014196B0C02D843E844F8458886D88FB
:1004D0007E888F88988CEE24FF248701AA24BB2471
:1004E000650140E050E060E070E0E0E0F0E0C10174
:1004F00081709070892BE9F0E60CF71C081D191D1E
:100500009A01AB012A0D3B1D4C1D5D1D80E090E062
:10051000A0E0B0E0E614F7040805190520F481E036
:1005200090E0A0E0B0E0BA01A901480F591F6A1F8E
:100530007B1FAA0CBB1CCC1CDD1C97FE08C081E0F5
:1005400090E0A0E0B0E0A82AB92ACA2ADB2A3196B6
:10055000E032F10549F0660C771C881C991C569412
:10056000479437942794C3CFFA85EA892B893C892D
:100570008B859C85280F391F2E5F3F4F17C0CA01FE
:1005800081709070892B61F016950795F794E79428
:1005900080E090E0A0E0B0E8E82AF92A0A2B1B2BC3
:1005A00076956795579547952F5F3F4F77FDE7CF36
:1005B0000CC0440F551F661F771F17FD4160EE0CDE
:1005C000FF1C001F111F21503040403090E05907A0
:1005D00090E0690790E4790760F32B8F3C8FDB0193
:1005E000CA018F779070A070B07080349105A1051A
:1005F000B10561F447FD0AC0E114F10401051105DC
:1006000029F0405C5F4F6F4F7F4F40781A8EFE1786
:1006100011F081E08A8F4D8F5E8F6F8F78A383E01A
:10062000898FCE0149960E94A904A096E2E10C941C
:100630002827A8E1B0E0EFE1F3E00C9414276983E8
:100640007A838B839C832D833E834F835887B9E0C5
:10065000EB2EF12CEC0EFD1ECE010196B7010E948F
:100660007E058E010F5E1F4FCE010596B8010E94D8
:100670007E052985223008F47EC03989323010F495
:10068000B8017CC08A859A8989278A87243011F02D
:10069000223031F4231709F06EC06BE972E06EC0AE
:1006A000343039F41D861E861F86188A1C861B86E8
:1006B00004C0323021F484E08987B7015FC02B8504
:1006C0003C858B899C89281B390B3C872B87ED84C3
:1006D000FE840F851889AD88BE88CF88D88CEA142F
:1006E000FB040C051D0540F4EE0CFF1C001F111F40
:1006F000215030403C872B8720E030E040E050E044
:1007000080E090E0A0E0B0E460E070E0EA14FB0478
:100710000C051D0540F0282B392B4A2B5B2BEA18C2
:10072000FB080C091D09B695A79597958795EE0CC2
:10073000FF1C001F111F6F5F7F4F6F31710531F775
:10074000DA01C9018F779070A070B0708034910584
:10075000A105B10561F427FD0AC0E114F10401050A
:10076000110529F0205C3F4F4F4F5F4F20782D87B8
:100770003E874F87588BBE01675F7F4FCB010E943A
:10078000A9046896EAE00C943027A8E1B0E0EBEC0D
:10079000F3E00C94182769837A838B839C832D83E1
:1007A0003E834F83588789E0E82EF12CEC0EFD1E26
:1007B000CE010196B7010E947E058E010F5E1F4F8C
:1007C000CE010596B8010E947E058985823040F0F1
:1007D0008989823028F0C701B8010E94F60501C05E
:1007E0008FEF6896E6E00C943427A8E1B0E0EBEFD9
:1007F000F3E00C94182769837A838B839C832D8381
:100800003E834F83588789E0E82EF12CEC0EFD1EC5
:10081000CE010196B7010E947E058E010F5E1F4F2B
:10082000CE010596B8010E947E058985823040F090
:100830008989823028F0C701B8010E94F60501C0FD
:100840008FEF6896E6E00C943427A8E1B0E0EBE285
:10085000F4E00C94182769837A838B839C832D831F
:100860003E834F83588789E0E82EF12CEC0EFD1E65
:10087000CE010196B7010E947E058E010F5E1F4FCB
:10088000CE010596B8010E947E058985823040F030
:100890008989823028F0C701B8010E94F60501C09D
:1008A00081E06896E6E00C943427ACE0B0E0EBE53C
:1008B000F4E00C941C2769837A838B839C83CE019C
:1008C0000196BE016B5F7F4F0E947E058D81823055
:1008D00061F1823050F1843021F48E81882351F10E
:1008E0002EC02F81388537FD20C06E812F31310514
:1008F0001CF06623F9F023C08EE190E0821B930B7D
:1009000029853A854B855C8504C056954795379572
:1009100027958A95D2F76623B1F05095409530958A
:1009200021953F4F4F4F5F4F0EC020E030E040E039
:1009300050E009C02FEF3FEF4FEF5FE704C020E02A
:1009400030E040E050E8B901CA012C96E2E00C9496
:100950003827DF92EF92FF920F931F93FC01E48000
:10096000F58006811781D1808081823048F480E053
:1009700090E0A0E1B0E0E82AF92A0A2B1B2BA5C0E1
:10098000843009F49FC0823021F4EE24FF248701D3
:1009900005C0E114F1040105110519F4E0E0F0E0EF
:1009A00096C0628173819FEF623879070CF05BC05B
:1009B00022E83FEF261B370B2A3131052CF020E0CF
:1009C00030E040E050E02AC0B801A701022E04C088
:1009D00076956795579547950A94D2F781E090E010
:1009E000A0E0B0E004C0880F991FAA1FBB1F2A9582
:1009F000D2F70197A109B1098E219F21A023B1232C
:100A00000097A105B10521F081E090E0A0E0B0E001
:100A10009A01AB01282B392B4A2B5B2BDA01C90138
:100A20008F779070A070B07080349105A105B105EA
:100A300039F427FF09C0205C3F4F4F4F5F4F04C080
:100A4000215C3F4F4F4F5F4FE0E0F0E02030A0E0EF
:100A50003A07A0E04A07A0E45A0710F0E1E0F0E00E
:100A600079018A0127C06038710564F5FB01E158FE
:100A7000FF4FD801C7018F779070A070B07080349D
:100A80009105A105B10539F4E7FE0DC080E490E0C1
:100A9000A0E0B0E004C08FE390E0A0E0B0E0E80E9A
:100AA000F91E0A1F1B1F17FF05C016950795F7941F
:100AB000E794319687E016950795F794E7948A9521
:100AC000D1F705C0EE24FF248701EFEFF0E06E2F91
:100AD000679566276795902F9F77D794DD24D794E5
:100AE0008E2F8695492F462B582F5D29B701CA01B5
:100AF0001F910F91FF90EF90DF900895FC01DB01B3
:100B0000408151812281622F6F7770E0221F22275E
:100B1000221F9381892F880F822B282F30E0991F65
:100B20009927991F11969C93119721153105A9F5C5
:100B3000411551056105710511F482E037C082E865
:100B40009FEF13969C938E9312979A01AB0167E0E7
:100B5000220F331F441F551F6A95D1F783E08C93F2
:100B60000DC0220F331F441F551F12968D919C916B
:100B70001397019713969C938E931297203080E0E1
:100B8000380780E0480780E4580758F314962D93FF
:100B90003D934D935C93179708952F3F310579F45A
:100BA000411551056105710519F484E08C93089590
:100BB00064FF03C081E08C9312C01C9210C02F57B9
:100BC000304013963C932E93129783E08C9387E0EA
:100BD000440F551F661F771F8A95D1F770641496CE
:100BE0004D935D936D937C93179708951F93DC014C
:100BF000FB019C91923008F447C08081823008F458
:100C000043C0943051F411961C91843099F5818140
:100C1000682F70E0611B71093FC0843021F0923071
:100C200031F48230B9F18181882389F12DC0119688
:100C30001C9111978230F1F081811817D9F4129626
:100C40002D913C911397828193818217930794F0A1
:100C500028173907BCF014968D919D910D90BC9189
:100C6000A02D2481358146815781281739074A07ED
:100C70005B0718F4112341F00AC082179307A407F9
:100C8000B50740F4112319F061E070E005C06FEF83
:100C90007FEF02C060E070E0CB011F910895DF9309
:100CA000CF9300D0CDB7DEB71A821982EAE2F0E026
:100CB00088E98083E0E4F0E086E88083E9E2F0E020
:100CC00083E38083E0E4F0E010820F900F90CF91F7
:100CD000DF910895DF93CF930F92CDB7DEB789836D
:100CE000EBE2F0E08081882F90E0807290700097B6
:100CF000B9F3ECE2F0E0898180830F90CF91DF912E
:100D00000895DF93CF93CDB7DEB7EBE2F0E08081BB
:100D10008823DCF7ECE2F0E08081CF91DF91089549
:100D2000DF93CF9300D000D0CDB7DEB79C838B8309
:100D30001A8219820FC029813A818B819C81FC0122
:100D4000E20FF31F80810E946A0689819A810196D1
:100D50009A83898329813A818B819C81FC01E20FEE
:100D6000F31F8081882339F70F900F900F900F9019
:100D7000CF91DF910895DF93CF93CDB7DEB766971C
:100D80000FB6F894DEBF0FBECDBF9E8B8D8B8D89C5
:100D90009E899E012F5F3F4FB9014AE050E00E94BB
:100DA0007B27CE0101960E94900666960FB6F894B6
:100DB000DEBF0FBECDBFCF91DF910895DF93CF93FC
:100DC00000D0CDB7DEB79A83898389819A819093C9
:100DD000B4028093B3020F900F90CF91DF910895EA
:100DE0001F920F920FB60F9211242F933F934F93A0
:100DF0005F936F937F938F939F93AF93BF93EF9383
:100E0000FF93DF93CF93CDB7DEB7E091B302F091BC
:100E1000B4020995CF91DF91FF91EF91BF91AF910E
:100E20009F918F917F916F915F914F913F912F9102
:100E30000F900FBE0F901F901895DF93CF93CDB7F3
:100E4000DEB7E1E2F0E01082E0E2F0E087E48083E8
:100E5000E6E5F0E084E08083CF91DF910895DF93B1
:100E6000CF93CDB7DEB7E6E5F0E084EA8083E6E530
:100E7000F0E080818823DCF7CF91DF910895DF9344
:100E8000CF930F92CDB7DEB78983E3E2F0E089819B
:100E90008083E6E5F0E084E88083E6E5F0E08081A9
:100EA0008823DCF70F90CF91DF910895DF93CF93E4
:100EB0000F92CDB7DEB78983E3E2F0E089818083CA
:100EC000E6E5F0E084E88083E6E5F0E080818823D1
:100ED000DCF70F90CF91DF910895DF93CF9300D08F
:100EE000CDB7DEB79A838983E981FA811082E6E57E
:100EF000F0E084EC8083E6E5F0E080818823DCF795
:100F0000E3E2F0E08081E981FA8180830F900F9025
:100F1000CF91DF910895DF93CF9300D0CDB7DEB7A7
:100F20009A838983E6E5F0E084E88083E6E5F0E0F3
:100F300080818823DCF7E3E2F0E08081E981FA81B7
:100F400080830F900F90CF91DF910895DF93CF931F
:100F5000CDB7DEB7E6E5F0E084E98083CF91DF919D
:100F60000895DF93CF9300D00F92CDB7DEB78A8379
:100F70006B8319820E942F078A810E9456078B81FA
:100F80000E9456070E942F078A8181600E9456079F
:100F9000CE0101960E948B070E94A60789810F90BF
:100FA0000F900F90CF91DF910895DF93CF9300D0F2
:100FB00000D00F92CDB7DEB78C836D831A82198271
:100FC0001B820E942F078C810E9456078D810E94F0
:100FD00056070E942F078C8181600E945607CE0120
:100FE00003960E946D078B81882F90E0982F8827A9
:100FF0009A838983CE0103960E948B070E94A607DD
:101000008B81282F30E089819A81822B932B9A83C0
:10101000898389810F900F900F900F900F90CF913F
:10102000DF910895DF93CF9300D00F92CDB7DEB755
:1010300089836A834B830E942F0789810E94560708
:101040008A810E9456078B810E9456070E94A6073C
:101050000F900F900F90CF91DF9108950F931F93F2
:10106000DF93CF93CDB7DEB7C455D0400FB6F89419
:10107000DEBF0FBECDBFA4E3B0E0E4E3F0E08081CB
:1010800080688C93A4E3B0E0E4E3F0E080818064C6
:101090008C93A7E3B0E0E7E3F0E08081806F8C936E
:1010A000A8E3B0E0E8E3F0E080818C9380E30E9465
:1010B0000D15FE01EF5AFF4F80E090E0A0E2B1E491
:1010C00080839183A283B3838E01035B1F4FFE0154
:1010D000EF5AFF4F608171818281938120E030E07F
:1010E0004AEF54E40E941F02DC01CB01F801808327
:1010F0009183A283B383FE01E35BFF4F6081718123
:101100008281938120E030E040E85FE30E94250483
:10111000882344F4FE01E55BFF4F81E090E091837A
:10112000808364C0FE01E35BFF4F60817181828137
:10113000938120E03FEF4FE757E40E94C503181664
:101140000CF043C0FE01EF5AFF4F60817181828134
:10115000938120E030E040E251E40E941F02DC0174
:10116000CB018E01055B1F4FBC01CD010E944900E0
:10117000DC01CB01F801918380831FC0FE01E75B96
:10118000FF4F88EC90E091838083FE01E75BFF4F87
:10119000808191810197F1F7FE01E75BFF4F918319
:1011A0008083DE01A55BBF4FFE01E55BFF4F8081C1
:1011B0009181019711969C938E93FE01E55BFF4F01
:1011C000808191810097D1F627C08E01055B1F4F6A
:1011D000FE01E35BFF4F60817181828193810E94F8
:1011E0004900DC01CB01F80191838083DE01A95B1A
:1011F000BF4FFE01E55BFF4F808191818D939C93F2
:10120000FE01E95BFF4F808191810197F1F7FE01BB
:10121000E95BFF4F9183808380E30E940D15FE01FF
:10122000ED5BFF4F80E090E0A0E2B1E4808391832A
:10123000A283B3838E01015C1F4FFE01ED5BFF4F64
:10124000608171818281938120E030E04AEF54E433
:101250000E941F02DC01CB01F80180839183A283ED
:10126000B383FE01FF96608171818281938120E0CA
:1012700030E040E85FE30E94250488232CF481E0FD
:1012800090E09EAF8DAF46C0FE01FF9660817181F8
:101290008281938120E03FEF4FE757E40E94C5032E
:1012A000181664F5FE01ED5BFF4F6081718182814C
:1012B000938120E030E040E251E40E941F02DC0113
:1012C000CB01BC01CD010E944900DC01CB019EAFE6
:1012D0008DAF0FC088EC90E09CAF8BAF8BAD9CAD19
:1012E0000197F1F79CAF8BAF8DAD9EAD01979EAF8F
:1012F0008DAF8DAD9EAD009769F716C0FE01FF96CC
:1013000060817181828193810E944900DC01CB015F
:101310009EAF8DAF8DAD9EAD9AAF89AF89AD9AADC1
:101320000197F1F79AAF89AF80E30E940D1580E035
:1013300090E0A0E2B1E48DAB9EABAFABB8AF6DA9CE
:101340007EA98FA998AD20E030E04AEF54E40E94D6
:101350001F02DC01CB0189AB9AABABABBCAB69A97B
:101360007AA98BA99CA920E030E040E85FE30E94C5
:10137000250488232CF481E090E098AB8FA73FC030
:1013800069A97AA98BA99CA920E03FEF4FE757E410
:101390000E94C50318164CF56DA97EA98FA998ADBA
:1013A00020E030E040E251E40E941F02DC01CB016A
:1013B000BC01CD010E944900DC01CB0198AB8FA795
:1013C0000FC088EC90E09EA78DA78DA59EA50197E4
:1013D000F1F79EA78DA78FA598A9019798AB8FA726
:1013E0008FA598A9009769F714C069A97AA98BA954
:1013F0009CA90E944900DC01CB0198AB8FA78FA567
:1014000098A99CA78BA78BA59CA50197F1F79CA7F2
:101410008BA780E20E940D1580E090E0A0E2B1E48D
:101420008FA398A7A9A7BAA76FA178A589A59AA500
:1014300020E030E04AEF54E40E941F02DC01CB01BF
:101440008BA39CA3ADA3BEA36BA17CA18DA19EA1E8
:1014500020E030E040E85FE30E94250488232CF47C
:1014600081E090E09AA389A33FC06BA17CA18DA1EC
:101470009EA120E03FEF4FE757E40E94C5031816F6
:101480004CF56FA178A589A59AA520E030E040E24F
:1014900051E40E941F02DC01CB01BC01CD010E947E
:1014A0004900DC01CB019AA389A30FC088EC90E02E
:1014B00098A38F8F8F8D98A10197F1F798A38F8FA5
:1014C00089A19AA101979AA389A389A19AA10097BA
:1014D00069F714C06BA17CA18DA19EA10E94490057
:1014E000DC01CB019AA389A389A19AA19E8F8D8F3C
:1014F0008D8D9E8D0197F1F79E8F8D8F80E090E00E
:10150000A0E2B1E4898F9A8FAB8FBC8F698D7A8D01
:101510008B8D9C8D20E030E04AEF54E40E941F0246
:10152000DC01CB018D8B9E8BAF8BB88F6D897E8953
:101530008F89988D20E030E040E85FE30E94250429
:1015400088232CF481E090E09C8B8B8B3FC06D89CD
:101550007E898F89988D20E03FEF4FE757E40E9406
:10156000C50318164CF5698D7A8D8B8D9C8D20E006
:1015700030E040E251E40E941F02DC01CB01BC01DB
:10158000CD010E944900DC01CB019C8B8B8B0FC0ED
:1015900088EC90E09A8B898B89899A890197F1F779
:1015A0009A8B898B8B899C8901979C8B8B8B8B89E0
:1015B0009C89009769F714C06D897E898F89988D01
:1015C0000E944900DC01CB019C8B8B8B8B899C8911
:1015D000988B8F878F8598890197F1F7988B8F87E4
:1015E00088E20E947A0B8CE00E947A0B86E00E94CF
:1015F0007A0B80E80E947A0B80E090E0A0EAB1E4E8
:101600008B879C87AD87BE876B857C858D859E8506
:1016100020E030E04AEF54E40E941F02DC01CB01DD
:101620008F839887A987BA876F81788589859A85FE
:1016300020E030E040E85FE30E94250488232CF49A
:1016400081E090E09E838D833FC06F81788589859E
:101650009A8520E03FEF4FE757E40E94C503181634
:101660004CF56B857C858D859E8520E030E040E2E1
:1016700051E40E941F02DC01CB01BC01CD010E949C
:101680004900DC01CB019E838D830FC088EC90E084
:101690009C838B838B819C810197F1F79C838B8347
:1016A0008D819E8101979E838D838D819E81009780
:1016B00069F714C06F81788589859A850E944900F1
:1016C000DC01CB019E838D838D819E819A838983EA
:1016D00089819A810197F1F79A838983CC5ADF4FE8
:1016E0000FB6F894DEBF0FBECDBFCF91DF911F9133
:1016F0000F9108950F931F93DF93CF93CDB7DEB76C
:10170000C954D0400FB6F894DEBF0FBECDBFFE0166
:10171000E75BFF4F8083A5E3B0E0E5E3F0E0808185
:101720008F7B8C93A8E3B0E0E8E3F0E080818F77D3
:101730008C93A8E3B0E0E8E3F0E080818F7B8C93AA
:10174000A8E3B0E0E8E3F0E080818F7D8C93A8E32C
:10175000B0E0E8E3F0E080818F7E8C93FE01E75BF0
:10176000FF4F808188233CF4A8E3B0E0E8E3F0E099
:10177000808180688C93FE01E75BFF4F8081882F1A
:1017800090E080749070009739F0A8E3B0E0E8E34F
:10179000F0E0808180648C93FE01E75BFF4F8081E5
:1017A000882F90E080729070009739F0A8E3B0E045
:1017B000E8E3F0E0808180628C93FE01E75BFF4FFD
:1017C0008081882F90E080719070009739F0A8E3B5
:1017D000B0E0E8E3F0E0808180618C93A5E3B0E0C5
:1017E000E5E3F0E0808180688C93FE01EB5BFF4FC6
:1017F00080E090E0A0E0B0E480839183A283B38393
:101800008E010F5B1F4FFE01EB5BFF4F608171810B
:10181000828193812BEA3AEA4AE250E40E941F0255
:10182000DC01CB01F80180839183A283B383FE01A5
:10183000EF5BFF4F608171818281938120E030E016
:1018400040E85FE30E942504882334F481E0FE0130
:10185000E05CFF4F80839DC0FE01EF5BFF4F608126
:1018600071818281938120E030E04FE753E40E9450
:10187000C50318160CF07EC0FE01EB5BFF4F6081C4
:1018800071818281938120E030E04AE754E40E9434
:101890001903DC01CB018CAF9DAFAEAFBFAF6CAD18
:1018A0007DAD8EAD9FAD20E030E04AEF54E40E9464
:1018B0001F02DC01CB0188AF99AFAAAFBBAF68AD07
:1018C00079AD8AAD9BAD20E030E040E85FE30E9457
:1018D000250488232CF481E090E09FAB8EAB3FC0C1
:1018E00068AD79AD8AAD9BAD20E03FEF4FE757E49F
:1018F0000E94C50318164CF56CAD7DAD8EAD9FAD45
:1019000020E030E040E251E40E941F02DC01CB0104
:10191000BC01CD010E944900DC01CB019FAB8EAB25
:101920000FC088EC90E09DAB8CAB8CA99DA9019772
:10193000F1F79DAB8CAB8EA99FA901979FAB8EABA6
:101940008EA99FA9009769F72DC068AD79AD8AADC2
:101950009BAD0E944900DC01CB019FAB8EAB8EA9F1
:101960009FA99BAB8AAB8AA99BA90197F1F79BAB77
:101970008AAB18C0FE01EF5BFF4F608171818281ED
:1019800093810E944900DC01CB01FE01E05CFF4F26
:101990008083FE01E05CFF4F808189AB89A98A9535
:1019A000F1F789ABA5E3B0E0E5E3F0E080818F7764
:1019B0008C93A8E3B0E0E8E3F0E080818F778C932C
:1019C000A8E3B0E0E8E3F0E080818F7B8C93A8E3AC
:1019D000B0E0E8E3F0E080818F7D8C93A8E3B0E095
:1019E000E8E3F0E080818F7E8C93FE01E75BFF4FA0
:1019F0008081882F90E088709070009739F0A8E37C
:101A0000B0E0E8E3F0E0808180688C93FE01E75B62
:101A1000FF4F8081882F90E084709070009739F09C
:101A2000A8E3B0E0E8E3F0E0808180648C93FE01FD
:101A3000E75BFF4F8081882F90E082709070009765
:101A400039F0A8E3B0E0E8E3F0E0808180628C93B5
:101A5000FE01E75BFF4F8081882F90E081709070DE
:101A6000882339F0A8E3B0E0E8E3F0E0808180610A
:101A70008C93A5E3B0E0E5E3F0E0808180688C938F
:101A800080E090E0A0E0B0E48DA79EA7AFA7B8AB40
:101A90006DA57EA58FA598A92BEA3AEA4AE250E403
:101AA0000E941F02DC01CB0189A79AA7ABA7BCA7A4
:101AB00069A57AA58BA59CA520E030E040E85FE30E
:101AC0000E94250488231CF481E088A791C069A5A1
:101AD0007AA58BA59CA520E030E04FE753E40E9457
:101AE000C50318160CF07BC06DA57EA58FA598A91F
:101AF00020E030E04AE754E40E941903DC01CB0106
:101B00008CA39DA3AEA3BFA36CA17DA18EA19FA119
:101B100020E030E04AEF54E40E941F02DC01CB01D8
:101B200088A399A3AAA3BBA368A179A18AA19BA119
:101B300020E030E040E85FE30E94250488232CF495
:101B400081E090E09F8F8E8F3FC068A179A18AA12C
:101B50009BA120E03FEF4FE757E40E94C503181612
:101B60004CF56CA17DA18EA19FA120E030E040E268
:101B700051E40E941F02DC01CB01BC01CD010E9497
:101B80004900DC01CB019F8F8E8F0FC088EC90E065
:101B90009D8F8C8F8C8D9D8D0197F1F79D8F8C8FF4
:101BA0008E8D9F8D01979F8F8E8F8E8D9F8D00972D
:101BB00069F724C068A179A18AA19BA10E9449006C
:101BC000DC01CB019F8F8E8F8E8D9F8D9B8F8A8F97
:101BD0008A8D9B8D0197F1F79B8F8A8F0FC069A526
:101BE0007AA58BA59CA50E944900DC01CB0188A7A2
:101BF00088A5898F898D8A95F1F7898FA5E3B0E053
:101C0000E5E3F0E080818F778C9380E090E0A6E9B7
:101C1000B3E48D8B9E8BAF8BB88F6D897E898F8956
:101C2000988D2BEA3AEA4AE250E40E941F02DC0156
:101C3000CB01898B9A8BAB8BBC8B69897A898B8919
:101C40009C8920E030E040E85FE30E94250488237F
:101C50001CF481E0888B91C069897A898B899C8981
:101C600020E030E04FE753E40E94C50318160CF063
:101C70007BC06D897E898F89988D20E030E04AE7AE
:101C800054E40E941903DC01CB018C879D87AE8749
:101C9000BF876C857D858E859F8520E030E04AEF8B
:101CA00054E40E941F02DC01CB0188879987AA8730
:101CB000BB87688579858A859B8520E030E040E890
:101CC0005FE30E94250488232CF481E090E09F8349
:101CD0008E833FC0688579858A859B8520E03FEFAC
:101CE0004FE757E40E94C50318164CF56C857D85B7
:101CF0008E859F8520E030E040E251E40E941F0283
:101D0000DC01CB01BC01CD010E944900DC01CB010B
:101D10009F838E830FC088EC90E09D838C838C81A1
:101D20009D810197F1F79D838C838E819F8101971F
:101D30009F838E838E819F81009769F724C0688579
:101D400079858A859B850E944900DC01CB019F83B0
:101D50008E838E819F819B838A838A819B81019759
:101D6000F1F79B838A830FC069897A898B899C8963
:101D70000E944900DC01CB01888B88898983898195
:101D80008A95F1F78983C75BDF4F0FB6F894DEBF02
:101D90000FBECDBFCF91DF911F910F9108950F938B
:101DA0001F93DF93CF93CDB7DEB7C954D0400FB6A2
:101DB000F894DEBF0FBECDBFFE01E75BFF4F80830F
:101DC000A5E3B0E0E5E3F0E0808180648C93A8E3D4
:101DD000B0E0E8E3F0E080818F778C93A8E3B0E097
:101DE000E8E3F0E080818F7B8C93A8E3B0E0E8E348
:101DF000F0E080818F7D8C93A8E3B0E0E8E3F0E031
:101E000080818F7E8C93FE01E75BFF4F808188236A
:101E10003CF4A8E3B0E0E8E3F0E0808180688C93D4
:101E2000FE01E75BFF4F8081882F90E08074907007
:101E3000009739F0A8E3B0E0E8E3F0E08081806447
:101E40008C93FE01E75BFF4F8081882F90E08072CA
:101E50009070009739F0A8E3B0E0E8E3F0E080810B
:101E600080628C93FE01E75BFF4F8081882F90E0BA
:101E700080719070009739F0A8E3B0E0E8E3F0E0FB
:101E8000808180618C93A5E3B0E0E5E3F0E08081A0
:101E900080688C93FE01EB5BFF4F80E090E0A0E058
:101EA000B0E480839183A283B3838E010F5B1F4FC5
:101EB000FE01EB5BFF4F60817181828193812BEA90
:101EC0003AEA4AE250E40E941F02DC01CB01F80129
:101ED00080839183A283B383FE01EF5BFF4F608118
:101EE00071818281938120E030E040E85FE30E94CD
:101EF0002504882334F481E0FE01E05CFF4F8083F9
:101F00009DC0FE01EF5BFF4F6081718182819381F3
:101F100020E030E04FE753E40E94C50318160CF0B0
:101F20007EC0FE01EB5BFF4F6081718182819381F6
:101F300020E030E04AE754E40E941903DC01CB01C1
:101F40008CAF9DAFAEAFBFAF6CAD7DAD8EAD9FAD75
:101F500020E030E04AEF54E40E941F02DC01CB0194
:101F600088AF99AFAAAFBBAF68AD79AD8AAD9BAD75
:101F700020E030E040E85FE30E94250488232CF451
:101F800081E090E09FAB8EAB3FC068AD79AD8AAD8C
:101F90009BAD20E03FEF4FE757E40E94C5031816C2
:101FA0004CF56CAD7DAD8EAD9FAD20E030E040E2F4
:101FB00051E40E941F02DC01CB01BC01CD010E9453
:101FC0004900DC01CB019FAB8EAB0FC088EC90E0E9
:101FD0009DAB8CAB8CA99DA90197F1F79DAB8CAB08
:101FE0008EA99FA901979FAB8EAB8EA99FA9009741
:101FF00069F72DC068AD79AD8AAD9BAD0E944900EF
:10200000DC01CB019FAB8EAB8EA99FA99BAB8AABAA
:102010008AA99BA90197F1F79BAB8AAB18C0FE0177
:10202000EF5BFF4F60817181828193810E94490043
:10203000DC01CB01FE01E05CFF4F8083FE01E05C30
:10204000FF4F808189AB89A98A95F1F789ABA5E318
:10205000B0E0E5E3F0E080818F778C93A8E3B0E017
:10206000E8E3F0E080818F778C93A8E3B0E0E8E3C9
:10207000F0E080818F7B8C93A8E3B0E0E8E3F0E0B0
:1020800080818F7D8C93A8E3B0E0E8E3F0E080816D
:102090008F7E8C93FE01E75BFF4F8081882F90E05D
:1020A00088709070009739F0A8E3B0E0E8E3F0E0C2
:1020B000808180688C93FE01E75BFF4F8081882FD1
:1020C00090E084709070009739F0A8E3B0E0E8E306
:1020D000F0E0808180648C93FE01E75BFF4F80819C
:1020E000882F90E082709070009739F0A8E3B0E0FC
:1020F000E8E3F0E0808180628C93FE01E75BFF4FB4
:102100008081882F90E081709070882339F0A8E357
:10211000B0E0E8E3F0E0808180618C93A5E3B0E07B
:10212000E5E3F0E0808180688C9380E090E0A0E0BF
:10213000B0E48DA79EA7AFA7B8AB6DA57EA58FA570
:1021400098A92BEA3AEA4AE250E40E941F02DC0115
:10215000CB0189A79AA7ABA7BCA769A57AA58BA530
:102160009CA520E030E040E85FE30E94250488233E
:102170001CF481E088A791C069A57AA58BA59CA5D0
:1021800020E030E04FE753E40E94C50318160CF03E
:102190007BC06DA57EA58FA598A920E030E04AE719
:1021A00054E40E941903DC01CB018CA39DA3AEA3D0
:1021B000BFA36CA17DA18EA19FA120E030E04AEFDA
:1021C00054E40E941F02DC01CB0188A399A3AAA3B7
:1021D000BBA368A179A18AA19BA120E030E040E8DF
:1021E0005FE30E94250488232CF481E090E09F8F18
:1021F0008E8F3FC068A179A18AA19BA120E03FEF0B
:102200004FE757E40E94C50318164CF56CA17DA159
:102210008EA19FA120E030E040E251E40E941F0225
:10222000DC01CB01BC01CD010E944900DC01CB01E6
:102230009F8F8E8F0FC088EC90E09D8F8C8F8C8D40
:102240009D8D0197F1F79D8F8C8F8E8D9F8D0197BE
:102250009F8F8E8F8E8D9F8D009769F724C068A108
:1022600079A18AA19BA10E944900DC01CB019F8F2B
:102270008E8F8E8D9F8D9B8F8A8F8A8D9B8D0197E0
:10228000F1F79B8F8A8F0FC069A57AA58BA59CA5B6
:102290000E944900DC01CB0188A788A5898F898D20
:1022A0008A95F1F7898FA5E3B0E0E5E3F0E080815E
:1022B0008F778C9380E090E0A6E9B3E48D8B9E8BC2
:1022C000AF8BB88F6D897E898F89988D2BEA3AEA1A
:1022D0004AE250E40E941F02DC01CB01898B9A8BF9
:1022E000AB8BBC8B69897A898B899C8920E030E033
:1022F00040E85FE30E94250488231CF481E0888B7A
:1023000091C069897A898B899C8920E030E04FE708
:1023100053E40E94C50318160CF07BC06D897E89BA
:102320008F89988D20E030E04AE754E40E94190339
:10233000DC01CB018C879D87AE87BF876C857D854F
:102340008E859F8520E030E04AEF54E40E941F0212
:10235000DC01CB0188879987AA87BB876885798547
:102360008A859B8520E030E040E85FE30E942504F9
:1023700088232CF481E090E09F838E833FC06885A2
:1023800079858A859B8520E03FEF4FE757E40E94DF
:10239000C50318164CF56C857D858E859F8520E0DC
:1023A00030E040E251E40E941F02DC01CB01BC019D
:1023B000CD010E944900DC01CB019F838E830FC0B9
:1023C00088EC90E09D838C838C819D810197F1F74F
:1023D0009D838C838E819F8101979F838E838E81C5
:1023E0009F81009769F724C0688579858A859B85D8
:1023F0000E944900DC01CB019F838E838E819F81E7
:102400009B838A838A819B810197F1F79B838A83CF
:102410000FC069897A898B899C890E944900DC01F7
:10242000CB01888B8889898389818A95F1F7898393
:10243000C75BDF4F0FB6F894DEBF0FBECDBFCF91A5
:10244000DF911F910F910895DF93CF93CDB7DEB742
:1024500064970FB6F894DEBF0FBECDBF8B8B6C8B2D
:1024600080E88F8780EC888B84E9898B84ED8A8B68
:102470008B89882F90E09C0121503040CE010F962F
:10248000FC01E20FF31F90818C89890F81500E941B
:102490007A0B80E090E0A0EAB1E48B879C87AD875F
:1024A000BE876B857C858D859E8520E030E04AEF78
:1024B00054E40E941F02DC01CB018F839887A98717
:1024C000BA876F81788589859A8520E030E040E879
:1024D0005FE30E94250488232CF481E090E09E8332
:1024E0008D833FC06F81788589859A8520E03FEF95
:1024F0004FE757E40E94C50318164CF56B857C85A1
:102500008D859E8520E030E040E251E40E941F026C
:10251000DC01CB01BC01CD010E944900DC01CB01F3
:102520009E838D830FC088EC90E09C838B838B818E
:102530009C810197F1F79C838B838D819E8101970C
:102540009E838D838D819E81009769F714C06F8172
:10255000788589859A850E944900DC01CB019E839C
:102560008D838D819E819A83898389819A81019748
:10257000F1F79A83898364960FB6F894DEBF0FBE95
:10258000CDBFCF91DF910895DF93CF93CDB7DEB765
:102590002A970FB6F894DEBF0FBECDBF9987888704
:1025A0006A87198286E0FE013296DF01982F1D921C
:1025B0009A95E9F7888599859E012E5F3F4FB9016D
:1025C0004AE050E00E947B27198215C08981982F2C
:1025D0009F5F8A85692F0E9424128981282F30E00D
:1025E000CE010296FC01E20FF31F80810E94CF0E04
:1025F00089818F5F89838981282F30E0CE010296FF
:10260000FC01E20FF31F8081882301F72A960FB6A1
:10261000F894DEBF0FBECDBFCF91DF910895DF9359
:10262000CF9300D00F92CDB7DEB79B838A831982F8
:102630000EC08981282F30E08A819B81FC01E20F46
:10264000F31F80810E94CF0E89818F5F89838981EA
:10265000282F30E08A819B81FC01E20FF31F8081EB
:10266000882339F70F900F900F90CF91DF91089545
:10267000DF93CF9300D000D0CDB7DEB79B838A83A2
:102680006C8319820EC08981282F30E08A819B815A
:10269000FC01E20FF31F80810E94CF0E89818F5FC2
:1026A000898399818C81981770F30F900F900F9008
:1026B0000F90CF91DF910895DF93CF93CDB7DEB721
:1026C000A6970FB6F894DEBF0FBECDBF81E00E9483
:1026D0007A0B80E090E0A0E0B0E48BA39CA3ADA3D4
:1026E000BEA36BA17CA18DA19EA12BEA3AEA4AE28E
:1026F00050E40E941F02DC01CB018F8F98A3A9A395
:10270000BAA36F8D78A189A19AA120E030E040E8BA
:102710005FE30E94250488231CF481E08E8F91C022
:102720006F8D78A189A19AA120E030E04FE753E4B2
:102730000E94C50318160CF07BC06BA17CA18DA173
:102740009EA120E030E04AE754E40E941903DC0136
:10275000CB018A8F9B8FAC8FBD8F6A8D7B8D8C8DCB
:102760009D8D20E030E04AEF54E40E941F02DC011E
:10277000CB018E8B9F8BA88FB98F6E897F89888DB7
:10278000998D20E030E040E85FE30E942504882333
:102790002CF481E090E09D8B8C8B3FC06E897F890B
:1027A000888D998D20E03FEF4FE757E40E94C503E5
:1027B00018164CF56A8D7B8D8C8D9D8D20E030E058
:1027C00040E251E40E941F02DC01CB01BC01CD01BB
:1027D0000E944900DC01CB019D8B8C8B0FC088ECE3
:1027E00090E09B8B8A8B8A899B890197F1F79B8B61
:1027F0008A8B8C899D8901979D8B8C8B8C899D8977
:10280000009769F724C06E897F89888D998D0E9411
:102810004900DC01CB019D8B8C8B8C899D89998B28
:10282000888B888999890197F1F7998B888B0FC0DC
:102830006F8D78A189A19AA10E944900DC01CB018A
:102840008E8F8E8D8F878F858A95F1F78F8780E0A9
:1028500090E0A0E2B1E48B879C87AD87BE876B8553
:102860007C858D859E8520E030E04AEF54E40E940F
:102870001F02DC01CB018F839887A987BA876F81FC
:10288000788589859A8520E030E040E85FE30E9402
:10289000250488232CF481E090E09E838D833FC043
:1028A0006F81788589859A8520E03FEF4FE757E46F
:1028B0000E94C50318164CF56B857C858D859E8519
:1028C00020E030E040E251E40E941F02DC01CB0135
:1028D000BC01CD010E944900DC01CB019E838D83A8
:1028E0000FC088EC90E09C838B838B819C81019747
:1028F000F1F79C838B838D819E8101979E838D83CD
:102900008D819E81009769F714C06F8178858985D4
:102910009A850E944900DC01CB019E838D838D81C5
:102920009E819A83898389819A810197F1F79A839D
:102930008983A6960FB6F894DEBF0FBECDBFCF91A8
:10294000DF910895DF93CF9300D000D0CDB7DEB7ED
:102950008A837C836B838A818830F8F48A81882F0C
:1029600090E00896880F991F880F991F880F991F6C
:102970000E947A0B19820EC08981282F30E08B814A
:102980009C81FC01E20FF31F80810E94CF0E8981A0
:102990008F5F89838981883078F30F900F900F9033
:1029A0000F90CF91DF910895DF93CF9300D000D0A7
:1029B000CDB7DEB79C838B831A821982EB81FC81B1
:1029C0008081807F8983898182958F7089838981C5
:1029D0008A3020F08981895C898303C08981805D88
:1029E000898389810E94CF0EEB81FC8180818F7069
:1029F0008A838A818A3020F08A81895C8A8303C035
:102A00008A81805D8A838A810E94CF0E0F900F9009
:102A10000F900F90CF91DF910895DF93CF93CDB7B3
:102A2000DEB76D970FB6F894DEBF0FBECDBF8D8FAA
:102A3000E8E3F0E08D8D8083A5E3B0E0E5E3F0E02E
:102A400080818F7B8C93A5E3B0E0E5E3F0E08081AB
:102A500080688C9380E090E0A0E8BFE3898F9A8F34
:102A6000AB8FBC8F698D7A8D8B8D9C8D20E030E093
:102A70004AEF54E40E941F02DC01CB018D8B9E8B38
:102A8000AF8BB88F6D897E898F89988D20E030E07B
:102A900040E85FE30E94250488232CF481E090E065
:102AA0009C8B8B8B3FC06D897E898F89988D20E0B0
:102AB0003FEF4FE757E40E94C50318164CF5698DA8
:102AC0007A8D8B8D9C8D20E030E040E251E40E94B5
:102AD0001F02DC01CB01BC01CD010E944900DC01D9
:102AE000CB019C8B8B8B0FC088EC90E09A8B898BF1
:102AF00089899A890197F1F79A8B898B8B899C89AF
:102B000001979C8B8B8B8B899C89009769F714C0EC
:102B10006D897E898F89988D0E944900DC01CB01E7
:102B20009C8B8B8B8B899C89988B8F878F859889C1
:102B30000197F1F7988B8F87A5E3B0E0E5E3F0E02C
:102B400080818F778C9380E090E0A0E8BFE38B8753
:102B50009C87AD87BE876B857C858D859E8520E0B3
:102B600030E04AEF54E40E941F02DC01CB018F8366
:102B70009887A987BA876F81788589859A8520E0AB
:102B800030E040E85FE30E94250488232CF481E0D4
:102B900090E09E838D833FC06F81788589859A857B
:102BA00020E03FEF4FE757E40E94C50318164CF5AD
:102BB0006B857C858D859E8520E030E040E251E488
:102BC0000E941F02DC01CB01BC01CD010E94490023
:102BD000DC01CB019E838D830FC088EC90E09C8349
:102BE0008B838B819C810197F1F79C838B838D81F3
:102BF0009E8101979E838D838D819E81009769F7C9
:102C000014C06F81788589859A850E944900DC010E
:102C1000CB019E838D838D819E819A838983898157
:102C20009A810197F1F79A8389836D960FB6F8948C
:102C3000DEBF0FBECDBFCF91DF910895DF93CF935D
:102C4000CDB7DEB72E970FB6F894DEBF0FBECDBF5F
:102C500080EC0E947A0B80E090E0A0EAB1E48B87E0
:102C60009C87AD87BE876B857C858D859E8520E0A2
:102C700030E04AEF54E40E941F02DC01CB018F8355
:102C80009887A987BA876F81788589859A8520E09A
:102C900030E040E85FE30E94250488232CF481E0C3
:102CA00090E09E838D833FC06F81788589859A856A
:102CB00020E03FEF4FE757E40E94C50318164CF59C
:102CC0006B857C858D859E8520E030E040E251E477
:102CD0000E941F02DC01CB01BC01CD010E94490012
:102CE000DC01CB019E838D830FC088EC90E09C8338
:102CF0008B838B819C810197F1F79C838B838D81E2
:102D00009E8101979E838D838D819E81009769F7B7
:102D100014C06F81788589859A850E944900DC01FD
:102D2000CB019E838D838D819E819A838983898146
:102D30009A810197F1F79A8389832E960FB6F894BA
:102D4000DEBF0FBECDBFCF91DF910895DF93CF934C
:102D5000CDB7DEB729970FB6F894DEBF0FBECDBF53
:102D600099878887198286E0FE013296DF01982FC5
:102D70001D929A95E9F7888599859E012E5F3F4FB0
:102D8000B9014AE050E00E947B2719820EC0898178
:102D9000282F30E0CE010296FC01E20FF31F808164
:102DA0000E94CF0E89818F5F89838981282F30E02F
:102DB000CE010296FC01E20FF31F8081882339F7D0
:102DC00029960FB6F894DEBF0FBECDBFCF91DF912D
:102DD0000895DF93CF93CDB7DEB70E944F0683EB04
:102DE0009EE10E94DE060E94A21ECF91DF9108950F
:102DF000DF93CF93CDB7DEB72F970FB6F894DEBF32
:102E00000FBECDBF8F878F85813029F480E690E09B
:102E10000E9490067BC08F85882309F077C087E6E3
:102E200090E00E94900672C080E090E0A0E8BFE3CE
:102E30008B879C87AD87BE876B857C858D859E85BE
:102E400020E030E04AEF54E40E941F02DC01CB0195
:102E50008F839887A987BA876F81788589859A85B6
:102E600020E030E040E85FE30E94250488232CF452
:102E700081E090E09E838D833FC06F817885898556
:102E80009A8520E03FEF4FE757E40E94C5031816EC
:102E90004CF56B857C858D859E8520E030E040E299
:102EA00051E40E941F02DC01CB01BC01CD010E9454
:102EB0004900DC01CB019E838D830FC088EC90E03C
:102EC0009C838B838B819C810197F1F79C838B83FF
:102ED0008D819E8101979E838D838D819E81009738
:102EE00069F714C06F81788589859A850E944900A9
:102EF000DC01CB019E838D838D819E819A838983A2
:102F000089819A810197F1F79A8389838EE690E00F
:102F10000E945C1E882339F485E790E00E945C1EC5
:102F2000882309F481CF2F960FB6F894DEBF0FBE29
:102F3000CDBFCF91DF910895DF93CF93CDB7DEB7AB
:102F40002F970FB6F894DEBF0FBECDBF8F878F854A
:102F5000813029F483E890E00E94900683C08F8539
:102F6000823029F481E990E00E9490067BC08F8531
:102F7000833009F077C08FE990E00E94900672C01C
:102F800080E090E0A0E8BFE38B879C87AD87BE8799
:102F90006B857C858D859E8520E030E04AEF54E48A
:102FA0000E941F02DC01CB018F839887A987BA8713
:102FB0006F81788589859A8520E030E040E85FE37D
:102FC0000E94250488232CF481E090E09E838D8369
:102FD0003FC06F81788589859A8520E03FEF4FE774
:102FE00057E40E94C50318164CF56B857C858D85CA
:102FF0009E8520E030E040E251E40E941F02DC01A7
:10300000CB01BC01CD010E944900DC01CB019E83B4
:103010008D830FC088EC90E09C838B838B819C8197
:103020000197F1F79C838B838D819E8101979E830D
:103030008D838D819E81009769F714C06F8178859B
:1030400089859A850E944900DC01CB019E838D838E
:103050008D819E819A83898389819A810197F1F775
:103060009A8389838EE690E00E945C1E882309F48F
:1030700087CF2F960FB6F894DEBF0FBECDBFCF918E
:10308000DF910895DF93CF93CDB7DEB72F970FB6BB
:10309000F894DEBF0FBECDBF8F878F85813029F4B6
:1030A0008DEA90E00E9490067BC08F85882309F00E
:1030B00077C08BEB90E00E94900672C080E090E0B9
:1030C000A0E8BFE38B879C87AD87BE876B857C8537
:1030D0008D859E8520E030E04AEF54E40E941F0277
:1030E000DC01CB018F839887A987BA876F817885A8
:1030F00089859A8520E030E040E85FE30E9425045E
:1031000088232CF481E090E09E838D833FC06F8103
:10311000788589859A8520E03FEF4FE757E40E9444
:10312000C50318164CF56B857C858D859E8520E042
:1031300030E040E251E40E941F02DC01CB01BC01FF
:10314000CD010E944900DC01CB019E838D830FC01D
:1031500088EC90E09C838B838B819C810197F1F7B5
:103160009C838B838D819E8101979E838D838D812E
:103170009E81009769F714C06F81788589859A854B
:103180000E944900DC01CB019E838D838D819E814D
:103190009A83898389819A810197F1F79A83898338
:1031A0008EE690E00E945C1E882309F487CF2F965C
:1031B0000FB6F894DEBF0FBECDBFCF91DF9108955B
:1031C000DF93CF93CDB7DEB72F970FB6F894DEBF5E
:1031D0000FBECDBF8F878F85882329F489EC90E0BF
:1031E0000E9490067BC08F85813009F077C088ED02
:1031F00090E00E94900672C080E090E0A0E8BFE3FB
:103200008B879C87AD87BE876B857C858D859E85EA
:1032100020E030E04AEF54E40E941F02DC01CB01C1
:103220008F839887A987BA876F81788589859A85E2
:1032300020E030E040E85FE30E94250488232CF47E
:1032400081E090E09E838D833FC06F817885898582
:103250009A8520E03FEF4FE757E40E94C503181618
:103260004CF56B857C858D859E8520E030E040E2C5
:1032700051E40E941F02DC01CB01BC01CD010E9480
:103280004900DC01CB019E838D830FC088EC90E068
:103290009C838B838B819C810197F1F79C838B832B
:1032A0008D819E8101979E838D838D819E81009764
:1032B00069F714C06F81788589859A850E944900D5
:1032C000DC01CB019E838D838D819E819A838983CE
:1032D00089819A810197F1F79A8389838EE690E03C
:1032E0000E945C1E882309F487CF2F960FB6F894AE
:1032F000DEBF0FBECDBFCF91DF910895DF93CF9397
:10330000CDB7DEB76D970FB6F894DEBF0FBECDBF59
:1033100087EE90E00E94900672C080E090E0A0E806
:10332000BFE3898F9A8FAB8FBC8F698D7A8D8B8D20
:103330009C8D20E030E04AEF54E40E941F02DC0143
:10334000CB018D8B9E8BAF8BB88F6D897E898F89DA
:10335000988D20E030E040E85FE30E942504882358
:103360002CF481E090E09C8B8B8B3FC06D897E8933
:103370008F89988D20E03FEF4FE757E40E94C50307
:1033800018164CF5698D7A8D8B8D9C8D20E030E080
:1033900040E251E40E941F02DC01CB01BC01CD01DF
:1033A0000E944900DC01CB019C8B8B8B0FC088EC09
:1033B00090E09A8B898B89899A890197F1F79A8B8A
:1033C000898B8B899C8901979C8B8B8B8B899C89A2
:1033D000009769F714C06D897E898F89988D0E9446
:1033E0004900DC01CB019C8B8B8B8B899C89988B52
:1033F0008F878F8598890197F1F7988B8F8786EF54
:1034000090E00E94841E882309F487CF80E090E03A
:10341000A8E4B2E48B879C87AD87BE876B857C85EB
:103420008D859E8520E030E04AEF54E40E941F0223
:10343000DC01CB018F839887A987BA876F81788554
:1034400089859A8520E030E040E85FE30E9425040A
:1034500088232CF481E090E09E838D833FC06F81B0
:10346000788589859A8520E03FEF4FE757E40E94F1
:10347000C50318164CF56B857C858D859E8520E0EF
:1034800030E040E251E40E941F02DC01CB01BC01AC
:10349000CD010E944900DC01CB019E838D830FC0CA
:1034A00088EC90E09C838B838B819C810197F1F762
:1034B0009C838B838D819E8101979E838D838D81DB
:1034C0009E81009769F714C06F81788589859A85F8
:1034D0000E944900DC01CB019E838D838D819E81FA
:1034E0009A83898389819A810197F1F79A838983E5
:1034F0008DEF90E00E945C1E882329F00E94A21E9E
:1035000081E08D8F03C00E94A21E1D8E8D8D6D9651
:103510000FB6F894DEBF0FBECDBFCF91DF910895F7
:10352000DF93CF93CDB7DEB762970FB6F894DEBFC7
:103530000FBECDBF988B8F877A8B698B82E091E02D
:103540000E9490068F8598890E9490068DE091E0F8
:103550000E94900689899A890E94900681E191E0F3
:103560000E94900672C080E090E0A0E8BFE38B87E5
:103570009C87AD87BE876B857C858D859E8520E089
:1035800030E04AEF54E40E941F02DC01CB018F833C
:103590009887A987BA876F81788589859A8520E081
:1035A00030E040E85FE30E94250488232CF481E0AA
:1035B00090E09E838D833FC06F81788589859A8551
:1035C00020E03FEF4FE757E40E94C50318164CF583
:1035D0006B857C858D859E8520E030E040E251E45E
:1035E0000E941F02DC01CB01BC01CD010E944900F9
:1035F000DC01CB019E838D830FC088EC90E09C831F
:103600008B838B819C810197F1F79C838B838D81C8
:103610009E8101979E838D838D819E81009769F79E
:1036200014C06F81788589859A850E944900DC01E4
:10363000CB019E838D838D819E819A83898389812D
:103640009A810197F1F79A83898385E191E00E943D
:103650005C1E882369F48AE491E00E945C1E882342
:1036600039F48EE690E00E945C1E882309F47BCF3B
:1036700062960FB6F894DEBF0FBECDBFCF91DF913B
:103680000895DF93CF93CDB7DEB762970FB6F89466
:10369000DEBF0FBECDBF988B8F877A8B698B8EE68E
:1036A00091E00E9490068F8598890E94900682E89A
:1036B00091E00E94900689899A890E94900685E887
:1036C00091E00E94900672C080E090E0A0E8BFE325
:1036D0008B879C87AD87BE876B857C858D859E8516
:1036E00020E030E04AEF54E40E941F02DC01CB01ED
:1036F0008F839887A987BA876F81788589859A850E
:1037000020E030E040E85FE30E94250488232CF4A9
:1037100081E090E09E838D833FC06F8178858985AD
:103720009A8520E03FEF4FE757E40E94C503181643
:103730004CF56B857C858D859E8520E030E040E2F0
:1037400051E40E941F02DC01CB01BC01CD010E94AB
:103750004900DC01CB019E838D830FC088EC90E093
:103760009C838B838B819C810197F1F79C838B8356
:103770008D819E8101979E838D838D819E8100978F
:1037800069F714C06F81788589859A850E94490000
:10379000DC01CB019E838D838D819E819A838983F9
:1037A00089819A810197F1F79A83898388E891E06A
:1037B0000E945C1E882309F487CF62960FB6F894A6
:1037C000DEBF0FBECDBFCF91DF910895DF93CF93C2
:1037D000CDB7DEB7C357D0400FB6F894DEBF0FBEEB
:1037E000CDBFFE01EE58FF4F9183808382E3FE013F
:1037F000BC96DF01982F1D929A95E9F7CE01825A67
:103800009F4F24E1FC01DF01822F1D928A95E9F789
:103810001BA600D000D000D0ADB7BEB71196CE0128
:103820008C9611969C938E9388E991E013969C93C5
:103830008E931297FE01EE58FF4F8081918115966D
:103840009C938E9314970E949C27ADB7BEB7169693
:103850000FB6F894BEBF0FBEADBFCE018C960E94CE
:103860004A278BA78BA5282F30E000D000D000D0AE
:10387000EDB7FEB73196CE01825A9F4F9183808378
:1038800089EC91E093838283358324830E949C2773
:103890008DB79EB706960FB6F8949EBF0FBE8DBF2C
:1038A000CE01825A9F4F0E94900672C080E090E045
:1038B000A0E8BFE38FA398A7A9A7BAA76FA178A58F
:1038C00089A59AA520E030E04AEF54E40E941F0247
:1038D000DC01CB018BA39CA3ADA3BEA36BA17CA1F8
:1038E0008DA19EA120E030E040E85FE30E94250426
:1038F00088232CF481E090E09AA389A33FC06BA1B8
:103900007CA18DA19EA120E03FEF4FE757E40E94EC
:10391000C50318164CF56FA178A589A59AA520E0D6
:1039200030E040E251E40E941F02DC01CB01BC0107
:10393000CD010E944900DC01CB019AA389A30FC0ED
:1039400088EC90E098A38F8F8F8D98A10197F1F765
:1039500098A38F8F89A19AA101979AA389A389A17E
:103960009AA1009769F714C06BA17CA18DA19EA1BB
:103970000E944900DC01CB019AA389A389A19AA1E5
:103980009E8F8D8F8D8D9E8D0197F1F79E8F8D8FE0
:1039900089ED91E00E945C1E882309F487CFCE0157
:1039A0008C960E94900672C080E090E0A0E8BFE391
:1039B000898F9A8FAB8FBC8F698D7A8D8B8D9C8D03
:1039C00020E030E04AEF54E40E941F02DC01CB010A
:1039D0008D8B9E8BAF8BB88F6D897E898F89988DEB
:1039E00020E030E040E85FE30E94250488232CF4C7
:1039F00081E090E09C8B8B8B3FC06D897E898F89A5
:103A0000988D20E03FEF4FE757E40E94C50318165A
:103A10004CF5698D7A8D8B8D9C8D20E030E040E2F5
:103A200051E40E941F02DC01CB01BC01CD010E94C8
:103A30004900DC01CB019C8B8B8B0FC088EC90E0A4
:103A40009A8B898B89899A890197F1F79A8B898B4F
:103A50008B899C8901979C8B8B8B8B899C89009788
:103A600069F714C06D897E898F89988D0E944900FD
:103A7000DC01CB019C8B8B8B8B899C89988B8F87EE
:103A80008F8598890197F1F7988B8F8782EE91E067
:103A90000E94841E882309F487CF80E090E0AAEF7B
:103AA000B3E48B879C87AD87BE876B857C858D85CE
:103AB0009E8520E030E04AEF54E40E941F02DC01C2
:103AC000CB018F839887A987BA876F81788589858D
:103AD0009A8520E030E040E85FE30E9425048823D7
:103AE0002CF481E090E09E838D833FC06F817885C8
:103AF00089859A8520E03FEF4FE757E40E94C50390
:103B000018164CF56B857C858D859E8520E030E010
:103B100040E251E40E941F02DC01CB01BC01CD0157
:103B20000E944900DC01CB019E838D830FC088EC8D
:103B300090E09C838B838B819C810197F1F79C8320
:103B40008B838D819E8101979E838D838D819E8144
:103B5000009769F714C06F81788589859A850E94DE
:103B60004900DC01CB019E838D838D819E819A83E8
:103B7000898389819A810197F1F79A8389830E94C9
:103B8000A21ECD58DF4F0FB6F894DEBF0FBECDBFDB
:103B9000CF91DF910895DF93CF93CDB7DEB72E9706
:103BA0000FB6F894DEBF0FBECDBF87EE91E00E9446
:103BB000900672C080E090E0A0E8BFE38B879C870E
:103BC000AD87BE876B857C858D859E8520E030E046
:103BD0004AEF54E40E941F02DC01CB018F839887D7
:103BE000A987BA876F81788589859A8520E030E03A
:103BF00040E85FE30E94250488232CF481E090E0F4
:103C00009E838D833FC06F81788589859A8520E06A
:103C10003FEF4FE757E40E94C50318164CF56B853C
:103C20007C858D859E8520E030E040E251E40E9455
:103C30001F02DC01CB01BC01CD010E944900DC0167
:103C4000CB019E838D830FC088EC90E09C838B8397
:103C50008B819C810197F1F79C838B838D819E8161
:103C600001979E838D838D819E81009769F714C093
:103C70006F81788589859A850E944900DC01CB0196
:103C80009E838D838D819E819A83898389819A8188
:103C90000197F1F79A8389838EE690E00E945C1E7B
:103CA000882309F487CF2E960FB6F894DEBF0FBE97
:103CB000CDBFCF91DF910895DF93CF9300D000D097
:103CC000CDB7DEB79B838A8319828A819B810E944C
:103CD0004A2789838981482F50E085EB92E02A8129
:103CE0003B81B9010E945327009729F40E94A21E2C
:103CF00081E08C8301C01C828C810F900F900F900B
:103D00000F90CF91DF910895DF93CF9300D00F9262
:103D1000CDB7DEB79A83898385EB92E029813A811A
:103D2000B9010E946127009729F00E94A21E81E03C
:103D30008B8301C01B828B810F900F900F90CF91CE
:103D4000DF910895DF93CF93CDB7DEB71092B20223
:103D500085EB92E060E070E04CE350E00E94432786
:103D6000CF91DF910895DF93CF930F92CDB7DEB758
:103D7000EFE5F0E080818983F8948091B202882F8A
:103D800090E0ECE2F0E02081FC01EB54FD4F208359
:103D90008091B2028F5F8093B2028091B2028C3325
:103DA00011F41092B202EFE5F0E0898180830F9068
:103DB000CF91DF9108950F931F93DF93CF93CDB7EA
:103DC000DEB7C558D0400FB6F894DEBF0FBECDBFEA
:103DD000FE01E258FF4F1082FE01E158FF4F1082B2
:103DE000FE01E058FF4F1082FE01EF57FF4F108297
:103DF000FE01E358FF4F81E08083FE01EB57FF4F48
:103E00001082FE01E558FF4F11821082FE01E75833
:103E1000FF4F11821082FE01EB58FF4F108211827A
:103E2000128213827894A1E3B0E0E1E3F0E08081B4
:103E300080628C930E942E080E94E9160E941D0742
:103E40000E945C1387EF91E00E940F13FE01E3597B
:103E5000FF4F80E090E0AAEFB4E480839183A283D7
:103E6000B3838E0107591F4FFE01E359FF4F608155
:103E700071818281938120E030E04AEF54E40E9416
:103E80001F02DC01CB01F80180839183A283B383FD
:103E9000FE01E759FF4F608171818281938120E0AB
:103EA00030E040E85FE30E942504882344F4FE01EB
:103EB000E959FF4F81E090E09183808364C0FE0167
:103EC000E759FF4F608171818281938120E03FEF4C
:103ED0004FE757E40E94C50318160CF043C0FE01DB
:103EE000E359FF4F608171818281938120E030E04E
:103EF00040E251E40E941F02DC01CB018E0109590E
:103F00001F4FBC01CD010E944900DC01CB01F8012B
:103F1000918380831FC0FE01EB59FF4F88EC90E036
:103F200091838083FE01EB59FF4F8081918101973E
:103F3000F1F7FE01EB59FF4F91838083DE01A95910
:103F4000BF4FFE01E959FF4F808191810197119682
:103F50009C938E93FE01E959FF4F808191810097D8
:103F6000D1F627C08E0109591F4FFE01E759FF4FB7
:103F700060817181828193810E944900DC01CB01C3
:103F8000F80191838083DE01AD59BF4FFE01E959ED
:103F9000FF4F808191818D939C93FE01ED59FF4FDE
:103FA000808191810197F1F7FE01ED59FF4F9183D7
:103FB000808380E00E94F81683E00E949C1780E0D6
:103FC0000E94421880E00E94E0180E942F0786EBB2
:103FD0000E94560780E20E9456070E94A6070E9490
:103FE0002F0787EB0E945607CE018B579F4F0E94E9
:103FF0008B070E94A607FE01E15AFF4F80E090E088
:10400000A8ECB2E480839183A283B3838E01055A26
:104010001F4FFE01E15AFF4F6081718182819381C0
:1040200020E030E04AEF54E40E941F02DC01CB01A3
:10403000F80180839183A283B383FE01E55AFF4F89
:10404000608171818281938120E030E040E85FE30C
:104050000E942504882344F4FE01E75AFF4F81E0C3
:1040600090E09183808364C0FE01E55AFF4F608138
:1040700071818281938120E03FEF4FE757E40E94F6
:10408000C50318160CF043C0FE01E15AFF4F6081D2
:1040900071818281938120E030E040E251E40E940E
:1040A0001F02DC01CB018E01075A1F4FBC01CD015D
:1040B0000E944900DC01CB01F801918380831FC07D
:1040C000FE01E95AFF4F88EC90E091838083FE0166
:1040D000E95AFF4F808191810197F1F7FE01E95A7A
:1040E000FF4F91838083DE01A75ABF4FFE01E75A3D
:1040F000FF4F80819181019711969C938E93FE01D1
:10410000E75AFF4F808191810097D1F627C08E0139
:10411000075A1F4FFE01E55AFF4F6081718182816E
:1041200093810E944900DC01CB01F80191838083D7
:10413000DE01AB5ABF4FFE01E75AFF4F80819181EC
:104140008D939C93FE01EB5AFF4F808191810197E3
:10415000F1F7FE01EB5AFF4F91838083FE01EF5A86
:10416000FF4F80E090E0AAE7B4E480839183A283CC
:10417000B3838E01035B1F4FFE01EF5AFF4F608137
:1041800071818281938120E030E04AEF54E40E9403
:104190001F02DC01CB01F80180839183A283B383EA
:1041A000FE01E35BFF4F608171818281938120E09A
:1041B00030E040E85FE30E942504882344F4FE01D8
:1041C000E55BFF4F81E090E09183808364C0FE0156
:1041D000E35BFF4F608171818281938120E03FEF3B
:1041E0004FE757E40E94C50318160CF043C0FE01C8
:1041F000EF5AFF4F608171818281938120E030E02E
:1042000040E251E40E941F02DC01CB018E01055BFC
:104210001F4FBC01CD010E944900DC01CB01F80118
:10422000918380831FC0FE01E75BFF4F88EC90E025
:1042300091838083FE01E75BFF4F8081918101972D
:10424000F1F7FE01E75BFF4F91838083DE01A55B01
:10425000BF4FFE01E55BFF4F808191810197119671
:104260009C938E93FE01E55BFF4F808191810097C7
:10427000D1F627C08E01055B1F4FFE01E35BFF4FA8
:1042800060817181828193810E944900DC01CB01B0
:10429000F80191838083DE01A95BBF4FFE01E55BDE
:1042A000FF4F808191818D939C93FE01E95BFF4FCD
:1042B000808191810197F1F7FE01E95BFF4F9183C6
:1042C00080830E942F0786EB0E94560780E00E94A1
:1042D00056070E94A6070E942F0787EB0E945607E9
:1042E000CE018B579F4F0E948B070E94A607FE01AD
:1042F000ED5BFF4F80E090E0AAE7B4E48083918318
:10430000A283B3838E01015C1F4FFE01ED5BFF4F63
:10431000608171818281938120E030E04AEF54E432
:104320000E941F02DC01CB01F80180839183A283EC
:10433000B383FE01FF96608171818281938120E0C9
:1043400030E040E85FE30E94250488232CF481E0FC
:1043500090E09EAF8DAF46C0FE01FF9660817181F7
:104360008281938120E03FEF4FE757E40E94C5032D
:10437000181664F5FE01ED5BFF4F6081718182814B
:10438000938120E030E040E251E40E941F02DC0112
:10439000CB01BC01CD010E944900DC01CB019EAFE5
:1043A0008DAF0FC088EC90E09CAF8BAF8BAD9CAD18
:1043B0000197F1F79CAF8BAF8DAD9EAD01979EAF8E
:1043C0008DAF8DAD9EAD009769F716C0FE01FF96CB
:1043D00060817181828193810E944900DC01CB015F
:1043E0009EAF8DAF8DAD9EAD9AAF89AF89AD9AADC1
:1043F0000197F1F79AAF89AF0E942F0786EB0E94D1
:10440000560784EF0E9456070E94A60780E090E0BE
:10441000AAE7B4E48DAB9EABAFABB8AF6DA97EA9F4
:104420008FA998AD20E030E04AEF54E40E941F02CB
:10443000DC01CB0189AB9AABABABBCAB69A97AA968
:104440008BA99CA920E030E040E85FE30E942504AE
:1044500088232CF481E090E098AB8FA73FC069A936
:104460007AA98BA99CA920E03FEF4FE757E40E946F
:10447000C50318164CF56DA97EA98FA998AD20E04B
:1044800030E040E251E40E941F02DC01CB01BC019C
:10449000CD010E944900DC01CB0198AB8FA70FC072
:1044A00088EC90E09EA78DA78DA59EA50197F1F7BA
:1044B0009EA78DA78FA598A9019798AB8FA78FA5C9
:1044C00098A9009769F714C069A97AA98BA99CA932
:1044D0000E944900DC01CB0198AB8FA78FA598A95A
:1044E0009CA78BA78BA59CA50197F1F79CA78BA7F1
:1044F0000E942F0786EB0E94560780E00E94560715
:104500000E94A6070E942F0787EB0E945607CE0144
:104510008B579F4F0E948B070E94A60780E090E078
:10452000AAE7B4E48FA398A7A9A7BAA76FA178A513
:1045300089A59AA520E030E04AEF54E40E941F02CA
:10454000DC01CB018BA39CA3ADA3BEA36BA17CA17B
:104550008DA19EA120E030E040E85FE30E942504A9
:1045600088232CF481E090E09AA389A33FC06BA13B
:104570007CA18DA19EA120E03FEF4FE757E40E9470
:10458000C50318164CF56FA178A589A59AA520E05A
:1045900030E040E251E40E941F02DC01CB01BC018B
:1045A000CD010E944900DC01CB019AA389A30FC071
:1045B00088EC90E098A38F8F8F8D98A10197F1F7E9
:1045C00098A38F8F89A19AA101979AA389A389A102
:1045D0009AA1009769F714C06BA17CA18DA19EA13F
:1045E0000E944900DC01CB019AA389A389A19AA169
:1045F0009E8F8D8F8D8D9E8D0197F1F79E8F8D8F64
:104600000E942F0786EB0E94560781E00E94560702
:1046100080E20E9456070E94A6070E945C1382E077
:1046200092E00E940F130E942F0786EB0E9456070C
:1046300080E00E9456070E94A6070E942F0787EB82
:104640000E945607CE018B579F4F0E948B070E94F6
:10465000A607FE01EB57FF4F8081883909F0F1C1B1
:10466000FE01E558FF4F11821082FE01E258FF4F14
:104670001082FE01E158FF4F1082FE01E058FF4F0B
:104680001082FE01EF57FF4F10820E942F0786EB2A
:104690000E94560782E00E9456070E94A6070E94C9
:1046A0002F0787EB0E945607CE0182589F4F0E942A
:1046B0006D07CE0181589F4F0E946D07CE01805833
:1046C0009F4F0E946D07CE018F579F4F0E946D072D
:1046D000CE018B579F4F0E946D07CE018E579F4F83
:1046E0000E946D07CE018D579F4F0E946D07CE012E
:1046F0008C579F4F0E948B070E94A607FE01E2582D
:10470000FF4F8081882F90E0982F8827FE01E55881
:10471000FF4F91838083FE01E158FF4F8081282F56
:1047200030E0DE01A558BF4FFE01E558FF4F808104
:104730009181820F931F8D939C93FE01E058FF4F50
:104740008081882F90E0982F8827FE01E758FF4F3F
:1047500091838083FE01EF57FF4F8081282F30E047
:10476000DE01A758BF4FFE01E758FF4F80819181BE
:10477000820F931F8D939C930E945C1388E092E0BC
:104780000E940F13FE01E558FF4F808191810E9426
:10479000A6160E941E168FE092E00E940F13FE01E3
:1047A000E758FF4F808191810E94A61687E192E031
:1047B0000E940F13FE01EB58FF4F808191810E94F0
:1047C000A616FE01E558FF4F808191819C0140E0D3
:1047D00050E0BE016F587F4FFE01EF58FF4F8081C0
:1047E0009181A281B381820F931FA41FB51FFB018A
:1047F00080839183A283B3839E012B583F4FFE0198
:10480000EB58FF4F80819181A281B3810196A11D58
:10481000B11DF90180839183A283B383FE01EB581C
:10482000FF4F80819181A281B3812AE530E040E091
:1048300050E0BC01CD010E94EA26DC01CB010097CB
:10484000A105B10509F0BCC0FE01E358FF4F80810E
:10485000882309F0B5C0FE01EF58FF4F8081918198
:10486000A281B3812AE530E040E050E0BC01CD01F7
:104870000E94EA26DA01C901FE01E558FF4F918343
:1048800080830E947E19882339F48DE192E027E22B
:1048900032E0B9010E94901A80E392E023E432E012
:1048A000B9010E94411BFE01E558FF4F80819181B3
:1048B0000E94E61B0E945C1386E492E00E940F13A4
:1048C00080E090E8ABE3B5E4898F9A8FAB8FBC8F23
:1048D000698D7A8D8B8D9C8D20E030E04AEF54E419
:1048E0000E941F02DC01CB018D8B9E8BAF8BB88F9A
:1048F0006D897E898F89988D20E030E040E85FE304
:104900000E94250488232CF481E090E09C8B8B8B03
:104910003FC06D897E898F89988D20E03FEF4FE7FA
:1049200057E40E94C50318164CF5698D7A8D8B8D5E
:104930009C8D20E030E040E251E40E941F02DC0147
:10494000CB01BC01CD010E944900DC01CB019C8B55
:104950008B8B0FC088EC90E09A8B898B89899A8920
:104960000197F1F79A8B898B8B899C8901979C8B96
:104970008B8B8B899C89009769F714C06D897E8920
:104980008F89988D0E944900DC01CB019C8B8B8B19
:104990008B899C89988B8F878F8598890197F1F7F0
:1049A000988B8F87FE01EB58FF4F10821182128285
:1049B0001382FE01EF58FF4F108211821282138280
:1049C000FE01E358FF4F80818130D9F50E945C13CE
:1049D00085E592E00E940F130E941E1683E692E086
:1049E0000E940F13FE01EB58FF4F2081318184E0BC
:1049F00090E0821B930B0E94A616FE01EB58FF4F1E
:104A000080819181A281B38184309105A105B10596
:104A1000C0F0FE01EB58FF4F108211821282138208
:104A2000FE01EF58FF4F1082118212821382FE01A5
:104A3000E358FF4F10820E945C1381E792E00E94CE
:104A40000F1380E090E0AAEFB4E48B879C87AD87DA
:104A5000BE876B857C858D859E8520E030E04AEFA2
:104A600054E40E941F02DC01CB018F839887A98741
:104A7000BA876F81788589859A8520E030E040E8A3
:104A80005FE30E94250488232CF481E090E09E835C
:104A90008D833FC06F81788589859A8520E03FEFBF
:104AA0004FE757E40E94C50318164CF56B857C85CB
:104AB0008D859E8520E030E040E251E40E941F0297
:104AC000DC01CB01BC01CD010E944900DC01CB011E
:104AD0009E838D830FC088EC90E09C838B838B81B9
:104AE0009C810197F1F79C838B838D819E81019737
:104AF0009E838D838D819E81009769F794CD6F8110
:104B0000788589859A850E944900DC01CB019E83C6
:104B10008D838D819E819A83898389819A81019772
:104B2000F1F79A8389837FCDDF93CF93CDB7DEB73B
:104B30002E970FB6F894DEBF0FBECDBF87E792E089
:104B40000E94900680E090E0AAEFB4E48B879C87F7
:104B5000AD87BE876B857C858D859E8520E030E0A6
:104B60004AEF54E40E941F02DC01CB018F83988737
:104B7000A987BA876F81788589859A8520E030E09A
:104B800040E85FE30E94250488232CF481E090E054
:104B90009E838D833FC06F81788589859A8520E0CB
:104BA0003FEF4FE757E40E94C50318164CF56B859D
:104BB0007C858D859E8520E030E040E251E40E94B6
:104BC0001F02DC01CB01BC01CD010E944900DC01C8
:104BD000CB019E838D830FC088EC90E09C838B83F8
:104BE0008B819C810197F1F79C838B838D819E81C2
:104BF00001979E838D838D819E81009769F714C0F4
:104C00006F81788589859A850E944900DC01CB01F6
:104C10009E838D838D819E819A83898389819A81E8
:104C20000197F1F79A83898382E02E960FB6F89464
:104C3000DEBF0FBECDBFCF91DF910895DF93CF933D
:104C400000D00F92CDB7DEB78A836B8319828A8139
:104C5000282F30E08B81482F50E0C901880F991F21
:104C6000820F931F840F951FFC01ED55FD4F80812E
:104C7000898389810F900F900F90CF91DF910895D4
:104C8000DF93CF93CDB7DEB72E970FB6F894DEBF84
:104C90000FBECDBF89E892E00E94900680E090E0D0
:104CA000AAEFB4E48B879C87AD87BE876B857C8534
:104CB0008D859E8520E030E04AEF54E40E941F027B
:104CC000DC01CB018F839887A987BA876F817885AC
:104CD00089859A8520E030E040E85FE30E94250462
:104CE00088232CF481E090E09E838D833FC06F8108
:104CF000788589859A8520E03FEF4FE757E40E9449
:104D0000C50318164CF56B857C858D859E8520E046
:104D100030E040E251E40E941F02DC01CB01BC0103
:104D2000CD010E944900DC01CB019E838D830FC021
:104D300088EC90E09C838B838B819C810197F1F7B9
:104D40009C838B838D819E8101979E838D838D8132
:104D50009E81009769F714C06F81788589859A854F
:104D60000E944900DC01CB019E838D838D819E8151
:104D70009A83898389819A810197F1F79A8389833C
:104D800081E02E960FB6F894DEBF0FBECDBFCF9157
:104D9000DF910895DF93CF9300D00F92CDB7DEB7A8
:104DA0001B828B81882F90E0880F991FFC01E455AE
:104DB000FD4F808191819A838983E981FA810995E8
:104DC0008093F1029091F1028B81692F0E941E263F
:104DD0008B83E7CFA1E21A2EAA1BBB1BFD010DC0DE
:104DE000AA1FBB1FEE1FFF1FA217B307E407F5079B
:104DF00020F0A21BB30BE40BF50B661F771F881F77
:104E0000991F1A9469F760957095809590959B010C
:104E1000AC01BD01CF0108952F923F924F925F9256
:104E20006F927F928F929F92AF92BF92CF92DF92BA
:104E3000EF92FF920F931F93CF93DF93CDB7DEB71F
:104E4000CA1BDB0B0FB6F894DEBF0FBECDBF0994B3
:104E50002A88398848885F846E847D848C849B840A
:104E6000AA84B984C884DF80EE80FD800C811B8118
:104E7000AA81B981CE0FD11D0FB6F894DEBF0FBE47
:104E8000CDBFED010895DC0101C06D93415050404C
:104E9000E0F70895FC0101900020E9F780959095D6
:104EA0008E0F9F1F0895FB01DC014150504030F0F0
:104EB0008D910190801919F40020B9F7881B990B86
:104EC0000895FB0151915523A9F0BF01DC014D91DB
:104ED00045174111E1F759F4CD010190002049F047
:104EE0004D9140154111C9F3FB014111EFCF81E014
:104EF00090E001970895FB019F01E8944230C4F0CF
:104F00004532B4F44A3029F497FB1EF4909581950C
:104F10009F4F642F77270E944D2A805D8A330CF0C3
:104F2000895D8193CB010097A1F716F45DE251935F
:104F30001082C9010C94B329AEE0B0E0E2EAF7E2D6
:104F40000C941A270D891E8986E08C831A830983A5
:104F50008FEF9FE79E838D839E01275E3F4FCE019B
:104F600001966F89788DA9010E94C0272F8138850D
:104F7000020F131FF80110822E96E4E00C943627DE
:104F8000ABE0B0E0E6ECF7E20C940C273C012B011F
:104F90005A01FC0117821682838181FD03C06FEFE5
:104FA0007FEFC6C19AE0892E1E010894211C311C96
:104FB000F3012381F20123FD859123FF81912F01CC
:104FC000882309F4B2C1853239F423FD859123FF8A
:104FD00081912F01853229F490E0B3010E94C32909
:104FE000E7CF982FFF24EE249924FFE1FF15D0F09E
:104FF0009B3269F09C3228F4903259F0933291F44C
:105000000EC09D3249F0903369F441E024C052E073
:10501000F52A84E0F82A28C098E0F92A25C0E0E1C2
:10502000FE2A22C0F7FC29C0892F80538A3070F4F1
:10503000F6FE05C0989C902C1124980E15C0E89C93
:10504000E02C1124E80EF0E2FF2A0EC09E3229F473
:10505000F6FC6BC140E4F42A07C09C3619F450E812
:10506000F52A02C0983649F4F20123FD959123FFF9
:1050700091912F01992309F0B8CF892F855483305E
:1050800018F08052833038F444E050E0A40EB51E8E
:105090005FE359830FC0933631F0933779F093353E
:1050A00009F056C020C0F5018081898342E050E0BC
:1050B000A40EB51E610101E010E012C0F501C08030
:1050C000D180F6FC03C06FEF7FEF02C0692D70E066
:1050D00042E050E0A40EB51EC6010E94A8298C0132
:1050E0005FE7F52214C0F501C080D180F6FC03C053
:1050F0006FEF7FEF02C0692D70E042E050E0A40E38
:10510000B51EC6010E949D298C0150E8F52AF3FEC8
:1051100007C01AC080E290E0B3010E94C329EA945C
:105120008E2D90E008171907A8F30EC0F601F7FCC2
:105130008591F7FE81916F0190E0B3010E94C32930
:10514000E110EA94015010400115110579F7EAC009
:10515000943611F0993669F5F7FE08C0F501208103
:1051600031814281538184E090E00AC0F501808161
:1051700091819C01442737FD4095542F82E090E0B7
:10518000A80EB91E9FE6F92257FF09C05095409519
:10519000309521953F4F4F4F5F4FE0E8FE2ACA01FF
:1051A000B901A1012AE030E00E94EF29D82ED218DF
:1051B00040C0953729F41F2D1F7E2AE030E01DC026
:1051C0001F2D197F9F3661F0903720F4983509F034
:1051D000ACC00FC0903739F0983709F0A6C004C0B2
:1051E00028E030E00AC0106114FD146020E130E0D6
:1051F00004C014FD166020E132E017FF08C0F5017D
:10520000608171818281938144E050E008C0F501A2
:1052100080819181BC0180E090E042E050E0A40EEA
:10522000B51EA1010E94EF29D82ED2188FE7F82EC3
:10523000F122F6FE0BC05EEFF522D91438F4F4FE2D
:1052400007C0F2FC05C08FEEF82202C01D2D01C080
:10525000192DF4FE0DC0FE01ED0DF11D808180338E
:1052600019F499EEF92208C01F5FF2FE05C003C0D1
:105270008F2D867809F01F5F0F2DF3FC14C0F0FE10
:105280000FC01E1510F09D2C0BC09D2C9E0C911A6A
:105290001E2D06C080E290E0B3010E94C3291F5F6B
:1052A0001E15C0F304C01E1510F4E11A01C0EE244F
:1052B00004FF0FC080E390E0B3010E94C32902FF06
:1052C0001DC001FD03C088E790E00EC088E590E0B6
:1052D0000BC0802F867891F001FF02C08BE201C0E5
:1052E00080E2F7FC8DE290E0B3010E94C32906C082
:1052F00080E390E0B3010E94C3299A94D914C0F3CB
:10530000DA94F101ED0DF11D808190E0B3010E946E
:10531000C329DD20A9F706C080E290E0B3010E9416
:10532000C329EA94EE20C1F743CEF3016681778169
:10533000CB012B96E2E10C942827FC0105906150EB
:1053400070400110D8F7809590958E0F9F1F08959B
:10535000FC016150704001900110D8F78095909544
:105360008E0F9F1F0895DC01FC01672F7191772339
:10537000E1F7329704C07C916D9370836291AE1710
:10538000BF07C8F308950F931F93CF93DF938C014A
:10539000EB018B8181FF1BC082FF0DC02E813F81FD
:1053A0008C819D812817390764F4E881F981019384
:1053B000F983E88306C0E885F985802F0995892B54
:1053C00031F48E819F8101969F838E8302C00FEFFF
:1053D0001FEFC801DF91CF911F910F910895FA013E
:1053E000AA27283051F1203181F1E8946F936E7F24
:1053F0006E5F7F4F8F4F9F4FAF4FB1E03ED0B4E015
:105400003CD0670F781F891F9A1FA11D680F791F55
:105410008A1F911DA11D6A0F711D811D911DA11D66
:1054200020D009F468943F912AE0269F1124301976
:10543000305D3193DEF6CF010895462F4770405D11
:105440004193B3E00FD0C9F7F6CF462F4F70405DC0
:105450004A3318F0495D31FD4052419302D0A9F71B
:10546000EACFB4E0A6959795879577956795BA9515
:10547000C9F700976105710508959B01AC010A2EDB
:1054800006945795479537952795BA95C9F7620FB2
:10549000731F841F951FA01D0895AA1BBB1B51E1FC
:1054A00007C0AA1FBB1FA617B70710F0A61BB70B94
:1054B000881F991F5A95A9F780959095BC01CD0139
:0654C0000895F894FFCFEF
:1054C600415445310D0A00415445300D0A000D0A7C
:1054D6004F4B0D0A00415445300D0D0A0D0A4F4B36
:1054E6000D0A0041542B43574D4F44453D310D0A9B
:1054F6000041542B43574D4F44453D320D0A004160
:10550600542B43574D4F44453D330D0A0041542B10
:105516004349504D55583D310D0A0041542B4349DE
:10552600504D55583D300D0A0041542B4349504DBE
:105536004F44453D300D0A0041542B4349504D4FD1
:1055460044453D310D0A0041542B434950535441C3
:105556005455530D0A00535441545553003A320DD5
:105566000A0041542B43574A41503D2200222C2227
:1055760000220D0A005749464920444953434F4EDD
:105586004E4543540D0A5749464920434F4E4E4512
:10559600435445440D0A5749464920474F5420492C
:1055A600500D0A0D0A4F4B0D0A0057494649204334
:1055B6004F4E4E45435445440D0A574946492047E8
:1055C6004F542049500D0A0D0A4F4B0D0A00415405
:1055D6002B43495053544152543D22544350222C9C
:1055E6002200222C000D0A00434F4E4E4543540D17
:1055F6000A0D0A4F4B0D0A00474554202F7570645B
:105606006174653F6170695F6B65793D5344354FE1
:10561600424434394E3548344F3852592666696506
:105626006C64323D25640D0A0041542B43495053A6
:10563600454E443D25640D0A000D0A4F4B0D0A3EAA
:1056460020002B4950440041542B434950434C4FB2
:1056560053453D300D0A00496E69742073746174B8
:105666006500537461727400434F32203D2000542C
:10567600564F43203D2000202020693A004236380C
:105686004C2D3733454500374246333236304500D8
:105696006170692E7468696E67737065616B2E63DD
:1056A6006F6D00383000446F6E652055506C6F6129
:1056B60064696E67004E6F74205265616479205983
:1056C600657400506C6561736520576169742020AC
:1056D600005265616479004F7065726174696F6E1E
:1056E6002073746174650D0A005465726D696E618C
:1056F60074652073746174650D0A00000000000073
:10570600000000000102000102000102DB1E9425D8
:0257160040262B
:00000001FF
