:100000000C942A000C9447000C9447000C94470071
:100010000C9447000C9429130C9447000C9447004F
:100020000C9447000C9447000C9447000C94470034
:100030000C9447000C9447000C9447000C94470024
:100040000C9447000C9447000C9447000C94470014
:100050000C94470011241FBECFE5D8E0DEBFCDBF12
:1000600012E0A0E6B0E0EEEAF1E702C005900D92E2
:10007000A835B107D9F712E0A8E5B2E001C01D929A
:10008000A739B107E1F70E94F8370C94D5380C94E2
:100090000000EF92FF920F931F937B018C0120E0F1
:1000A00030E040E05FE40E94F50388238CF0C80153
:1000B000B70120E030E040E05FE40E94C1010E940F
:1000C00055049B01AC01205030404040504806C0D0
:1000D000C801B7010E9455049B01AC01B901CA01D6
:1000E0001F910F91FF90EF900895A0E0B0E0EBE733
:1000F000F0E00C946D38DC012B01FA019C919230F8
:1001000008F439C1EB018881823008F433C194309E
:1001100069F4843009F02FC111969C91119789815F
:10012000981709F428C1A4E3B2E025C1843009F48A
:1001300021C18230A9F4923009F01DC19A01AD01AC
:1001400088E0EA010990AE01E90109929E0181501F
:10015000C1F7E201898111969C918923818308C1AD
:10016000923009F407C112962D903C901397EB0141
:100170008A819B811496AD90BD90CD90DC901797AD
:10018000EC80FD800E811F819101281B390BB90184
:1001900037FF04C066277727621B730B6032710537
:1001A0000CF061C0121613066CF537014801062EDB
:1001B00004C096948794779467940A94D2F721E0C8
:1001C00030E040E050E004C0220F331F441F551FB1
:1001D0006A95D2F721503040404050402E213F21B7
:1001E00040235123211531054105510521F021E01E
:1001F00030E040E050E079018A01E628F72808293C
:1002000019293CC0232BD1F1260E371E350146019A
:10021000062E04C096948794779467940A94D2F734
:1002200021E030E040E050E004C0220F331F441FC3
:10023000551F6A95D2F721503040404050402A2146
:100240003B214C215D21211531054105510521F04E
:1002500021E030E040E050E059016A01A628B728CB
:10026000C828D9280BC0821593052CF01C01AA249C
:10027000BB24650103C0EE24FF24870111969C91E5
:10028000D20111968C91981709F445C0992339F041
:10029000A80197012A193B094C095D0906C0A6016E
:1002A00095012E193F09400B510B57FD08C01182D3
:1002B0003382228224833583468357831DC081E0A5
:1002C00081833382228288279927DC01821B930B4A
:1002D000A40BB50B84839583A683B7830DC0220F2F
:1002E000331F441F551F24833583468357838281E0
:1002F000938101979383828324813581468157813D
:10030000DA01C9010197A109B1098F5F9F4FAF4F72
:10031000BF4328F30BC0918333822282EA0CFB1C7B
:100320000C1D1D1DE482F5820683178383E0808304
:10033000248135814681578157FF1AC0C901AA27F8
:1003400097FDA095BA2F81709070A070B0705695EF
:10035000479537952795822B932BA42BB52B848318
:100360009583A683B7838281938101969383828349
:10037000DF0101C0D201CD01CDB7DEB7E2E10C94BF
:100380008938A0E2B0E0E7ECF1E00C9479386983B9
:100390007A838B839C832D833E834F835887E9E048
:1003A000EE2EF12CEC0EFD1ECE010196B7010E943F
:1003B0007E058E010F5E1F4FCE010596B8010E948B
:1003C0007E058A8991E089278A8BC701B801AE0131
:1003D000475E5F4F0E9475000E94A904A096E6E068
:1003E0000C949538A0E2B0E0E8EFF1E00C94793895
:1003F00069837A838B839C832D833E834F835887C5
:10040000F9E0EF2EF12CEC0EFD1ECE010196B701A6
:100410000E947E058E010F5E1F4FCE010596B8012A
:100420000E947E05C701B801AE01475E5F4F0E9482
:1004300075000E94A904A096E6E00C949538A0E20D
:10044000B0E0E5E2F2E00C946D3869837A838B8347
:100450009C832D833E834F835887CE010196BE0136
:10046000675F7F4F0E947E05CE010596BE016F5EDD
:100470007F4F0E947E059985923088F0898982306D
:10048000C8F0943019F4823051F404C0843029F457
:10049000923081F484E392E0C6C0923049F420E0C7
:1004A0009A858A89981321E02A87CE010996BBC0D4
:1004B000823049F420E09A858A89981321E02A8BBA
:1004C000CE014196B0C02D843E844F8458886D88FB
:1004D0007E888F88988CEE24FF248701AA24BB2471
:1004E000650140E050E060E070E0E0E0F0E0C10174
:1004F00081709070892BE9F0E60CF71C081D191D1E
:100500009A01AB012A0D3B1D4C1D5D1D80E090E062
:10051000A0E0B0E0E614F7040805190520F481E036
:1005200090E0A0E0B0E0BA01A901480F591F6A1F8E
:100530007B1FAA0CBB1CCC1CDD1C97FE08C081E0F5
:1005400090E0A0E0B0E0A82AB92ACA2ADB2A3196B6
:10055000E032F10549F0660C771C881C991C569412
:10056000479437942794C3CFFA85EA892B893C892D
:100570008B859C85280F391F2E5F3F4F17C0CA01FE
:1005800081709070892B61F016950795F794E79428
:1005900080E090E0A0E0B0E8E82AF92A0A2B1B2BC3
:1005A00076956795579547952F5F3F4F77FDE7CF36
:1005B0000CC0440F551F661F771F17FD4160EE0CDE
:1005C000FF1C001F111F21503040403090E05907A0
:1005D00090E0690790E4790760F32B8F3C8FDB0193
:1005E000CA018F779070A070B07080349105A1051A
:1005F000B10561F447FD0AC0E114F10401051105DC
:1006000029F0405C5F4F6F4F7F4F40781A8EFE1786
:1006100011F081E08A8F4D8F5E8F6F8F78A383E01A
:10062000898FCE0149960E94A904A096E2E10C941C
:100630008938A8E1B0E0EFE1F3E00C947538698304
:100640007A838B839C832D833E834F835887B9E0C5
:10065000EB2EF12CEC0EFD1ECE010196B7010E948F
:100660007E058E010F5E1F4FCE010596B8010E94D8
:100670007E052985223008F47EC03989323010F495
:10068000B8017CC08A859A8989278A87243011F02D
:10069000223031F4231709F06EC064E372E06EC0BB
:1006A000343039F41D861E861F86188A1C861B86E8
:1006B00004C0323021F484E08987B7015FC02B8504
:1006C0003C858B899C89281B390B3C872B87ED84C3
:1006D000FE840F851889AD88BE88CF88D88CEA142F
:1006E000FB040C051D0540F4EE0CFF1C001F111F40
:1006F000215030403C872B8720E030E040E050E044
:1007000080E090E0A0E0B0E460E070E0EA14FB0478
:100710000C051D0540F0282B392B4A2B5B2BEA18C2
:10072000FB080C091D09B695A79597958795EE0CC2
:10073000FF1C001F111F6F5F7F4F6F31710531F775
:10074000DA01C9018F779070A070B0708034910584
:10075000A105B10561F427FD0AC0E114F10401050A
:10076000110529F0205C3F4F4F4F5F4F20782D87B8
:100770003E874F87588BBE01675F7F4FCB010E943A
:10078000A9046896EAE00C949138A8E1B0E0EBEC9B
:10079000F3E00C94793869837A838B839C832D836F
:1007A0003E834F83588789E0E82EF12CEC0EFD1E26
:1007B000CE010196B7010E947E058E010F5E1F4F8C
:1007C000CE010596B8010E947E058985823040F0F1
:1007D0008989823028F0C701B8010E94F60501C05E
:1007E0008FEF6896E6E00C949538A8E1B0E0EBEF67
:1007F000F3E00C94793869837A838B839C832D830F
:100800003E834F83588789E0E82EF12CEC0EFD1EC5
:10081000CE010196B7010E947E058E010F5E1F4F2B
:10082000CE010596B8010E947E058985823040F090
:100830008989823028F0C701B8010E94F60501C0FD
:100840008FEF6896E6E00C949538A8E1B0E0EBE213
:10085000F4E00C94793869837A838B839C832D83AD
:100860003E834F83588789E0E82EF12CEC0EFD1E65
:10087000CE010196B7010E947E058E010F5E1F4FCB
:10088000CE010596B8010E947E058985823040F030
:100890008989823028F0C701B8010E94F60501C09D
:1008A00081E06896E6E00C949538ACE0B0E0EBE5CA
:1008B000F4E00C947D3869837A838B839C83CE012A
:1008C0000196BE016B5F7F4F0E947E058D81823055
:1008D00061F1823050F1843021F48E81882351F10E
:1008E0002EC02F81388537FD20C06E812F31310514
:1008F0001CF06623F9F023C08EE190E0821B930B7D
:1009000029853A854B855C8504C056954795379572
:1009100027958A95D2F76623B1F05095409530958A
:1009200021953F4F4F4F5F4F0EC020E030E040E039
:1009300050E009C02FEF3FEF4FEF5FE704C020E02A
:1009400030E040E050E8B901CA012C96E2E00C9496
:100950009938DF92EF92FF920F931F93FC01E4808E
:10096000F58006811781D1808081823048F480E053
:1009700090E0A0E1B0E0E82AF92A0A2B1B2BA5C0E1
:10098000843009F49FC0823021F4EE24FF248701D3
:1009900005C0E114F1040105110519F4E0E0F0E0EF
:1009A00096C0628173819FEF623879070CF05BC05B
:1009B00022E83FEF261B370B2A3131052CF020E0CF
:1009C00030E040E050E02AC0B801A701022E04C088
:1009D00076956795579547950A94D2F781E090E010
:1009E000A0E0B0E004C0880F991FAA1FBB1F2A9582
:1009F000D2F70197A109B1098E219F21A023B1232C
:100A00000097A105B10521F081E090E0A0E0B0E001
:100A10009A01AB01282B392B4A2B5B2BDA01C90138
:100A20008F779070A070B07080349105A105B105EA
:100A300039F427FF09C0205C3F4F4F4F5F4F04C080
:100A4000215C3F4F4F4F5F4FE0E0F0E02030A0E0EF
:100A50003A07A0E04A07A0E45A0710F0E1E0F0E00E
:100A600079018A0127C06038710564F5FB01E158FE
:100A7000FF4FD801C7018F779070A070B07080349D
:100A80009105A105B10539F4E7FE0DC080E490E0C1
:100A9000A0E0B0E004C08FE390E0A0E0B0E0E80E9A
:100AA000F91E0A1F1B1F17FF05C016950795F7941F
:100AB000E794319687E016950795F794E7948A9521
:100AC000D1F705C0EE24FF248701EFEFF0E06E2F91
:100AD000679566276795902F9F77D794DD24D794E5
:100AE0008E2F8695492F462B582F5D29B701CA01B5
:100AF0001F910F91FF90EF90DF900895FC01DB01B3
:100B0000408151812281622F6F7770E0221F22275E
:100B1000221F9381892F880F822B282F30E0991F65
:100B20009927991F11969C93119721153105A9F5C5
:100B3000411551056105710511F482E037C082E865
:100B40009FEF13969C938E9312979A01AB0167E0E7
:100B5000220F331F441F551F6A95D1F783E08C93F2
:100B60000DC0220F331F441F551F12968D919C916B
:100B70001397019713969C938E931297203080E0E1
:100B8000380780E0480780E4580758F314962D93FF
:100B90003D934D935C93179708952F3F310579F45A
:100BA000411551056105710519F484E08C93089590
:100BB00064FF03C081E08C9312C01C9210C02F57B9
:100BC000304013963C932E93129783E08C9387E0EA
:100BD000440F551F661F771F8A95D1F770641496CE
:100BE0004D935D936D937C93179708951F93DC014C
:100BF000FB019C91923008F447C08081823008F458
:100C000043C0943051F411961C91843099F5818140
:100C1000682F70E0611B71093FC0843021F0923071
:100C200031F48230B9F18181882389F12DC0119688
:100C30001C9111978230F1F081811817D9F4129626
:100C40002D913C911397828193818217930794F0A1
:100C500028173907BCF014968D919D910D90BC9189
:100C6000A02D2481358146815781281739074A07ED
:100C70005B0718F4112341F00AC082179307A407F9
:100C8000B50740F4112319F061E070E005C06FEF83
:100C90007FEF02C060E070E0CB011F910895DF9309
:100CA000CF930F92CDB7DEB7898381E6698140E0AB
:100CB0000E94E207A6E2B0E0E6E2F0E08081876011
:100CC0008C93A6E2B0E0E6E2F0E0808180688C934D
:100CD0000F90CF91DF910895DF93CF930F92CDB70F
:100CE000DEB7898389810E944F06E7E2F0E08981BF
:100CF0008083A7E2B0E0E7E2F0E0808180648C933B
:100D0000A7E2B0E0E7E2F0E080818F7D8C93A6E27D
:100D1000B0E0E6E2F0E0808180648C93E6E2F0E00F
:100D20008081882F90E0807190700097B9F3A6E2DF
:100D3000B0E0E6E2F0E0808180618C93E4E2F0E0F4
:100D4000808191810F90CF91DF910895DF93CF93B0
:100D500000D000D00F92CDB7DEB78A836B8381E0DD
:100D600089838A81282F30E03D832C838C819D816B
:100D70008434910509F43FC02C813D81253431052F
:100D800084F48C819D818234910559F12C813D81BF
:100D9000233431055CF58C819D8181349105E1F02E
:100DA0002FC02C813D8122363105D9F08C819D8167
:100DB0008336910534F42C813D812136310561F073
:100DC0001FC08C819D818336910581F02C813D81EE
:100DD0002436310581F014C0EAE3F0E08B81808392
:100DE00011C0E7E3F0E08B8180830CC0E4E3F0E026
:100DF0008B81808307C0E1E3F0E08B81808302C0B8
:100E00008FEF898389810F900F900F900F900F9033
:100E1000CF91DF910895DF93CF9300D000D00F9250
:100E2000CDB7DEB78A836B8381E089838A81282FDF
:100E300030E03D832C838C819D818434910509F4BD
:100E40004BC02C813D812534310584F48C819D81FA
:100E50008234910579F12C813D81233431059CF553
:100E60008C819D8181349105E1F03FC02C813D81D1
:100E700022363105F9F08C819D818336910534F459
:100E80002C813D812136310561F02FC08C819D81FF
:100E900083369105C1F02C813D8124363105E1F086
:100EA00024C0ABE3B0E0EBE3F0E090818B81892BD1
:100EB0008C931DC0A8E3B0E0E8E3F0E090818B8163
:100EC000892B8C9314C0A5E3B0E0E5E3F0E09081BA
:100ED0008B81892B8C930BC0A2E3B0E0E2E3F0E0BE
:100EE00090818B81892B8C9302C08FEF89838981BC
:100EF0000F900F900F900F900F90CF91DF9108956A
:100F0000DF93CF9300D000D0CDB7DEB78A838A813C
:100F1000282F30E03C832B838B819C818434910586
:100F200009F43FC02B813C812534310584F48B8149
:100F30009C818234910559F12B813C812334310508
:100F40005CF58B819C8181349105E1F02FC02B8170
:100F50003C8122363105D9F08B819C818336910505
:100F600034F42B813C812136310561F01FC08B8127
:100F70009C818336910581F02B813C81243631059B
:100F800081F014C0E9E3F0E08081898311C0E6E3D9
:100F9000F0E0808189830CC0E3E3F0E08081898305
:100FA00007C0E0E3F0E08081898302C08FEF89838E
:100FB0008981882F90E00F900F900F900F90CF9124
:100FC000DF910895DF93CF93CDB7DEB72E970FB69D
:100FD000F894DEBF0FBECDBF8A836B834C8381E064
:100FE00089838A81282F30E03E872D878D859E85D5
:100FF0008434910509F4DDC02D853E852534310505
:1010000094F48D859E858234910509F462C02D8506
:101010003E85233431050CF094C08D859E85813446
:101020009105F9F0FEC02D853E852236310509F483
:1010300050C08D859E858336910534F42D853E857F
:101040002136310571F0EDC08D859E858336910581
:1010500009F477C02D853E852436310509F4A9C0F1
:10106000E0C08C81282F30E03C872B878B859C85C6
:10107000009731F02B853C8521303105B1F0D3C08C
:10108000AAE3B0E0EAE3F0E08081482F8B81282FCB
:1010900030E081E090E0022E02C0880F991F0A9490
:1010A000E2F7809584238C93BEC0AAE3B0E0EAE324
:1010B000F0E08081482F8B81282F30E081E090E0A4
:1010C000022E02C0880F991F0A94E2F7842B8C939A
:1010D000AAC08C81282F30E03A87298789859A8594
:1010E000009731F029853A8521303105B1F09BC058
:1010F000A7E3B0E0E7E3F0E08081482F8B81282F61
:1011000030E081E090E0022E02C0880F991F0A941F
:10111000E2F7809584238C9386C0A7E3B0E0E7E3F1
:10112000F0E08081482F8B81282F30E081E090E033
:10113000022E02C0880F991F0A94E2F7842B8C9329
:1011400072C08C81282F30E038872F838F8198855B
:10115000009731F02F81388521303105B1F063C01F
:10116000A4E3B0E0E4E3F0E08081482F8B81282FF6
:1011700030E081E090E0022E02C0880F991F0A94AF
:10118000E2F7809584238C934EC0A4E3B0E0E4E3BF
:10119000F0E08081482F8B81282F30E081E090E0C3
:1011A000022E02C0880F991F0A94E2F7842B8C93B9
:1011B0003AC08C81282F30E03E832D838D819E8123
:1011C000009731F02D813E8121303105B1F02BC0E7
:1011D000A1E3B0E0E1E3F0E08081482F8B81282F8C
:1011E00030E081E090E0022E02C0880F991F0A943F
:1011F000E2F7809584238C9316C0A1E3B0E0E1E38D
:10120000F0E08081482F8B81282F30E081E090E052
:10121000022E02C0880F991F0A94E2F7842B8C9348
:1012200002C08FEF898389812E960FB6F894DEBFB6
:101230000FBECDBFCF91DF910895DF93CF9300D044
:1012400000D00F92CDB7DEB78A836B838B81883055
:1012500018F08FEF898390C081E089838A81282FDD
:1012600030E03D832C838C819D818434910509F489
:101270006DC02C813D81253431058CF48C819D819C
:1012800082349105D9F12C813D81233431050CF054
:1012900049C08C819D8181349105E1F06BC02C8126
:1012A0003D812236310551F18C819D818336910536
:1012B00034F42C813D812136310561F05BC08C8195
:1012C0009D818336910571F12C813D812436310554
:1012D000E9F150C0ABE3B0E0EBE3F0E08081482FF0
:1012E0008B81282F30E081E090E0022E02C0880F31
:1012F000991F0A94E2F7842B8C933EC0A8E3B0E0D8
:10130000E8E3F0E08081482F8B81282F30E081E0F6
:1013100090E0022E02C0880F991F0A94E2F7842BF6
:101320008C932AC0A5E3B0E0E5E3F0E08081482F8C
:101330008B81282F30E081E090E0022E02C0880FE0
:10134000991F0A94E2F7842B8C9316C0A2E3B0E0B5
:10135000E2E3F0E08081482F8B81282F30E081E0AC
:1013600090E0022E02C0880F991F0A94E2F7842BA6
:101370008C9302C08FEF898389810F900F900F901B
:101380000F900F90CF91DF910895DF93CF9300D00E
:1013900000D00F92CDB7DEB78A836B838B81883004
:1013A00018F08FEF898395C081E089838A81282F87
:1013B00030E03D832C838C819D818434910509F438
:1013C00071C02C813D81253431058CF48C819D8147
:1013D00082349105E9F12C813D81233431050CF0F3
:1013E0004CC08C819D8181349105E9F070C02C81C5
:1013F0003D812236310561F18C819D8183369105D5
:1014000034F42C813D812136310569F060C08C8136
:101410009D818336910589F12C813D8124363105EA
:1014200009F440C054C0ABE3B0E0EBE3F0E08081EE
:10143000482F8B81282F30E081E090E0022E02C0FF
:10144000880F991F0A94E2F7809584238C9341C0FA
:10145000A8E3B0E0E8E3F0E08081482F8B81282FFB
:1014600030E081E090E0022E02C0880F991F0A94BC
:10147000E2F7809584238C932CC0A5E3B0E0E5E3EC
:10148000F0E08081482F8B81282F30E081E090E0D0
:10149000022E02C0880F991F0A94E2F780958423D8
:1014A0008C9317C0A2E3B0E0E2E3F0E08081482F24
:1014B0008B81282F30E081E090E0022E02C0880F5F
:1014C000991F0A94E2F7809584238C9302C08FEFD2
:1014D000898389810F900F900F900F900F90CF917B
:1014E000DF910895DF93CF9300D000D0CDB7DEB762
:1014F0008A8381E089838A81282F30E03C832B8393
:101500008B819C818434910509F43FC02B813C81FF
:101510002534310584F48B819C818234910559F105
:101520002B813C81233431055CF58B819C81813496
:101530009105E1F02FC02B813C8122363105D9F095
:101540008B819C818336910534F42B813C8121363B
:10155000310561F01FC08B819C818336910581F03C
:101560002B813C812436310581F014C0EBE3F0E09F
:101570008FEF808311C0E8E3F0E08FEF80830CC031
:10158000E5E3F0E08FEF808307C0E2E3F0E08FEF68
:10159000808302C08FEF898389810F900F900F9015
:1015A0000F90CF91DF910895DF93CF9300D000D0BB
:1015B000CDB7DEB78A8381E089838A81282F30E026
:1015C0003C832B838B819C8184349105E1F12B81B9
:1015D0003C812534310584F48B819C8182349105D2
:1015E00051F12B813C81233431054CF58B819C8159
:1015F00081349105E1F02BC02B813C8122363105ED
:10160000D1F08B819C818336910534F42B813C8110
:101610002136310561F01BC08B819C818336910599
:1016200071F02B813C812436310569F010C0EBE369
:10163000F0E010820EC0E8E3F0E010820AC0E5E3BB
:10164000F0E0108206C0E2E3F0E0108202C08FEF0B
:10165000898389810F900F900F900F90CF91DF9128
:101660000895DF93CF9300D000D00F92CDB7DEB7AF
:101670008A836B838B81883018F08FEF898390C0C9
:1016800081E089838A81282F30E03D832C838C81FF
:101690009D818434910509F46DC02C813D812534F0
:1016A00031058CF48C819D8182349105D9F12C8196
:1016B0003D81233431050CF049C08C819D818134FA
:1016C0009105E1F06BC02C813D812236310551F14D
:1016D0008C819D818336910534F42C813D812136A6
:1016E000310561F05BC08C819D818336910571F17C
:1016F0002C813D8124363105E9F150C0ABE3B0E0E7
:10170000EBE3F0E08081482F8B81282F30E081E0EF
:1017100090E0022E02C0880F991F0A94E2F78427F6
:101720008C933EC0A8E3B0E0E8E3F0E08081482F6E
:101730008B81282F30E081E090E0022E02C0880FDC
:10174000991F0A94E2F784278C932AC0A5E3B0E09E
:10175000E5E3F0E08081482F8B81282F30E081E0A5
:1017600090E0022E02C0880F991F0A94E2F78427A6
:101770008C9316C0A2E3B0E0E2E3F0E08081482F52
:101780008B81282F30E081E090E0022E02C0880F8C
:10179000991F0A94E2F784278C9302C08FEF898304
:1017A00089810F900F900F900F900F90CF91DF9144
:1017B0000895DF93CF9300D000D00F92CDB7DEB75E
:1017C0008A836B8319828B81883018F08FEF89832D
:1017D000B9C08A81282F30E03D832C834C815D8104
:1017E0004434510509F48EC08C819D818534910566
:1017F00094F42C813D812234310509F447C04C8199
:101800005D81433451050CF05FC08C819D81813432
:101810009105F1F095C02C813D8122363105B1F161
:101820004C815D814336510534F48C819D81813634
:10183000910571F085C02C813D812336310509F475
:1018400043C04C815D814436510509F45BC078C0CA
:10185000E9E3F0E08081482F50E08B81282F30E0D1
:1018600081E090E002C0880F991F2A95E2F79A0163
:10187000282339238B81882F90E0A90102C0559538
:1018800047958A95E2F7CA0189835CC0E6E3F0E0F8
:101890008081482F50E08B81282F30E081E090E05C
:1018A00002C0880F991F2A95E2F79A01282339234D
:1018B0008B81882F90E0A90102C0559547958A95A4
:1018C000E2F7CA0189833EC0E3E3F0E08081482F5C
:1018D00050E08B81282F30E081E090E002C0880F3B
:1018E000991F2A95E2F79A01282339238B81882FA3
:1018F00090E0A90102C0559547958A95E2F7CA0183
:10190000898320C0E0E3F0E08081482F50E08B81A4
:10191000282F30E081E090E002C0880F991F2A95BF
:10192000E2F79A01282339238B81882F90E0A901BF
:1019300002C0559547958A95E2F7CA01898302C08E
:101940008FEF898389810F900F900F900F900F90E8
:10195000CF91DF910895DF93CF9300D00F92CDB751
:10196000DEB79A8389836B83ECE3F0E08081882F74
:1019700090E0827090700097B9F7EEE3F0E0898113
:101980009A8191838083EDE3F0E08B818083ACE3E7
:10199000B0E0ECE3F0E0808184608C93ACE3B0E0F5
:1019A000ECE3F0E0808182608C930F900F900F90B9
:1019B000CF91DF910895DF93CF93CDB7DEB76097D6
:1019C0000FB6F894DEBF0FBECDBF988B8F87ECE3C8
:1019D000F0E08081882F90E0827090700097B9F7D6
:1019E000EEE3F0E08F85988991838083ACE3B0E0EB
:1019F000ECE3F0E0808181608C9380E090E0A0E8EF
:101A0000BFE38B879C87AD87BE876B857C858D8583
:101A10009E8520E030E04AEF54E40E941F02DC0182
:101A2000CB018F839887A987BA876F81788589854D
:101A30009A8520E030E040E85FE30E942504882397
:101A40002CF481E090E09E838D833FC06F81788588
:101A500089859A8520E03FEF4FE757E40E94C50350
:101A600018164CF56B857C858D859E8520E030E0D1
:101A700040E251E40E941F02DC01CB01BC01CD0118
:101A80000E944900DC01CB019E838D830FC088EC4E
:101A900090E09C838B838B819C810197F1F79C83E1
:101AA0008B838D819E8101979E838D838D819E8105
:101AB000009769F714C06F81788589859A850E949F
:101AC0004900DC01CB019E838D838D819E819A83A9
:101AD000898389819A810197F1F79A838983EDE35C
:101AE000F0E0808160960FB6F894DEBF0FBECDBFE8
:101AF000CF91DF910895DF93CF9300D000D00F9264
:101B0000CDB7DEB79A8389837C836B834D83EB816A
:101B1000FC8180818823C9F015C0EB81FC81208184
:101B200089819A81622F0E94AB0C89819A810196EA
:101B30009A8389838B819C8101969C838B838D8181
:101B400081508D838D81882341F70F900F900F90E6
:101B50000F900F90CF91DF910895DF93CF9300D036
:101B600000D00F92CDB7DEB79A8389837C836B83D5
:101B70004D83EB81FC8180818823C1F014C0898171
:101B80009A810E94DB0CEB81FC81808389819A81A0
:101B900001969A8389838B819C8101969C838B8398
:101BA0008D8181508D838D81882349F70F900F900F
:101BB0000F900F900F90CF91DF910895DF93CF9307
:101BC00000D0CDB7DEB71A8219820AC089819A8106
:101BD0006FEF0E94AB0C89819A8101969A83898369
:101BE00089819A8124E08030920780F30F900F90D2
:101BF000CF91DF910895DF93CF930F92CDB7DEB7EA
:101C00008983E3E2F0E089818083E6E5F0E084E81F
:101C10008083E6E5F0E080818823DCF70F90CF91A8
:101C2000DF910895DF93CF93CDB7DEB7E6E5F0E01F
:101C300084EA8083E6E5F0E080818823DCF7CF91B9
:101C4000DF910895DF93CF93CDB7DEB7E6E5F0E0FF
:101C500084E98083CF91DF910895DF93CF93CDB74F
:101C6000DEB7E1E2F0E01082E0E2F0E080E28083C3
:101C7000E6E5F0E084E08083CF91DF910895DF9383
:101C8000CF930F92CDB7DEB789838981882389F0FE
:101C9000E6E5F0E08981882F90E00024969587950D
:101CA0000794969587950794982F802D8468808354
:101CB00004C0E6E5F0E084E88083E6E5F0E08081BA
:101CC0008823DCF7E3E2F0E080810F90CF91DF9191
:101CD0000895DF93CF93CDB7DEB7EFE4F0E0108245
:101CE000CF91DF910895DF93CF93CDB7DEB72797DC
:101CF0000FB6F894DEBF0FBECDBF9D838C837F836C
:101D00006E831B821A8281E08983EEE4F0E083E433
:101D100080832E813F8185E0B9010E947F1185E09B
:101D20000E948F12E8E5F0E08081882F90E08072B9
:101D30009070009729F485E00E946212882391F345
:101D400085E00E946212813009F4198285E00E94C8
:101D5000B91285E00E94D112E6E4F0E08081918121
:101D60009B838A83A8E5B0E0E8E5F0E080818062AB
:101D70008C9389818130E1F5EEE4F0E083E08083AB
:101D80002E813F8185E0B9010E947F1185E00E948C
:101D90008F12E8E5F0E08081882F90E080729070EB
:101DA000009729F485E00E946212882391F385E070
:101DB0000E946212813009F4198285E00E94B912F2
:101DC00085E00E94D112E6E4F0E0208131818A8131
:101DD0009B81A901481B590BCA01EC81FD819183AC
:101DE0008083A8E5B0E0E8E5F0E0808180628C9334
:101DF000898127960FB6F894DEBF0FBECDBFCF9175
:101E0000DF910895DF93CF93CDB7DEB727970FB655
:101E1000F894DEBF0FBECDBF9D838C837F836E831E
:101E20001B821A8281E08983EEE4F0E083E4808300
:101E30002E813F8185E0B9010E947F1185E00E94DB
:101E40008F12E8E5F0E08081882F90E0807290703A
:101E5000009729F485E00E946212882391F385E0BF
:101E60000E946212813009F4198285E00E94B91241
:101E700085E00E94D112E6E4F0E0808191819B83AD
:101E80008A83A8E5B0E0E8E5F0E0808180628C9389
:101E900089818130C1F52E813F8185E0B9010E94A1
:101EA0007F1185E00E948F12E8E5F0E08081882FA5
:101EB00090E080729070009729F485E00E94621291
:101EC000882391F385E00E946212813009F419821F
:101ED00085E00E94B91285E00E94D112E6E4F0E0AC
:101EE000208131818A819B81A901481B590BCA013C
:101EF000EC81FD8191838083A8E5B0E0E8E5F0E026
:101F0000808180628C93898127960FB6F894DEBF1A
:101F10000FBECDBFCF91DF910895DF93CF9300D057
:101F20000F92CDB7DEB789838981282F30E03B83BC
:101F30002A838A819B8181309105D1F12A813B815D
:101F4000223031052CF48A819B810097F9F063C01F
:101F50002A813B812230310509F444C08A819B816A
:101F60008330910509F057C0A1E3B0E0E1E3F0E070
:101F7000808180688C93E5E4F0E01082E5E4F0E095
:101F800089E68083E4E4F0E0108245C0A7E3B0E096
:101F9000E7E3F0E0808188608C93E3E5F0E0108275
:101FA000E3E5F0E08BE68083E2E5F0E0108233C009
:101FB000A1E3B0E0E1E3F0E0808180628C93AFE4E4
:101FC000B0E0EFE4F0E0808181688C93AEE4B0E0B3
:101FD000EEE4F0E080818B608C93ECE4F0E0118221
:101FE000108219C0A1E3B0E0E1E3F0E080818061FC
:101FF0008C93AFE4B0E0EFE4F0E0808181628C93F9
:10200000AEE4B0E0EEE4F0E080818B608C93ECE431
:10201000F0E0118210820F900F900F90CF91DF911E
:102020000895DF93CF9300D000D0CDB7DEB789837A
:102030006A838A81282F30E03C832B838B819C81AB
:1020400081309105F1F02B813C81223031052CF457
:102050008B819C81009781F023C02B813C812230B1
:102060003105B9F08B819C8183309105C9F4E3E49B
:10207000F0E08981808314C0ECE5F0E08981808301
:102080000FC0EAE4F0E08981882F90E0918380839B
:1020900007C0E8E4F0E08981882F90E09183808395
:1020A0000F900F900F900F90CF91DF910895DF93D5
:1020B000CF9300D000D00F92CDB7DEB78A836B8369
:1020C0008A81482F50E0CA019C01220F331FC901A9
:1020D0009695982F882797958795821B930B840F49
:1020E000951F24E630E0B9010E943838CB0189837E
:1020F0008B81282F30E03D832C838C819D8100973C
:1021000051F02C813D812330310549F4E3E4F0E0C6
:102110008981808304C0ECE5F0E0898180830F90A1
:102120000F900F900F900F90CF91DF910895DF9354
:10213000CF930F92CDB7DEB78983EDE2F0E083E66F
:1021400080838981813079F4ADE2B0E0EDE2F0E0A6
:10215000808180618C93A7E3B0E0E7E3F0E08081C9
:10216000806B8C9307C0A7E3B0E0E7E3F0E08081E9
:1021700080648C9387E065E070E00E947F110F908F
:10218000CF91DF910895DF93CF930F92CDB7DEB754
:102190008983EFE2F0E089818083EEE2F0E08081E4
:1021A0008823DCF7EFE2F0E080810F90CF91DF91A0
:1021B0000895DF93CF9300D00F92CDB7DEB79B8306
:1021C0008A83198287E00E948F12EFE2F0E0AA81F1
:1021D000BB818C918083EEE2F0E0808188232CF03B
:1021E00087E00E9462128823B1F387E00E94B9124F
:1021F00087E00E94D112EEE2F0E08081882314F0A3
:10220000198202C081E08983EFE2F0E08081EA81F7
:10221000FB81808389810F900F900F90CF91DF9188
:102220000895DF93CF93CDB7DEB70E94DC11CF9135
:10223000DF910895DF93CF930F92CDB7DEB78983F7
:102240008981282F30E0C901880F991F820F931FC1
:102250000196880F991FFC01E85AFD4F11821082E8
:102260008981282F30E0C901880F991F820F931FA1
:10227000880F991FFC01E85AFD4F11821082898155
:10228000282F30E0C901880F991F820F931F880FF4
:10229000991FFC01E45AFD4F10828981282F30E0FC
:1022A000C901880F991F820F931F880F991FFC0186
:1022B000E35AFD4F10820F90CF91DF910895DF9385
:1022C000CF9300D0CDB7DEB70E94EB1281E191E150
:1022D0000E940C131A82198208C089810E941A1167
:1022E00089819A8101969A83898389819A818A302A
:1022F000910598F30F900F90CF91DF910895DF93A0
:10230000CF9300D00F92CDB7DEB789837B836A83EA
:102310008981282F30E0C901880F991F820F931FF0
:10232000880F991FFC01E85AFD4F80819181009729
:10233000E9F58981282F30E0C901880F991F820FA4
:10234000931F880F991FFC01E85AFD4F8A819B81DA
:10235000918380838981282F30E0C901880F991FDC
:10236000820F931F0196880F991FFC01E85AFD4FB9
:10237000118210828981282F30E0C901880F991FAE
:10238000820F931F880F991FFC01E45AFD4F1082A2
:102390008981282F30E0C901880F991F820F931F70
:1023A000880F991FFC01E35AFD4F10820F900F9088
:1023B0000F90CF91DF910895DF93CF9300D0CDB7E9
:1023C000DEB71A8219821A82198271C029813A8174
:1023D000C901880F991F820F931F880F991FFC0155
:1023E000E35AFD4F8081813009F05CC029813A8138
:1023F000C901880F991F820F931F0196880F991F9B
:10240000FC01E85AFD4F80819181AC014F5F5F4F25
:10241000C901880F991F820F931F0196880F991F7A
:10242000FC01E85AFD4F5183408329813A81C9015B
:10243000880F991F820F931F0196880F991FFC0127
:10244000E85AFD4F4081518129813A81C901880FA5
:10245000991F820F931F880F991FFC01E85AFD4FA7
:102460008081918148175907E9F429813A81C9018E
:10247000880F991F820F931F0196880F991FFC01E7
:10248000E85AFD4F1182108229813A81C901880FD3
:10249000991F820F931F880F991FFC01E45AFD4F6B
:1024A00081E0808389819A8101969A8389838981D9
:1024B0009A818A30910508F489CF0F900F90CF91BF
:1024C000DF910895DF93CF9300D0CDB7DEB78A8335
:1024D00019828A81282F30E0C901880F991F820F45
:1024E000931F880F991FFC01E45AFD4F80818823B8
:1024F00081F08A81282F30E0C901880F991F820F4F
:10250000931F880F991FFC01E45AFD4F108281E050
:10251000898389810F900F90CF91DF910895DF9388
:10252000CF930F92CDB7DEB789838981282F30E012
:10253000C901880F991F820F931F880F991FFC01F3
:10254000E85AFD4F80819181009779F08981282F89
:1025500030E0C901880F991F820F931F880F991FC0
:10256000FC01E35AFD4F81E080830F90CF91DF9112
:102570000895DF93CF930F92CDB7DEB7898389811A
:10258000282F30E0C901880F991F820F931F880FF1
:10259000991FFC01E35AFD4F10820F90CF91DF91FC
:1025A0000895DF93CF930F92CDB7DEB789838981EA
:1025B000282F30E0C901880F991F820F931F0196C1
:1025C000880F991FFC01E85AFD4F118210820F906D
:1025D000CF91DF910895DF93CF93CDB7DEB7A5E418
:1025E000B0E0E5E4F0E0808187608C93E4E4F0E023
:1025F00089E78083A9E5B0E0E9E5F0E080818064C7
:102600008C93A8E5B0E0E8E5F0E0808180648C93ED
:102610007894CF91DF910895DF93CF9300D0CDB719
:10262000DEB79A83898389819A81909395028093FA
:1026300094020F900F90CF91DF910895DF93CF9385
:10264000CDB7DEB71092950210929402CF91DF9130
:1026500008951F920F920FB60F9211242F933F935C
:102660004F935F936F937F938F939F93AF93BF939A
:10267000EF93FF93DF93CF93CDB7DEB780919402B2
:1026800090919502009729F0E0919402F0919502C3
:102690000995E4E4F0E089E78083A8E5B0E0E8E5A7
:1026A000F0E0808180648C93CF91DF91FF91EF9176
:1026B000BF91AF919F918F917F916F915F914F915A
:1026C0003F912F910F900FBE0F901F901895DF93A1
:1026D000CF93CDB7DEB7EBE2F0E082E08083EAE2B1
:1026E000F0E088E98083E0E4F0E086E88083E9E2D6
:1026F000F0E088E08083E0E4F0E01082CF91DF91A9
:102700000895DF93CF9300D000D000D0CDB7DEB7CF
:102710009E838D83E0914F02F09150021082E091F0
:102720005102F09152021082ED81FE8180819181EF
:10273000A281B381880F991FAA1FBB1F880F991F01
:10274000AA1FBB1F880F991FAA1FBB1F880F991FA5
:10275000AA1FBB1F9C01AD0180E092E1AAE7B0E097
:10276000BC01CD010E944B38DA01C9010197A109D2
:10277000B10989839A83AB83BC83E0915302F091C2
:10278000540289819A81AB81BC81892F9A2FAB2F0A
:10279000BB278083E0915502F091560289818083A6
:1027A000ED81FE818781882359F0A0914F02B0917D
:1027B0005002E0914F02F0915002808180688C932A
:1027C000ED81FE818085882359F0A0914F02B09160
:1027D0005002E0914F02F0915002808180648C930E
:1027E000ED81FE818185882359F0A0914F02B0913F
:1027F0005002E0914F02F0915002808180618C93F1
:10280000ED81FE818285882359F0A0914F02B0911D
:102810005002E0914F02F0915002808188608C93C9
:10282000A0915102B0915202E0915102F0915202F6
:102830008081282FED81FE818681882F90E082950E
:102840009295907F9827807F9827822B8C93A091D8
:102850005102B0915202E0915102F09152028081F6
:10286000282FED81FE818581882F90E0880F991FA8
:10287000880F991F880F991F822B8C93ED81FE8101
:1028800084818930B9F4A0914F02B0915002E09157
:102890004F02F0915002808184608C93A09151028C
:1028A000B0915202E0915102F0915202808186680B
:1028B0008C9332C0ED81FE818481853069F1ED8198
:1028C000FE818481863061F4A0915102B091520260
:1028D000E0915102F0915202808182688C931CC079
:1028E000ED81FE818481873061F4A0915102B09125
:1028F0005202E0915102F0915202808184688C93DF
:102900000BC0A0915102B0915202E0915102F0919E
:102910005202808186688C9386E065E070E00E94B8
:102920007F1126960FB6F894DEBF0FBECDBFCF91B4
:10293000DF910895DF93CF9300D00F92CDB7DEB72C
:102940009B838A83198286E00E948F12E0914D0258
:10295000F0914E02808188232CF086E00E94621262
:102960008823A1F386E00E94B91286E00E94D1126A
:1029700081E08983E0914D02F0914E0280818823AD
:102980000CF01982E0914B02F0914C028081EA81B7
:10299000FB81808389810F900F900F90CF91DF9101
:1029A0000895DF93CF9300D0CDB7DEB78A83198225
:1029B00086E00E948F12E0914D02F0914E028081DC
:1029C000882F90E080729070009729F486E00E9432
:1029D0006212882381F386E00E94B91286E00E9489
:1029E000D112E0914D02F0914E028081882F90E04B
:1029F00080729070009749F0E0914B02F0914C0288
:102A00008A81808381E0898301C0198289810F9046
:102A10000F90CF91DF910895DF93CF93CDB7DEB7BD
:102A2000E0914D02F0914E0280818823CCF7E09135
:102A30004B02F0914C028081CF91DF910895DF939A
:102A4000CF930F92CDB7DEB78983E0914D02F0911D
:102A50004E028081882F90E0807290700097A9F3D9
:102A6000E0914B02F0914C02898180830F90CF91CD
:102A7000DF910895DF93CF9300D000D0CDB7DEB7BC
:102A80009B838A836C8319820EC08981282F30E052
:102A90008A819B81FC01E20FF31F80810E941F1538
:102AA00089818F5F898399818C81981770F30F904A
:102AB0000F900F900F90CF91DF910895DF93CF93F8
:102AC000CDB7DEB767970FB6F894DEBF0FBECDBFA8
:102AD0009F8B8E8B1F8686E0FE017096DF01982FFC
:102AE0001D929A95E9F78E899F899E01205F3F4F3D
:102AF000B9014AE050E00E94A43880E690E06FE01F
:102B00000E943A151F8686C08F85282F30E0CE019F
:102B10004096FC01E20FF31F80810E941F158F85F4
:102B2000813019F48EE20E941F1580E090E0A0E849
:102B3000BFE38B879C87AD87BE876B857C858D8542
:102B40009E8520E030E04AEF54E40E941F02DC0141
:102B5000CB018F839887A987BA876F81788589850C
:102B60009A8520E030E040E85FE30E942504882356
:102B70002CF481E090E09E838D833FC06F81788547
:102B800089859A8520E03FEF4FE757E40E94C5030F
:102B900018164CF56B857C858D859E8520E030E090
:102BA00040E251E40E941F02DC01CB01BC01CD01D7
:102BB0000E944900DC01CB019E838D830FC088EC0D
:102BC00090E09C838B838B819C810197F1F79C83A0
:102BD0008B838D819E8101979E838D838D819E81C4
:102BE000009769F714C06F81788589859A850E945E
:102BF0004900DC01CB019E838D838D819E819A8368
:102C0000898389819A810197F1F79A8389838F85D6
:102C10008F5F8F878F85282F30E0CE014096FC0193
:102C2000E20FF31F8081882309F06ECF8FE690E0DA
:102C300063E00E943A1567960FB6F894DEBF0FBEA8
:102C4000CDBFCF91DF910895DF93CF93CDB7DEB79E
:102C5000A1970FB6F894DEBF0FBECDBF99A388A38E
:102C6000198E86E0FE017A96DF01982F1D929A95C3
:102C7000E9F788A199A19E01265E3F4FB9014AE07C
:102C800050E00E94A43883E790E060E10E943A158A
:102C9000198ECCC0898D282F30E0CE014A96FC01D8
:102CA000E20FF31F80810E941F1580E090E0A0E2F8
:102CB000B1E48D8B9E8BAF8BB88F6D897E898F89A8
:102CC000988D2BEA3AEA4AE250E40E941F02DC01A6
:102CD000CB01898B9A8BAB8BBC8B69897A898B8969
:102CE0009C8920E030E040E85FE30E9425048823CF
:102CF0001CF481E0888B91C069897A898B899C89D1
:102D000020E030E04FE753E40E94C50318160CF0B2
:102D10007BC06D897E898F89988D20E030E04AE7FD
:102D200054E40E941903DC01CB018C879D87AE8798
:102D3000BF876C857D858E859F8520E030E04AEFDA
:102D400054E40E941F02DC01CB0188879987AA877F
:102D5000BB87688579858A859B8520E030E040E8DF
:102D60005FE30E94250488232CF481E090E09F8398
:102D70008E833FC0688579858A859B8520E03FEFFB
:102D80004FE757E40E94C50318164CF56C857D8506
:102D90008E859F8520E030E040E251E40E941F02D2
:102DA000DC01CB01BC01CD010E944900DC01CB015B
:102DB0009F838E830FC088EC90E09D838C838C81F1
:102DC0009D810197F1F79D838C838E819F8101976F
:102DD0009F838E838E819F81009769F724C06885C9
:102DE00079858A859B850E944900DC01CB019F8300
:102DF0008E838E819F819B838A838A819B810197A9
:102E0000F1F79B838A830FC069897A898B899C89B2
:102E10000E944900DC01CB01888B888989838981E4
:102E20008A95F1F78983898D8F5F898F898D282F06
:102E300030E0CE014A96FC01E20FF31F8081882327
:102E400009F028CFA1960FB6F894DEBF0FBECDBF14
:102E5000CF91DF910895DF93CF93CDB7DEB7299758
:102E60000FB6F894DEBF0FBECDBF99878887198251
:102E700086E0FE013296DF01982F1D929A95E9F7C0
:102E8000888599859E012E5F3F4FB9014AE050E049
:102E90000E94A43819820EC08981282F30E0CE010B
:102EA0000296FC01E20FF31F80810E941F158981A9
:102EB0008F5F89838981282F30E0CE010296FC0143
:102EC000E20FF31F8081882339F729960FB6F89413
:102ED000DEBF0FBECDBFCF91DF910895DF93CF93BB
:102EE00000D00F92CDB7DEB79B838A8319820EC0C4
:102EF0008981282F30E08A819B81FC01E20FF31F3A
:102F000080810E941F1589818F5F89838981282F85
:102F100030E08A819B81FC01E20FF31F80818823CE
:102F200039F70F900F900F90CF91DF910895DF93B5
:102F3000CF93CDB7DEB78DE00E941F158AE00E94C7
:102F40001F15CF91DF910895DF93CF9300D000D06C
:102F50000F92CDB7DEB78B836C834D838B819AE064
:102F6000692F0E941838882F90E09E012F5F3F4FF5
:102F7000B9014AE050E00E94A438CE0101960E94B7
:102F80006E178B819AE0692F0E941838892F882F3D
:102F900090E09E012F5F3F4FB9014AE050E00E9450
:102FA000A438CE0101960E946E1784E890E00E943A
:102FB0006E178C819AE0692F0E941838882F90E054
:102FC0009E012F5F3F4FB9014AE050E00E94A438B4
:102FD000CE0101960E946E178C819AE0692F0E94A3
:102FE0001838892F882F90E09E012F5F3F4FB9013D
:102FF0004AE050E00E94A438CE0101960E946E176C
:1030000084E890E00E946E178D819AE0692F0E94FB
:103010001838882F90E09E012F5F3F4FB9014AE09A
:1030200050E00E94A438CE0101960E946E178D8157
:103030009AE0692F0E941838892F882F90E09E010E
:103040002F5F3F4FB9014AE050E00E94A438CE0103
:1030500001960E946E170F900F900F900F900F9097
:10306000CF91DF910895DF93CF9300D0CDB7DEB736
:103070009A83898386E890E00E946E1789819A81FD
:10308000805890408038910520F481E30E941F15FC
:1030900008C089819A818038910518F480E30E94E4
:1030A0001F1589819A81805490408034910520F4C5
:1030B00081E30E941F1508C089819A81803491059F
:1030C00018F480E30E941F150F900F90CF91DF91AD
:1030D0000895DF93CF9300D000D000D0CDB7DEB7F6
:1030E0009E838D831C821B821A8219828D819E8110
:1030F00028EE33E0B9010E942438CB019C838B83F6
:103100008B81805D0E941F152B813C8188EE93E0AE
:10311000A901489F9001499F300D589F300D1124FF
:103120008D819E81821B930B9A83898389819A81E9
:1031300024E630E0B9010E942438CB019C838B83C4
:103140008B81805D0E941F152B813C8184E690E07D
:10315000A901489F9001499F300D589F300D1124BF
:1031600089819A81821B930B9A83898389819A81B1
:103170002AE030E0B9010E942438CB019C838B8384
:103180008B81805D0E941F158B819C819C01220F89
:10319000331FC901880F991F880F991F280F391FE6
:1031A00089819A81821B930B9A83898389819A8171
:1031B0009C838B838B81805D0E941F1526960FB6A2
:1031C000F894DEBF0FBECDBFCF91DF9108950F936E
:1031D0001F93DF93CF93CDB7DEB7C455D0400FB662
:1031E000F894DEBF0FBECDBFA4E3B0E0E4E3F0E0AF
:1031F000808180688C93A4E3B0E0E4E3F0E0808118
:1032000080648C93A7E3B0E0E7E3F0E08081806F17
:103210008C93A8E3B0E0E8E3F0E080818C9380E356
:103220000E94C625FE01EF5AFF4F80E090E0A0E229
:10323000B1E480839183A283B3838E01035B1F4F2C
:10324000FE01EF5AFF4F608171818281938120E0FE
:1032500030E04AEF54E40E941F02DC01CB01F80188
:1032600080839183A283B383FE01E35BFF4F608180
:1032700071818281938120E030E040E85FE30E9429
:103280002504882344F4FE01E55BFF4F81E090E0D4
:103290009183808364C0FE01E35BFF4F6081718195
:1032A0008281938120E03FEF4FE757E40E94C503FE
:1032B00018160CF043C0FE01EF5AFF4F6081718178
:1032C0008281938120E030E040E251E40E941F02BD
:1032D000DC01CB018E01055B1F4FBC01CD010E94BB
:1032E0004900DC01CB01F801918380831FC0FE01FE
:1032F000E75BFF4F88EC90E091838083FE01E75B02
:10330000FF4F808191810197F1F7FE01E75BFF4F4D
:1033100091838083DE01A55BBF4FFE01E55BFF4F1C
:1033200080819181019711969C938E93FE01E55BBC
:10333000FF4F808191810097D1F627C08E01055BF8
:103340001F4FFE01E35BFF4F60817181828193819A
:103350000E944900DC01CB01F80191838083DE01EA
:10336000A95BBF4FFE01E55BFF4F808191818D938B
:103370009C93FE01E95BFF4F808191810197F1F7FA
:10338000FE01E95BFF4F9183808380E30E94C625A5
:10339000FE01ED5BFF4F80E090E0A0E2B1E48083AE
:1033A0009183A283B3838E01015C1F4FFE01ED5B0D
:1033B000FF4F608171818281938120E030E04AEF8C
:1033C00054E40E941F02DC01CB01F8018083918349
:1033D000A283B383FE01FF96608171818281938114
:1033E00020E030E040E85FE30E94250488232CF4CD
:1033F00081E090E09EAF8DAF46C0FE01FF966081F8
:1034000071818281938120E03FEF4FE757E40E9472
:10341000C503181664F5FE01ED5BFF4F60817181F5
:103420008281938120E030E040E251E40E941F025B
:10343000DC01CB01BC01CD010E944900DC01CB01C4
:103440009EAF8DAF0FC088EC90E09CAF8BAF8BAD83
:103450009CAD0197F1F79CAF8BAF8DAD9EAD019701
:103460009EAF8DAF8DAD9EAD009769F716C0FE0182
:10347000FF9660817181828193810E944900DC0105
:10348000CB019EAF8DAF8DAD9EAD9AAF89AF89ADAB
:103490009AAD0197F1F79AAF89AF80E30E94C625F4
:1034A00080E090E0A0E2B1E48DAB9EABAFABB8AFF3
:1034B0006DA97EA98FA998AD20E030E04AEF54E4D1
:1034C0000E941F02DC01CB0189AB9AABABABBCAB5A
:1034D00069A97AA98BA99CA920E030E040E85FE3C4
:1034E0000E94250488232CF481E090E098AB8FA7FC
:1034F0003FC069A97AA98BA99CA920E03FEF4FE7BB
:1035000057E40E94C50318164CF56DA97EA98FA932
:1035100098AD20E030E040E251E40E941F02DC015F
:10352000CB01BC01CD010E944900DC01CB0198AB6D
:103530008FA70FC088EC90E09EA78DA78DA59EA5B4
:103540000197F1F79EA78DA78FA598A9019798AB32
:103550008FA78FA598A9009769F714C069A97AA9C0
:103560008BA99CA90E944900DC01CB0198AB8FA7D5
:103570008FA598A99CA78BA78BA59CA50197F1F770
:103580009CA78BA780E20E94C62580E090E0A0E285
:10359000B1E48FA398A7A9A7BAA76FA178A589A519
:1035A0009AA520E030E04AEF54E40E941F02DC01BB
:1035B000CB018BA39CA3ADA3BEA36BA17CA18DA1CA
:1035C0009EA120E030E040E85FE30E9425048823CC
:1035D0002CF481E090E09AA389A33FC06BA17CA169
:1035E0008DA19EA120E03FEF4FE757E40E94C50365
:1035F00018164CF56FA178A589A59AA520E030E0B2
:1036000040E251E40E941F02DC01CB01BC01CD016C
:103610000E944900DC01CB019AA389A30FC088EC6A
:1036200090E098A38F8F8F8D98A10197F1F798A3C1
:103630008F8F89A19AA101979AA389A389A19AA1A1
:10364000009769F714C06BA17CA18DA19EA10E9477
:103650004900DC01CB019AA389A389A19AA19E8F7D
:103660008D8F8D8D9E8D0197F1F79E8F8D8F80E0D0
:1036700090E0A0E2B1E4898F9A8FAB8FBC8F698D07
:103680007A8D8B8D9C8D20E030E04AEF54E40E94CF
:103690001F02DC01CB018D8B9E8BAF8BB88F6D89A8
:1036A0007E898F89988D20E030E040E85FE30E94BA
:1036B000250488232CF481E090E09C8B8B8B3FC009
:1036C0006D897E898F89988D20E03FEF4FE757E421
:1036D0000E94C50318164CF5698D7A8D8B8D9C8DD3
:1036E00020E030E040E251E40E941F02DC01CB0107
:1036F000BC01CD010E944900DC01CB019C8B8B8B6E
:103700000FC088EC90E09A8B898B89899A89019700
:10371000F1F79A8B898B8B899C8901979C8B8B8B7A
:103720008B899C89009769F714C06D897E898F8980
:10373000988D0E944900DC01CB019C8B8B8B8B897F
:103740009C89988B8F878F8598890197F1F7988B43
:103750008F8788E20E94331C8CE00E94331C86E035
:103760000E94331C80E80E94331C80E090E0A0EAB5
:10377000B1E48B879C87AD87BE876B857C858D8503
:103780009E8520E030E04AEF54E40E941F02DC01F5
:10379000CB018F839887A987BA876F8178858985C0
:1037A0009A8520E030E040E85FE30E94250488230A
:1037B0002CF481E090E09E838D833FC06F817885FB
:1037C00089859A8520E03FEF4FE757E40E94C503C3
:1037D00018164CF56B857C858D859E8520E030E044
:1037E00040E251E40E941F02DC01CB01BC01CD018B
:1037F0000E944900DC01CB019E838D830FC088ECC1
:1038000090E09C838B838B819C810197F1F79C8353
:103810008B838D819E8101979E838D838D819E8177
:10382000009769F714C06F81788589859A850E9411
:103830004900DC01CB019E838D838D819E819A831B
:10384000898389819A810197F1F79A838983CC5A78
:10385000DF4F0FB6F894DEBF0FBECDBFCF91DF9123
:103860001F910F9108950F931F93DF93CF93CDB7BF
:10387000DEB7C954D0400FB6F894DEBF0FBECDBF3F
:10388000FE01E75BFF4F8083A5E3B0E0E5E3F0E0F6
:1038900080818F7B8C93A8E3B0E0E8E3F0E0808147
:1038A0008F778C93A8E3B0E0E8E3F0E080818F7B32
:1038B0008C93A8E3B0E0E8E3F0E080818F7D8C9307
:1038C000A8E3B0E0E8E3F0E080818F7E8C93FE0116
:1038D000E75BFF4F808188233CF4A8E3B0E0E8E396
:1038E000F0E0808180688C93FE01E75BFF4F808170
:1038F000882F90E080749070009739F0A8E3B0E0D2
:10390000E8E3F0E0808180648C93FE01E75BFF4F89
:103910008081882F90E080729070009739F0A8E342
:10392000B0E0E8E3F0E0808180628C93FE01E75B29
:10393000FF4F8081882F90E080719070009739F060
:10394000A8E3B0E0E8E3F0E0808180618C93A5E338
:10395000B0E0E5E3F0E0808180688C93FE01EB5BF2
:10396000FF4F80E090E0A0E0B0E480839183A283E9
:10397000B3838E010F5B1F4FFE01EB5BFF4F608136
:103980007181828193812BEA3AEA4AE250E40E94F3
:103990001F02DC01CB01F80180839183A283B383F2
:1039A000FE01EF5BFF4F608171818281938120E096
:1039B00030E040E85FE30E942504882334F481E08E
:1039C000FE01E05CFF4F80839DC0FE01EF5BFF4F77
:1039D000608171818281938120E030E04FE753E480
:1039E0000E94C50318160CF07EC0FE01EB5BFF4F72
:1039F000608171818281938120E030E04AE754E464
:103A00000E941903DC01CB018CAF9DAFAEAFBFAFFD
:103A10006CAD7DAD8EAD9FAD20E030E04AEF54E45B
:103A20000E941F02DC01CB0188AF99AFAAAFBBAFE8
:103A300068AD79AD8AAD9BAD20E030E040E85FE352
:103A40000E94250488232CF481E090E09FAB8EAB8C
:103A50003FC068AD79AD8AAD9BAD20E03FEF4FE749
:103A600057E40E94C50318164CF56CAD7DAD8EADC4
:103A70009FAD20E030E040E251E40E941F02DC01F3
:103A8000CB01BC01CD010E944900DC01CB019FAB01
:103A90008EAB0FC088EC90E09DAB8CAB8CA99DA940
:103AA0000197F1F79DAB8CAB8EA99FA901979FABB6
:103AB0008EAB8EA99FA9009769F72DC068AD79AD2F
:103AC0008AAD9BAD0E944900DC01CB019FAB8EAB60
:103AD0008EA99FA99BAB8AAB8AA99BA90197F1F7F5
:103AE0009BAB8AAB18C0FE01EF5BFF4F6081718119
:103AF000828193810E944900DC01CB01FE01E05CE0
:103B0000FF4F8083FE01E05CFF4F808189AB89A974
:103B10008A95F1F789ABA5E3B0E0E5E3F0E08081B9
:103B20008F778C93A8E3B0E0E8E3F0E080818F77B3
:103B30008C93A8E3B0E0E8E3F0E080818F7B8C9386
:103B4000A8E3B0E0E8E3F0E080818F7D8C93A8E308
:103B5000B0E0E8E3F0E080818F7E8C93FE01E75BCC
:103B6000FF4F8081882F90E088709070009739F027
:103B7000A8E3B0E0E8E3F0E0808180688C93FE0188
:103B8000E75BFF4F8081882F90E0847090700097F2
:103B900039F0A8E3B0E0E8E3F0E0808180648C9342
:103BA000FE01E75BFF4F8081882F90E0827090706C
:103BB000009739F0A8E3B0E0E8E3F0E080818062AC
:103BC0008C93FE01E75BFF4F8081882F90E081702E
:103BD0009070882339F0A8E3B0E0E8E3F0E080815A
:103BE00080618C93A5E3B0E0E5E3F0E0808180683C
:103BF0008C9380E090E0A0E0B0E48DA79EA7AFA7F3
:103C0000B8AB6DA57EA58FA598A92BEA3AEA4AE242
:103C100050E40E941F02DC01CB0189A79AA7ABA741
:103C2000BCA769A57AA58BA59CA520E030E040E85B
:103C30005FE30E94250488231CF481E088A791C0DB
:103C400069A57AA58BA59CA520E030E04FE753E459
:103C50000E94C50318160CF07BC06DA57EA58FA52C
:103C600098A920E030E04AE754E40E941903DC01FF
:103C7000CB018CA39DA3AEA3BFA36CA17DA18EA1FC
:103C80009FA120E030E04AEF54E40E941F02DC01D3
:103C9000CB0188A399A3AAA3BBA368A179A18AA1F8
:103CA0009BA120E030E040E85FE30E9425048823E8
:103CB0002CF481E090E09F8F8E8F3FC068A179A1A6
:103CC0008AA19BA120E03FEF4FE757E40E94C50384
:103CD00018164CF56CA17DA18EA19FA120E030E0CB
:103CE00040E251E40E941F02DC01CB01BC01CD0186
:103CF0000E944900DC01CB019F8F8E8F0FC088ECA2
:103D000090E09D8F8C8F8C8D9D8D0197F1F79D8F0D
:103D10008C8F8E8D9F8D01979F8F8E8F8E8D9F8D17
:103D2000009769F724C068A179A18AA19BA10E948C
:103D30004900DC01CB019F8F8E8F8E8D9F8D9B8FD5
:103D40008A8F8A8D9B8D0197F1F79B8F8A8F0FC089
:103D500069A57AA58BA59CA50E944900DC01CB0131
:103D600088A788A5898F898D8A95F1F7898FA5E322
:103D7000B0E0E5E3F0E080818F778C9380E090E025
:103D8000A6E9B3E48D8B9E8BAF8BB88F6D897E894E
:103D90008F89988D2BEA3AEA4AE250E40E941F028A
:103DA000DC01CB01898B9A8BAB8BBC8B69897A89BF
:103DB0008B899C8920E030E040E85FE30E94250485
:103DC00088231CF481E0888B91C069897A898B896A
:103DD0009C8920E030E04FE753E40E94C5031816A9
:103DE0000CF07BC06D897E898F89988D20E030E052
:103DF0004AE754E40E941903DC01CB018C879D87BC
:103E0000AE87BF876C857D858E859F8520E030E0FD
:103E10004AEF54E40E941F02DC01CB018887998796
:103E2000AA87BB87688579858A859B8520E030E0F5
:103E300040E85FE30E94250488232CF481E090E0B1
:103E40009F838E833FC0688579858A859B8520E026
:103E50003FEF4FE757E40E94C50318164CF56C85F9
:103E60007D858E859F8520E030E040E251E40E9410
:103E70001F02DC01CB01BC01CD010E944900DC0125
:103E8000CB019F838E830FC088EC90E09D838C8351
:103E90008C819D810197F1F79D838C838E819F8119
:103EA00001979F838E838E819F81009769F724C03D
:103EB000688579858A859B850E944900DC01CB0154
:103EC0009F838E838E819F819B838A838A819B813E
:103ED0000197F1F79B838A830FC069897A898B895F
:103EE0009C890E944900DC01CB01888B88898983E9
:103EF00089818A95F1F78983C75BDF4F0FB6F89404
:103F0000DEBF0FBECDBFCF91DF911F910F910895FE
:103F10000F931F93DF93CF93CDB7DEB7C954D04033
:103F20000FB6F894DEBF0FBECDBFFE01E75BFF4FBB
:103F30008083A5E3B0E0E5E3F0E0808180648C93CA
:103F4000A8E3B0E0E8E3F0E080818F778C93A8E30A
:103F5000B0E0E8E3F0E080818F7B8C93A8E3B0E0F1
:103F6000E8E3F0E080818F7D8C93A8E3B0E0E8E3A4
:103F7000F0E080818F7E8C93FE01E75BFF4F8081B4
:103F800088233CF4A8E3B0E0E8E3F0E080818068B7
:103F90008C93FE01E75BFF4F8081882F90E0807457
:103FA0009070009739F0A8E3B0E0E8E3F0E080819A
:103FB00080648C93FE01E75BFF4F8081882F90E047
:103FC00080729070009739F0A8E3B0E0E8E3F0E089
:103FD000808180628C93FE01E75BFF4F8081882F98
:103FE00090E080719070009739F0A8E3B0E0E8E3CA
:103FF000F0E0808180618C93A5E3B0E0E5E3F0E040
:10400000808180688C93FE01EB5BFF4F80E090E045
:10401000A0E0B0E480839183A283B3838E010F5B21
:104020001F4FFE01EB5BFF4F6081718182819381A5
:104030002BEA3AEA4AE250E40E941F02DC01CB017B
:10404000F80180839183A283B383FE01EF5BFF4F6E
:10405000608171818281938120E030E040E85FE3FC
:104060000E942504882334F481E0FE01E05CFF4FC8
:1040700080839DC0FE01EF5BFF4F60817181828173
:10408000938120E030E04FE753E40E94C503181607
:104090000CF07EC0FE01EB5BFF4F6081718182817D
:1040A000938120E030E04AE754E40E941903DC01E8
:1040B000CB018CAF9DAFAEAFBFAF6CAD7DAD8EAD64
:1040C0009FAD20E030E04AEF54E40E941F02DC0183
:1040D000CB0188AF99AFAAAFBBAF68AD79AD8AAD60
:1040E0009BAD20E030E040E85FE30E942504882398
:1040F0002CF481E090E09FAB8EAB3FC068AD79AD12
:104100008AAD9BAD20E03FEF4FE757E40E94C50327
:1041100018164CF56CAD7DAD8EAD9FAD20E030E056
:1041200040E251E40E941F02DC01CB01BC01CD0141
:104130000E944900DC01CB019FAB8EAB0FC088EC25
:1041400090E09DAB8CAB8CA99DA90197F1F79DAB3D
:104150008CAB8EA99FA901979FAB8EAB8EA99FA90F
:10416000009769F72DC068AD79AD8AAD9BAD0E940F
:104170004900DC01CB019FAB8EAB8EA99FA99BAB05
:104180008AAB8AA99BA90197F1F79BAB8AAB18C0B0
:10419000FE01EF5BFF4F60817181828193810E94FC
:1041A0004900DC01CB01FE01E05CFF4F8083FE0192
:1041B000E05CFF4F808189AB89A98A95F1F789ABD3
:1041C000A5E3B0E0E5E3F0E080818F778C93A8E38E
:1041D000B0E0E8E3F0E080818F778C93A8E3B0E073
:1041E000E8E3F0E080818F7B8C93A8E3B0E0E8E324
:1041F000F0E080818F7D8C93A8E3B0E0E8E3F0E00D
:1042000080818F7E8C93FE01E75BFF4F8081882F3A
:1042100090E088709070009739F0A8E3B0E0E8E390
:10422000F0E0808180688C93FE01E75BFF4F808126
:10423000882F90E084709070009739F0A8E3B0E088
:10424000E8E3F0E0808180648C93FE01E75BFF4F40
:104250008081882F90E082709070009739F0A8E3F9
:10426000B0E0E8E3F0E0808180628C93FE01E75BE0
:10427000FF4F8081882F90E081709070882339F003
:10428000A8E3B0E0E8E3F0E0808180618C93A5E3EF
:10429000B0E0E5E3F0E0808180688C9380E090E01E
:1042A000A0E0B0E48DA79EA7AFA7B8AB6DA57EA593
:1042B0008FA598A92BEA3AEA4AE250E40E941F022D
:1042C000DC01CB0189A79AA7ABA7BCA769A57AA5F2
:1042D0008BA59CA520E030E040E85FE30E94250428
:1042E00088231CF481E088A791C069A57AA58BA5D5
:1042F0009CA520E030E04FE753E40E94C503181668
:104300000CF07BC06DA57EA58FA598A920E030E0BC
:104310004AE754E40E941903DC01CB018CA39DA35E
:10432000AEA3BFA36CA17DA18EA19FA120E030E030
:104330004AEF54E40E941F02DC01CB0188A399A339
:10434000AAA3BBA368A179A18AA19BA120E030E028
:1043500040E85FE30E94250488232CF481E090E08C
:104360009F8F8E8F3FC068A179A18AA19BA120E079
:104370003FEF4FE757E40E94C50318164CF56CA1B8
:104380007DA18EA19FA120E030E040E251E40E9497
:104390001F02DC01CB01BC01CD010E944900DC0100
:1043A000CB019F8F8E8F0FC088EC90E09D8F8C8FFC
:1043B0008C8D9D8D0197F1F79D8F8C8F8E8D9F8DAC
:1043C00001979F8F8E8F8E8D9F8D009769F724C0E8
:1043D00068A179A18AA19BA10E944900DC01CB01BF
:1043E0009F8F8E8F8E8D9F8D9B8F8A8F8A8D9B8DB9
:1043F0000197F1F79B8F8A8F0FC069A57AA58BA5CE
:104400009CA50E944900DC01CB0188A788A5898F63
:10441000898D8A95F1F7898FA5E3B0E0E5E3F0E0B7
:1044200080818F778C9380E090E0A6E9B3E48D8B58
:104430009E8BAF8BB88F6D897E898F89988D2BEA83
:104440003AEA4AE250E40E941F02DC01CB01898B68
:104450009A8BAB8BBC8B69897A898B899C8920E08C
:1044600030E040E85FE30E94250488231CF481E0EB
:10447000888B91C069897A898B899C8920E030E09A
:104480004FE753E40E94C50318160CF07BC06D89FA
:104490007E898F89988D20E030E04AE754E40E94BD
:1044A0001903DC01CB018C879D87AE87BF876C85A4
:1044B0007D858E859F8520E030E04AEF54E40E94A0
:1044C0001F02DC01CB0188879987AA87BB87688593
:1044D00079858A859B8520E030E040E85FE30E9493
:1044E000250488232CF481E090E09F838E833FC0D5
:1044F000688579858A859B8520E03FEF4FE757E403
:104500000E94C50318164CF56C857D858E859F85A8
:1045100020E030E040E251E40E941F02DC01CB01C8
:10452000BC01CD010E944900DC01CB019F838E8339
:104530000FC088EC90E09D838C838C819D810197D6
:10454000F1F79D838C838E819F8101979F838E835A
:104550008E819F81009769F724C0688579858A8557
:104560009B850E944900DC01CB019F838E838E8155
:104570009F819B838A838A819B810197F1F79B832B
:104580008A830FC069897A898B899C890E94490036
:10459000DC01CB01888B8889898389818A95F1F731
:1045A0008983C75BDF4F0FB6F894DEBF0FBECDBF68
:1045B000CF91DF911F910F910895DF93CF93CDB7E6
:1045C000DEB764970FB6F894DEBF0FBECDBF8B8BFE
:1045D0006C8B80E88F8780EC888B84E9898B84EDF5
:1045E0008A8B8B89882F90E09C0121503040CE012E
:1045F0000F96FC01E20FF31F90818C89890F815087
:104600000E94331C80E090E0A0EAB1E48B879C8795
:10461000AD87BE876B857C858D859E8520E030E0EB
:104620004AEF54E40E941F02DC01CB018F8398877C
:10463000A987BA876F81788589859A8520E030E0DF
:1046400040E85FE30E94250488232CF481E090E099
:104650009E838D833FC06F81788589859A8520E010
:104660003FEF4FE757E40E94C50318164CF56B85E2
:104670007C858D859E8520E030E040E251E40E94FB
:104680001F02DC01CB01BC01CD010E944900DC010D
:10469000CB019E838D830FC088EC90E09C838B833D
:1046A0008B819C810197F1F79C838B838D819E8107
:1046B00001979E838D838D819E81009769F714C039
:1046C0006F81788589859A850E944900DC01CB013C
:1046D0009E838D838D819E819A83898389819A812E
:1046E0000197F1F79A83898364960FB6F894DEBF39
:1046F0000FBECDBFCF91DF910895DF93CF93CDB79C
:10470000DEB72A970FB6F894DEBF0FBECDBF9987EC
:1047100088876A87198286E0FE013296DF01982F2A
:104720001D929A95E9F7888599859E012E5F3F4FE6
:10473000B9014AE050E00E94A438198215C089816D
:10474000982F9F5F8A85692F0E94DD228981282FFB
:1047500030E0CE010296FC01E20FF31F80810E943F
:10476000881F89818F5F89838981282F30E0CE015E
:104770000296FC01E20FF31F8081882301F72A963D
:104780000FB6F894DEBF0FBECDBFCF91DF91089575
:10479000DF93CF9300D00F92CDB7DEB79B838A8390
:1047A00019820EC08981282F30E08A819B81FC010B
:1047B000E20FF31F80810E94881F89818F5F8983A8
:1047C0008981282F30E08A819B81FC01E20FF31F51
:1047D0008081882339F70F900F900F90CF91DF9150
:1047E0000895DF93CF9300D000D0CDB7DEB79B8381
:1047F0008A836C8319820EC08981282F30E08A81D8
:104800009B81FC01E20FF31F80810E94881F898138
:104810008F5F898399818C81981770F30F900F9027
:104820000F900F90CF91DF910895DF93CF93CDB785
:10483000DEB7A6970FB6F894DEBF0FBECDBF81E0FE
:104840000E94331C80E090E0A0E0B0E48BA39CA326
:10485000ADA3BEA36BA17CA18DA19EA12BEA3AEAD8
:104860004AE250E40E941F02DC01CB018F8F98A323
:10487000A9A3BAA36F8D78A189A19AA120E030E005
:1048800040E85FE30E94250488231CF481E08E8FBA
:1048900091C06F8D78A189A19AA120E030E04FE707
:1048A00053E40E94C50318160CF07BC06BA17CA1D9
:1048B0008DA19EA120E030E04AE754E40E94190354
:1048C000DC01CB018A8F9B8FAC8FBD8F6A8D7B8D76
:1048D0008C8D9D8D20E030E04AEF54E40E941F0251
:1048E000DC01CB018E8B9F8BA88FB98F6E897F895E
:1048F000888D998D20E030E040E85FE30E94250438
:1049000088232CF481E090E09D8B8C8B3FC06E89D6
:104910007F89888D998D20E03FEF4FE757E40E9413
:10492000C50318164CF56A8D7B8D8C8D9D8D20E00E
:1049300030E040E251E40E941F02DC01CB01BC01E7
:10494000CD010E944900DC01CB019D8B8C8B0FC0F7
:1049500088EC90E09B8B8A8B8A899B890197F1F781
:104960009B8B8A8B8C899D8901979D8B8C8B8C89E5
:104970009D89009769F724C06E897F89888D998DFC
:104980000E944900DC01CB019D8B8C8B8C899D8919
:10499000998B888B888999890197F1F7998B888BF6
:1049A0000FC06F8D78A189A19AA10E944900DC01F6
:1049B000CB018E8F8E8D8F878F858A95F1F78F87AC
:1049C00080E090E0A0E2B1E48B879C87AD87BE8752
:1049D0006B857C858D859E8520E030E04AEF54E430
:1049E0000E941F02DC01CB018F839887A987BA87B9
:1049F0006F81788589859A8520E030E040E85FE323
:104A00000E94250488232CF481E090E09E838D830E
:104A10003FC06F81788589859A8520E03FEF4FE719
:104A200057E40E94C50318164CF56B857C858D856F
:104A30009E8520E030E040E251E40E941F02DC014C
:104A4000CB01BC01CD010E944900DC01CB019E835A
:104A50008D830FC088EC90E09C838B838B819C813D
:104A60000197F1F79C838B838D819E8101979E83B3
:104A70008D838D819E81009769F714C06F81788541
:104A800089859A850E944900DC01CB019E838D8334
:104A90008D819E819A83898389819A810197F1F71B
:104AA0009A838983A6960FB6F894DEBF0FBECDBF5A
:104AB000CF91DF910895DF93CF9300D000D0CDB791
:104AC000DEB78A837C836B838A818830F8F48A819D
:104AD000882F90E00896880F991F880F991F880FDC
:104AE000991F0E94331C19820EC08981282F30E043
:104AF0008B819C81FC01E20FF31F80810E94881F43
:104B000089818F5F89838981883078F30F900F9036
:104B10000F900F90CF91DF910895DF93CF9300D046
:104B200000D0CDB7DEB79C838B831A821982EB81CC
:104B3000FC818081807F8983898182958F708983C0
:104B400089818A3020F08981895C898303C08981C9
:104B5000805D898389810E94881FEB81FC8180812F
:104B60008F708A838A818A3020F08A81895C8A8367
:104B700003C08A81805D8A838A810E94881F0F908A
:104B80000F900F900F90CF91DF910895DF93CF9307
:104B9000CDB7DEB76D970FB6F894DEBF0FBECDBFB1
:104BA0008D8FE8E3F0E08D8D8083A5E3B0E0E5E351
:104BB000F0E080818F7B8C93A5E3B0E0E5E3F0E04B
:104BC000808180688C9380E090E0A0E8BFE3898FCB
:104BD0009A8FAB8FBC8F698D7A8D8B8D9C8D20E0E9
:104BE00030E04AEF54E40E941F02DC01CB018D8BC0
:104BF0009E8BAF8BB88F6D897E898F89988D20E0D1
:104C000030E040E85FE30E94250488232CF481E033
:104C100090E09C8B8B8B3FC06D897E898F89988DAE
:104C200020E03FEF4FE757E40E94C50318164CF50C
:104C3000698D7A8D8B8D9C8D20E030E040E251E4CF
:104C40000E941F02DC01CB01BC01CD010E94490082
:104C5000DC01CB019C8B8B8B0FC088EC90E09A8B96
:104C6000898B89899A890197F1F79A8B898B8B892E
:104C70009C8901979C8B8B8B8B899C89009769F70A
:104C800014C06D897E898F89988D0E944900DC014E
:104C9000CB019C8B8B8B8B899C89988B8F878F8585
:104CA00098890197F1F7988B8F87A5E3B0E0E5E34A
:104CB000F0E080818F778C9380E090E0A0E8BFE304
:104CC0008B879C87AD87BE876B857C858D859E8510
:104CD00020E030E04AEF54E40E941F02DC01CB01E7
:104CE0008F839887A987BA876F81788589859A8508
:104CF00020E030E040E85FE30E94250488232CF4A4
:104D000081E090E09E838D833FC06F8178858985A7
:104D10009A8520E03FEF4FE757E40E94C50318163D
:104D20004CF56B857C858D859E8520E030E040E2EA
:104D300051E40E941F02DC01CB01BC01CD010E94A5
:104D40004900DC01CB019E838D830FC088EC90E08D
:104D50009C838B838B819C810197F1F79C838B8350
:104D60008D819E8101979E838D838D819E81009789
:104D700069F714C06F81788589859A850E944900FA
:104D8000DC01CB019E838D838D819E819A838983F3
:104D900089819A810197F1F79A8389836D960FB67D
:104DA000F894DEBF0FBECDBFCF91DF910895DF93A2
:104DB000CF93CDB7DEB72E970FB6F894DEBF0FBEF8
:104DC000CDBF80EC0E94331C80E090E0A0EAB1E40B
:104DD0008B879C87AD87BE876B857C858D859E85FF
:104DE00020E030E04AEF54E40E941F02DC01CB01D6
:104DF0008F839887A987BA876F81788589859A85F7
:104E000020E030E040E85FE30E94250488232CF492
:104E100081E090E09E838D833FC06F817885898596
:104E20009A8520E03FEF4FE757E40E94C50318162C
:104E30004CF56B857C858D859E8520E030E040E2D9
:104E400051E40E941F02DC01CB01BC01CD010E9494
:104E50004900DC01CB019E838D830FC088EC90E07C
:104E60009C838B838B819C810197F1F79C838B833F
:104E70008D819E8101979E838D838D819E81009778
:104E800069F714C06F81788589859A850E944900E9
:104E9000DC01CB019E838D838D819E819A838983E2
:104EA00089819A810197F1F79A8389832E960FB6AB
:104EB000F894DEBF0FBECDBFCF91DF910895DF9391
:104EC000CF93CDB7DEB729970FB6F894DEBF0FBEEC
:104ED000CDBF99878887198286E0FE013296DF016F
:104EE000982F1D929A95E9F7888599859E012E5FE6
:104EF0003F4FB9014AE050E00E94A43819820EC029
:104F00008981282F30E0CE010296FC01E20FF31FC9
:104F100080810E94881F89818F5F89838981282FE2
:104F200030E0CE010296FC01E20FF31F808188235E
:104F300039F729960FB6F894DEBF0FBECDBFCF91DB
:104F4000DF9108950F931F93DF93CF93CDB7DEB713
:104F5000CA52D1400FB6F894DEBF0FBECDBFFE01DE
:104F6000E65DFE4F1082FE01E75DFE4F1082FE01FE
:104F7000E85DFE4F1082FE01E95DFE4F1082FE01EA
:104F8000EA5DFE4F1082FE01EB5DFE4F81E0808303
:104F9000FE01ED5DFE4F11821082FE01EF5DFE4FBE
:104FA00011821082FE01E35EFE4F10821182128296
:104FB0001382A1E3B0E0E1E3F0E0808180628C93B2
:104FC0000E9467130E94E7180E94152489E890E068
:104FD0000E94C823FE01EB5EFE4F80E090E0AAEF46
:104FE000B4E480839183A283B3838E010F5E1E4F4E
:104FF000FE01EB5EFE4F608171818281938120E032
:1050000030E04AEF54E40E941F02DC01CB01F801BA
:1050100080839183A283B383FE01EF5EFE4F6081A4
:1050200071818281938120E030E040E85FE30E945B
:105030002504882344F4FE01E15FFE4F81E090E007
:105040009183808364C0FE01EF5EFE4F60817181B9
:105050008281938120E03FEF4FE757E40E94C50330
:1050600018160CF043C0FE01EB5EFE4F60817181AB
:105070008281938120E030E040E251E40E941F02EF
:10508000DC01CB018E01015F1E4FBC01CD010E94EE
:105090004900DC01CB01F801918380831FC0FE0130
:1050A000E35FFE4F88EC90E091838083FE01E35F35
:1050B000FE4F808191810197F1F7FE01E35FFE4F82
:1050C00091838083DE01A15FBE4FFE01E15FFE4F51
:1050D00080819181019711969C938E93FE01E15FEF
:1050E000FE4F808191810097D1F627C08E01015F2C
:1050F0001E4FFE01EF5EFE4F6081718182819381C0
:105100000E944900DC01CB01F80191838083DE011C
:10511000A55FBE4FFE01E15FFE4F808191818D93BF
:105120009C93FE01E55FFE4F808191810197F1F72D
:10513000FE01E55FFE4F918380830E942D0E84E97E
:1051400090E00E946E170E9415248BE990E00E9467
:10515000C823FE01E95FFE4F80E090E8ABE3B5E4D1
:1051600080839183A283B3838E010D5F1E4FFE0166
:10517000E95FFE4F608171818281938120E030E0A0
:105180004AEF54E40E941F02DC01CB01F801808346
:105190009183A283B383FE01ED5FFE4F6081718135
:1051A0008281938120E030E040E85FE30E942504A3
:1051B000882344F4FE01EF5FFE4F81E090E091838D
:1051C000808364C0FE01ED5FFE4F6081718182814A
:1051D000938120E03FEF4FE757E40E94C503181684
:1051E0000CF043C0FE01E95FFE4F60817181828156
:1051F000938120E030E040E251E40E941F02DC0194
:10520000CB018E010F5F1E4FBC01CD010E944900F2
:10521000DC01CB01F801918380831FC0FE01E150C6
:10522000FF4F88EC90E091838083FE01E150FF4FB7
:10523000808191810197F1F7FE01E150FF4F918349
:105240008083DE01AF5FBE4FFE01EF5FFE4F8081C6
:105250009181019711969C938E93FE01EF5FFE4F13
:10526000808191810097D1F627C08E010F5F1E4F7C
:10527000FE01ED5FFE4F60817181828193810E940A
:105280004900DC01CB01F80191838083DE01A3504A
:10529000BF4FFE01EF5FFE4F808191818D939C9304
:1052A000FE01E350FF4F808191810197F1F7FE01EC
:1052B000E350FF4F9183808387EA90E00E946E174E
:1052C0000E94152485EB90E00E94C823FE01E75060
:1052D000FF4F80E090E8ABE3B5E480839183A28345
:1052E000B3838E010B501F4FFE01E750FF4F6081CB
:1052F00071818281938120E030E04AEF54E40E9482
:105300001F02DC01CB01F80180839183A283B38368
:10531000FE01EB50FF4F608171818281938120E01B
:1053200030E040E85FE30E942504882344F4FE0156
:10533000ED50FF4F81E090E09183808364C0FE01D7
:10534000EB50FF4F608171818281938120E03FEFBC
:105350004FE757E40E94C50318160CF043C0FE0146
:10536000E750FF4F608171818281938120E030E0BE
:1053700040E251E40E941F02DC01CB018E010D507E
:105380001F4FBC01CD010E944900DC01CB01F80197
:10539000918380831FC0FE01EF50FF4F88EC90E0A7
:1053A00091838083FE01EF50FF4F808191810197AF
:1053B000F1F7FE01EF50FF4F91838083DE01AD5086
:1053C000BF4FFE01ED50FF4F8081918101971196F3
:1053D0009C938E93FE01ED50FF4F80819181009749
:1053E000D1F627C08E010D501F4FFE01EB50FF4F2D
:1053F00060817181828193810E944900DC01CB012F
:10540000F80191838083DE01A151BF4FFE01ED5071
:10541000FF4F808191818D939C93FE01E151FF4F5D
:10542000808191810197F1F7FE01E151FF4F918356
:10543000808383EC90E00E946E170E94152481ED1A
:1054400090E00E94C823FE01E551FF4F80E090E804
:10545000ABE3B5E480839183A283B3838E010951CA
:105460001F4FFE01E551FF4F608171818281938161
:1054700020E030E04AEF54E40E941F02DC01CB013F
:10548000F80180839183A283B383FE01E951FF4F2A
:10549000608171818281938120E030E040E85FE3A8
:1054A0000E942504882344F4FE01EB51FF4F81E064
:1054B00090E09183808364C0FE01E951FF4F6081D9
:1054C00071818281938120E03FEF4FE757E40E9492
:1054D000C50318160CF043C0FE01E551FF4F608173
:1054E00071818281938120E030E040E251E40E94AA
:1054F0001F02DC01CB018E010B511F4FBC01CD01FE
:105500000E944900DC01CB01F801918380831FC018
:10551000FE01ED51FF4F88EC90E091838083FE0106
:10552000ED51FF4F808191810197F1F7FE01ED511F
:10553000FF4F91838083DE01AB51BF4FFE01EB51E2
:10554000FF4F80819181019711969C938E93FE016C
:10555000EB51FF4F808191810097D1F627C08E01DA
:105560000B511F4FFE01E951FF4F60817181828114
:1055700093810E944900DC01CB01F8019183808373
:10558000DE01AF51BF4FFE01EB51FF4F8081918192
:105590008D939C93FE01EF51FF4F80819181019784
:1055A000F1F7FE01EF51FF4F9183808380EE90E091
:1055B0000E946E170E9415248FEE90E00E94C8236F
:1055C000FE01E352FF4F80E090E8ABE3B5E4808357
:1055D0009183A283B3838E0107521F4FFE01E352D2
:1055E000FF4F608171818281938120E030E04AEF3A
:1055F00054E40E941F02DC01CB01F80180839183F7
:10560000A283B383FE01E752FF4F608171818281E3
:10561000938120E030E040E85FE30E942504882386
:1056200044F4FE01E952FF4F81E090E091838083D2
:1056300064C0FE01E752FF4F6081718182819381D6
:1056400020E03FEF4FE757E40E94C50318160CF027
:1056500043C0FE01E352FF4F6081718182819381DB
:1056600020E030E040E251E40E941F02DC01CB0167
:105670008E0109521F4FBC01CD010E944900DC017F
:10568000CB01F801918380831FC0FE01EB52FF4FD5
:1056900088EC90E091838083FE01EB52FF4F808184
:1056A00091810197F1F7FE01EB52FF4F91838083C7
:1056B000DE01A952BF4FFE01E952FF4F8081918167
:1056C000019711969C938E93FE01E952FF4F8081C2
:1056D00091810097D1F627C08E0109521F4FFE011C
:1056E000E752FF4F60817181828193810E9449005E
:1056F000DC01CB01F80191838083DE01AD52BF4F05
:10570000FE01E952FF4F808191818D939C93FE01B0
:10571000ED52FF4F808191810197F1F7FE01ED522B
:10572000FF4F918380838BEF90E00E946E170E9461
:1057300015248EE191E00E94C823FE01E153FF4F42
:1057400080E090E8ABE3B5E480839183A283B383E8
:105750008E0105531F4FFE01E153FF4F60817181A0
:105760008281938120E030E04AEF54E40E941F02DE
:10577000DC01CB01F80180839183A283B383FE0116
:10578000E553FF4F608171818281938120E030E099
:1057900040E85FE30E942504882344F4FE01E753B8
:1057A000FF4F81E090E09183808364C0FE01E55368
:1057B000FF4F608171818281938120E03FEF4FE74D
:1057C00057E40E94C50318160CF043C0FE01E153D4
:1057D000FF4F608171818281938120E030E040E25F
:1057E00051E40E941F02DC01CB018E0107531F4FC1
:1057F000BC01CD010E944900DC01CB01F80191837D
:1058000080831FC0FE01E953FF4F88EC90E0918335
:105810008083FE01E953FF4F808191810197F1F769
:10582000FE01E953FF4F91838083DE01A753BF4FF1
:10583000FE01E753FF4F80819181019711969C9360
:105840008E93FE01E753FF4F808191810097D1F63F
:1058500027C08E0107531F4FFE01E553FF4F6081A4
:105860007181828193810E944900DC01CB01F801A2
:1058700091838083DE01AB53BF4FFE01E753FF4F9F
:10588000808191818D939C93FE01EB53FF4F80812A
:1058900091810197F1F7FE01EB53FF4F91838083D4
:1058A000FE01EF53FF4F80E090E8ABE3B5E4808367
:1058B0009183A283B3838E0103541F4FFE01EF53E4
:1058C000FF4F608171818281938120E030E04AEF57
:1058D00054E40E941F02DC01CB01F8018083918314
:1058E000A283B383FE01E354FF4F60817181828103
:1058F000938120E030E040E85FE30E9425048823A4
:1059000044F4FE01E554FF4F81E090E091838083F1
:1059100064C0FE01E354FF4F6081718182819381F5
:1059200020E03FEF4FE757E40E94C50318160CF044
:1059300043C0FE01EF53FF4F6081718182819381EB
:1059400020E030E040E251E40E941F02DC01CB0184
:105950008E0105541F4FBC01CD010E944900DC019E
:10596000CB01F801918380831FC0FE01E754FF4FF4
:1059700088EC90E091838083FE01E754FF4F8081A3
:1059800091810197F1F7FE01E754FF4F91838083E6
:10599000DE01A554BF4FFE01E554FF4F8081918188
:1059A000019711969C938E93FE01E554FF4F8081E1
:1059B00091810097D1F627C08E0105541F4FFE013B
:1059C000E354FF4F60817181828193810E9449007D
:1059D000DC01CB01F80191838083DE01A954BF4F24
:1059E000FE01E554FF4F808191818D939C93FE01D0
:1059F000E954FF4F808191810197F1F7FE01E9544D
:105A0000FF4F91838083FE01ED54FF4F80E090E8CB
:105A1000ABE3B5E480839183A283B3838E01015508
:105A20001F4FFE01ED54FF4F608171818281938190
:105A300020E030E04AEF54E40E941F02DC01CB0179
:105A4000F80180839183A283B383FE01E155FF4F68
:105A5000608171818281938120E030E040E85FE3E2
:105A60000E942504882344F4FE01E355FF4F81E0A2
:105A700090E09183808364C0FE01E155FF4F608117
:105A800071818281938120E03FEF4FE757E40E94CC
:105A9000C50318160CF043C0FE01ED54FF4F6081A2
:105AA00071818281938120E030E040E251E40E94E4
:105AB0001F02DC01CB018E0103551F4FBC01CD013C
:105AC0000E944900DC01CB01F801918380831FC053
:105AD000FE01E555FF4F88EC90E091838083FE0145
